{
  "address": "0x33fA4A3d749f9968763379385B891AeC48135a6F",
  "abi": [
    {
      "inputs": [
        {
          "internalType": "address",
          "name": "_factory",
          "type": "address"
        },
        {
          "internalType": "address",
          "name": "_WETH9",
          "type": "address"
        },
        {
          "internalType": "address",
          "name": "_tokenDescriptor_",
          "type": "address"
        }
      ],
      "stateMutability": "nonpayable",
      "type": "constructor"
    },
    {
      "inputs": [],
      "name": "T",
      "type": "error"
    },
    {
      "anonymous": false,
      "inputs": [
        {
          "indexed": true,
          "internalType": "address",
          "name": "owner",
          "type": "address"
        },
        {
          "indexed": true,
          "internalType": "address",
          "name": "approved",
          "type": "address"
        },
        {
          "indexed": true,
          "internalType": "uint256",
          "name": "tokenId",
          "type": "uint256"
        }
      ],
      "name": "Approval",
      "type": "event"
    },
    {
      "anonymous": false,
      "inputs": [
        {
          "indexed": true,
          "internalType": "address",
          "name": "owner",
          "type": "address"
        },
        {
          "indexed": true,
          "internalType": "address",
          "name": "operator",
          "type": "address"
        },
        {
          "indexed": false,
          "internalType": "bool",
          "name": "approved",
          "type": "bool"
        }
      ],
      "name": "ApprovalForAll",
      "type": "event"
    },
    {
      "anonymous": false,
      "inputs": [
        {
          "indexed": true,
          "internalType": "uint256",
          "name": "tokenId",
          "type": "uint256"
        },
        {
          "indexed": false,
          "internalType": "address",
          "name": "recipient",
          "type": "address"
        },
        {
          "indexed": false,
          "internalType": "uint256",
          "name": "amount0",
          "type": "uint256"
        },
        {
          "indexed": false,
          "internalType": "uint256",
          "name": "amount1",
          "type": "uint256"
        }
      ],
      "name": "Collect",
      "type": "event"
    },
    {
      "anonymous": false,
      "inputs": [
        {
          "indexed": true,
          "internalType": "uint256",
          "name": "tokenId",
          "type": "uint256"
        },
        {
          "indexed": false,
          "internalType": "uint128",
          "name": "liquidity",
          "type": "uint128"
        },
        {
          "indexed": false,
          "internalType": "uint256",
          "name": "amount0",
          "type": "uint256"
        },
        {
          "indexed": false,
          "internalType": "uint256",
          "name": "amount1",
          "type": "uint256"
        }
      ],
      "name": "DecreaseLiquidity",
      "type": "event"
    },
    {
      "anonymous": false,
      "inputs": [
        {
          "indexed": true,
          "internalType": "uint256",
          "name": "tokenId",
          "type": "uint256"
        },
        {
          "indexed": false,
          "internalType": "uint128",
          "name": "liquidity",
          "type": "uint128"
        },
        {
          "indexed": false,
          "internalType": "uint256",
          "name": "amount0",
          "type": "uint256"
        },
        {
          "indexed": false,
          "internalType": "uint256",
          "name": "amount1",
          "type": "uint256"
        }
      ],
      "name": "IncreaseLiquidity",
      "type": "event"
    },
    {
      "anonymous": false,
      "inputs": [
        {
          "indexed": true,
          "internalType": "address",
          "name": "from",
          "type": "address"
        },
        {
          "indexed": true,
          "internalType": "address",
          "name": "to",
          "type": "address"
        },
        {
          "indexed": true,
          "internalType": "uint256",
          "name": "tokenId",
          "type": "uint256"
        }
      ],
      "name": "Transfer",
      "type": "event"
    },
    {
      "inputs": [],
      "name": "DOMAIN_SEPARATOR",
      "outputs": [
        {
          "internalType": "bytes32",
          "name": "",
          "type": "bytes32"
        }
      ],
      "stateMutability": "view",
      "type": "function"
    },
    {
      "inputs": [],
      "name": "PERMIT_TYPEHASH",
      "outputs": [
        {
          "internalType": "bytes32",
          "name": "",
          "type": "bytes32"
        }
      ],
      "stateMutability": "view",
      "type": "function"
    },
    {
      "inputs": [],
      "name": "WETH9",
      "outputs": [
        {
          "internalType": "address",
          "name": "",
          "type": "address"
        }
      ],
      "stateMutability": "view",
      "type": "function"
    },
    {
      "inputs": [
        {
          "internalType": "address",
          "name": "to",
          "type": "address"
        },
        {
          "internalType": "uint256",
          "name": "tokenId",
          "type": "uint256"
        }
      ],
      "name": "approve",
      "outputs": [],
      "stateMutability": "nonpayable",
      "type": "function"
    },
    {
      "inputs": [
        {
          "internalType": "address",
          "name": "owner",
          "type": "address"
        }
      ],
      "name": "balanceOf",
      "outputs": [
        {
          "internalType": "uint256",
          "name": "",
          "type": "uint256"
        }
      ],
      "stateMutability": "view",
      "type": "function"
    },
    {
      "inputs": [],
      "name": "baseURI",
      "outputs": [
        {
          "internalType": "string",
          "name": "",
          "type": "string"
        }
      ],
      "stateMutability": "pure",
      "type": "function"
    },
    {
      "inputs": [
        {
          "internalType": "uint256",
          "name": "tokenId",
          "type": "uint256"
        }
      ],
      "name": "burn",
      "outputs": [],
      "stateMutability": "payable",
      "type": "function"
    },
    {
      "inputs": [
        {
          "components": [
            {
              "internalType": "uint256",
              "name": "tokenId",
              "type": "uint256"
            },
            {
              "internalType": "address",
              "name": "recipient",
              "type": "address"
            },
            {
              "internalType": "uint128",
              "name": "amount0Max",
              "type": "uint128"
            },
            {
              "internalType": "uint128",
              "name": "amount1Max",
              "type": "uint128"
            }
          ],
          "internalType": "struct INonfungiblePositionManager.CollectParams",
          "name": "params",
          "type": "tuple"
        }
      ],
      "name": "collect",
      "outputs": [
        {
          "internalType": "uint256",
          "name": "amount0",
          "type": "uint256"
        },
        {
          "internalType": "uint256",
          "name": "amount1",
          "type": "uint256"
        }
      ],
      "stateMutability": "payable",
      "type": "function"
    },
    {
      "inputs": [
        {
          "internalType": "address",
          "name": "token0",
          "type": "address"
        },
        {
          "internalType": "address",
          "name": "token1",
          "type": "address"
        },
        {
          "internalType": "uint24",
          "name": "fee",
          "type": "uint24"
        },
        {
          "internalType": "uint160",
          "name": "sqrtPriceX96",
          "type": "uint160"
        }
      ],
      "name": "createAndInitializePoolIfNecessary",
      "outputs": [
        {
          "internalType": "address",
          "name": "pool",
          "type": "address"
        }
      ],
      "stateMutability": "payable",
      "type": "function"
    },
    {
      "inputs": [
        {
          "components": [
            {
              "internalType": "uint256",
              "name": "tokenId",
              "type": "uint256"
            },
            {
              "internalType": "uint128",
              "name": "liquidity",
              "type": "uint128"
            },
            {
              "internalType": "uint256",
              "name": "amount0Min",
              "type": "uint256"
            },
            {
              "internalType": "uint256",
              "name": "amount1Min",
              "type": "uint256"
            },
            {
              "internalType": "uint256",
              "name": "deadline",
              "type": "uint256"
            }
          ],
          "internalType": "struct INonfungiblePositionManager.DecreaseLiquidityParams",
          "name": "params",
          "type": "tuple"
        }
      ],
      "name": "decreaseLiquidity",
      "outputs": [
        {
          "internalType": "uint256",
          "name": "amount0",
          "type": "uint256"
        },
        {
          "internalType": "uint256",
          "name": "amount1",
          "type": "uint256"
        }
      ],
      "stateMutability": "payable",
      "type": "function"
    },
    {
      "inputs": [],
      "name": "factory",
      "outputs": [
        {
          "internalType": "address",
          "name": "",
          "type": "address"
        }
      ],
      "stateMutability": "view",
      "type": "function"
    },
    {
      "inputs": [
        {
          "internalType": "uint256",
          "name": "tokenId",
          "type": "uint256"
        }
      ],
      "name": "getApproved",
      "outputs": [
        {
          "internalType": "address",
          "name": "",
          "type": "address"
        }
      ],
      "stateMutability": "view",
      "type": "function"
    },
    {
      "inputs": [
        {
          "components": [
            {
              "internalType": "uint256",
              "name": "tokenId",
              "type": "uint256"
            },
            {
              "internalType": "uint256",
              "name": "amount0Desired",
              "type": "uint256"
            },
            {
              "internalType": "uint256",
              "name": "amount1Desired",
              "type": "uint256"
            },
            {
              "internalType": "uint256",
              "name": "amount0Min",
              "type": "uint256"
            },
            {
              "internalType": "uint256",
              "name": "amount1Min",
              "type": "uint256"
            },
            {
              "internalType": "uint256",
              "name": "deadline",
              "type": "uint256"
            }
          ],
          "internalType": "struct INonfungiblePositionManager.IncreaseLiquidityParams",
          "name": "params",
          "type": "tuple"
        }
      ],
      "name": "increaseLiquidity",
      "outputs": [
        {
          "internalType": "uint128",
          "name": "liquidity",
          "type": "uint128"
        },
        {
          "internalType": "uint256",
          "name": "amount0",
          "type": "uint256"
        },
        {
          "internalType": "uint256",
          "name": "amount1",
          "type": "uint256"
        }
      ],
      "stateMutability": "payable",
      "type": "function"
    },
    {
      "inputs": [
        {
          "internalType": "address",
          "name": "owner",
          "type": "address"
        },
        {
          "internalType": "address",
          "name": "operator",
          "type": "address"
        }
      ],
      "name": "isApprovedForAll",
      "outputs": [
        {
          "internalType": "bool",
          "name": "",
          "type": "bool"
        }
      ],
      "stateMutability": "view",
      "type": "function"
    },
    {
      "inputs": [
        {
          "components": [
            {
              "internalType": "address",
              "name": "token0",
              "type": "address"
            },
            {
              "internalType": "address",
              "name": "token1",
              "type": "address"
            },
            {
              "internalType": "uint24",
              "name": "fee",
              "type": "uint24"
            },
            {
              "internalType": "int24",
              "name": "tickLower",
              "type": "int24"
            },
            {
              "internalType": "int24",
              "name": "tickUpper",
              "type": "int24"
            },
            {
              "internalType": "uint256",
              "name": "amount0Desired",
              "type": "uint256"
            },
            {
              "internalType": "uint256",
              "name": "amount1Desired",
              "type": "uint256"
            },
            {
              "internalType": "uint256",
              "name": "amount0Min",
              "type": "uint256"
            },
            {
              "internalType": "uint256",
              "name": "amount1Min",
              "type": "uint256"
            },
            {
              "internalType": "address",
              "name": "recipient",
              "type": "address"
            },
            {
              "internalType": "uint256",
              "name": "deadline",
              "type": "uint256"
            }
          ],
          "internalType": "struct INonfungiblePositionManager.MintParams",
          "name": "params",
          "type": "tuple"
        }
      ],
      "name": "mint",
      "outputs": [
        {
          "internalType": "uint256",
          "name": "tokenId",
          "type": "uint256"
        },
        {
          "internalType": "uint128",
          "name": "liquidity",
          "type": "uint128"
        },
        {
          "internalType": "uint256",
          "name": "amount0",
          "type": "uint256"
        },
        {
          "internalType": "uint256",
          "name": "amount1",
          "type": "uint256"
        }
      ],
      "stateMutability": "payable",
      "type": "function"
    },
    {
      "inputs": [
        {
          "internalType": "bytes[]",
          "name": "data",
          "type": "bytes[]"
        }
      ],
      "name": "multicall",
      "outputs": [
        {
          "internalType": "bytes[]",
          "name": "results",
          "type": "bytes[]"
        }
      ],
      "stateMutability": "payable",
      "type": "function"
    },
    {
      "inputs": [],
      "name": "name",
      "outputs": [
        {
          "internalType": "string",
          "name": "",
          "type": "string"
        }
      ],
      "stateMutability": "view",
      "type": "function"
    },
    {
      "inputs": [
        {
          "internalType": "uint256",
          "name": "tokenId",
          "type": "uint256"
        }
      ],
      "name": "ownerOf",
      "outputs": [
        {
          "internalType": "address",
          "name": "",
          "type": "address"
        }
      ],
      "stateMutability": "view",
      "type": "function"
    },
    {
      "inputs": [
        {
          "internalType": "address",
          "name": "spender",
          "type": "address"
        },
        {
          "internalType": "uint256",
          "name": "tokenId",
          "type": "uint256"
        },
        {
          "internalType": "uint256",
          "name": "deadline",
          "type": "uint256"
        },
        {
          "internalType": "uint8",
          "name": "v",
          "type": "uint8"
        },
        {
          "internalType": "bytes32",
          "name": "r",
          "type": "bytes32"
        },
        {
          "internalType": "bytes32",
          "name": "s",
          "type": "bytes32"
        }
      ],
      "name": "permit",
      "outputs": [],
      "stateMutability": "payable",
      "type": "function"
    },
    {
      "inputs": [
        {
          "internalType": "uint256",
          "name": "tokenId",
          "type": "uint256"
        }
      ],
      "name": "positions",
      "outputs": [
        {
          "internalType": "uint96",
          "name": "nonce",
          "type": "uint96"
        },
        {
          "internalType": "address",
          "name": "operator",
          "type": "address"
        },
        {
          "internalType": "address",
          "name": "token0",
          "type": "address"
        },
        {
          "internalType": "address",
          "name": "token1",
          "type": "address"
        },
        {
          "internalType": "uint24",
          "name": "fee",
          "type": "uint24"
        },
        {
          "internalType": "int24",
          "name": "tickLower",
          "type": "int24"
        },
        {
          "internalType": "int24",
          "name": "tickUpper",
          "type": "int24"
        },
        {
          "internalType": "uint128",
          "name": "liquidity",
          "type": "uint128"
        },
        {
          "internalType": "uint256",
          "name": "feeGrowthInside0LastX128",
          "type": "uint256"
        },
        {
          "internalType": "uint256",
          "name": "feeGrowthInside1LastX128",
          "type": "uint256"
        },
        {
          "internalType": "uint128",
          "name": "tokensOwed0",
          "type": "uint128"
        },
        {
          "internalType": "uint128",
          "name": "tokensOwed1",
          "type": "uint128"
        }
      ],
      "stateMutability": "view",
      "type": "function"
    },
    {
      "inputs": [],
      "name": "refundETH",
      "outputs": [],
      "stateMutability": "payable",
      "type": "function"
    },
    {
      "inputs": [
        {
          "internalType": "address",
          "name": "from",
          "type": "address"
        },
        {
          "internalType": "address",
          "name": "to",
          "type": "address"
        },
        {
          "internalType": "uint256",
          "name": "tokenId",
          "type": "uint256"
        }
      ],
      "name": "safeTransferFrom",
      "outputs": [],
      "stateMutability": "nonpayable",
      "type": "function"
    },
    {
      "inputs": [
        {
          "internalType": "address",
          "name": "from",
          "type": "address"
        },
        {
          "internalType": "address",
          "name": "to",
          "type": "address"
        },
        {
          "internalType": "uint256",
          "name": "tokenId",
          "type": "uint256"
        },
        {
          "internalType": "bytes",
          "name": "data",
          "type": "bytes"
        }
      ],
      "name": "safeTransferFrom",
      "outputs": [],
      "stateMutability": "nonpayable",
      "type": "function"
    },
    {
      "inputs": [
        {
          "internalType": "address",
          "name": "token",
          "type": "address"
        },
        {
          "internalType": "uint256",
          "name": "value",
          "type": "uint256"
        },
        {
          "internalType": "uint256",
          "name": "deadline",
          "type": "uint256"
        },
        {
          "internalType": "uint8",
          "name": "v",
          "type": "uint8"
        },
        {
          "internalType": "bytes32",
          "name": "r",
          "type": "bytes32"
        },
        {
          "internalType": "bytes32",
          "name": "s",
          "type": "bytes32"
        }
      ],
      "name": "selfPermit",
      "outputs": [],
      "stateMutability": "payable",
      "type": "function"
    },
    {
      "inputs": [
        {
          "internalType": "address",
          "name": "token",
          "type": "address"
        },
        {
          "internalType": "uint256",
          "name": "nonce",
          "type": "uint256"
        },
        {
          "internalType": "uint256",
          "name": "expiry",
          "type": "uint256"
        },
        {
          "internalType": "uint8",
          "name": "v",
          "type": "uint8"
        },
        {
          "internalType": "bytes32",
          "name": "r",
          "type": "bytes32"
        },
        {
          "internalType": "bytes32",
          "name": "s",
          "type": "bytes32"
        }
      ],
      "name": "selfPermitAllowed",
      "outputs": [],
      "stateMutability": "payable",
      "type": "function"
    },
    {
      "inputs": [
        {
          "internalType": "address",
          "name": "token",
          "type": "address"
        },
        {
          "internalType": "uint256",
          "name": "nonce",
          "type": "uint256"
        },
        {
          "internalType": "uint256",
          "name": "expiry",
          "type": "uint256"
        },
        {
          "internalType": "uint8",
          "name": "v",
          "type": "uint8"
        },
        {
          "internalType": "bytes32",
          "name": "r",
          "type": "bytes32"
        },
        {
          "internalType": "bytes32",
          "name": "s",
          "type": "bytes32"
        }
      ],
      "name": "selfPermitAllowedIfNecessary",
      "outputs": [],
      "stateMutability": "payable",
      "type": "function"
    },
    {
      "inputs": [
        {
          "internalType": "address",
          "name": "token",
          "type": "address"
        },
        {
          "internalType": "uint256",
          "name": "value",
          "type": "uint256"
        },
        {
          "internalType": "uint256",
          "name": "deadline",
          "type": "uint256"
        },
        {
          "internalType": "uint8",
          "name": "v",
          "type": "uint8"
        },
        {
          "internalType": "bytes32",
          "name": "r",
          "type": "bytes32"
        },
        {
          "internalType": "bytes32",
          "name": "s",
          "type": "bytes32"
        }
      ],
      "name": "selfPermitIfNecessary",
      "outputs": [],
      "stateMutability": "payable",
      "type": "function"
    },
    {
      "inputs": [
        {
          "internalType": "address",
          "name": "operator",
          "type": "address"
        },
        {
          "internalType": "bool",
          "name": "approved",
          "type": "bool"
        }
      ],
      "name": "setApprovalForAll",
      "outputs": [],
      "stateMutability": "nonpayable",
      "type": "function"
    },
    {
      "inputs": [
        {
          "internalType": "bytes4",
          "name": "interfaceId",
          "type": "bytes4"
        }
      ],
      "name": "supportsInterface",
      "outputs": [
        {
          "internalType": "bool",
          "name": "",
          "type": "bool"
        }
      ],
      "stateMutability": "view",
      "type": "function"
    },
    {
      "inputs": [
        {
          "internalType": "address",
          "name": "token",
          "type": "address"
        },
        {
          "internalType": "uint256",
          "name": "amountMinimum",
          "type": "uint256"
        },
        {
          "internalType": "address",
          "name": "recipient",
          "type": "address"
        }
      ],
      "name": "sweepToken",
      "outputs": [],
      "stateMutability": "payable",
      "type": "function"
    },
    {
      "inputs": [],
      "name": "symbol",
      "outputs": [
        {
          "internalType": "string",
          "name": "",
          "type": "string"
        }
      ],
      "stateMutability": "view",
      "type": "function"
    },
    {
      "inputs": [
        {
          "internalType": "uint256",
          "name": "index",
          "type": "uint256"
        }
      ],
      "name": "tokenByIndex",
      "outputs": [
        {
          "internalType": "uint256",
          "name": "",
          "type": "uint256"
        }
      ],
      "stateMutability": "view",
      "type": "function"
    },
    {
      "inputs": [
        {
          "internalType": "address",
          "name": "owner",
          "type": "address"
        },
        {
          "internalType": "uint256",
          "name": "index",
          "type": "uint256"
        }
      ],
      "name": "tokenOfOwnerByIndex",
      "outputs": [
        {
          "internalType": "uint256",
          "name": "",
          "type": "uint256"
        }
      ],
      "stateMutability": "view",
      "type": "function"
    },
    {
      "inputs": [
        {
          "internalType": "uint256",
          "name": "tokenId",
          "type": "uint256"
        }
      ],
      "name": "tokenURI",
      "outputs": [
        {
          "internalType": "string",
          "name": "",
          "type": "string"
        }
      ],
      "stateMutability": "view",
      "type": "function"
    },
    {
      "inputs": [],
      "name": "totalSupply",
      "outputs": [
        {
          "internalType": "uint256",
          "name": "",
          "type": "uint256"
        }
      ],
      "stateMutability": "view",
      "type": "function"
    },
    {
      "inputs": [
        {
          "internalType": "address",
          "name": "from",
          "type": "address"
        },
        {
          "internalType": "address",
          "name": "to",
          "type": "address"
        },
        {
          "internalType": "uint256",
          "name": "tokenId",
          "type": "uint256"
        }
      ],
      "name": "transferFrom",
      "outputs": [],
      "stateMutability": "nonpayable",
      "type": "function"
    },
    {
      "inputs": [
        {
          "internalType": "uint256",
          "name": "amount0Owed",
          "type": "uint256"
        },
        {
          "internalType": "uint256",
          "name": "amount1Owed",
          "type": "uint256"
        },
        {
          "internalType": "bytes",
          "name": "data",
          "type": "bytes"
        }
      ],
      "name": "uniswapV3MintCallback",
      "outputs": [],
      "stateMutability": "nonpayable",
      "type": "function"
    },
    {
      "inputs": [
        {
          "internalType": "uint256",
          "name": "amountMinimum",
          "type": "uint256"
        },
        {
          "internalType": "address",
          "name": "recipient",
          "type": "address"
        }
      ],
      "name": "unwrapWETH9",
      "outputs": [],
      "stateMutability": "payable",
      "type": "function"
    },
    {
      "stateMutability": "payable",
      "type": "receive"
    }
  ],
  "transactionHash": "0xb4d6bb2721852b3e30b68e9a0616de8eecdde6916756c8753949e11ae0f1880e",
  "args": [
    "0xFeE7Cc22453Da768Ea1c9784a09c00dCcaE83dE8",
    "0x471EcE3750Da237f93B8E339c536989b8978a438",
    "0x9b2Ec125b0b0a88dbf5Ec3e350B3Ff998De12f04"
  ],
  "numDeployments": 1,
  "solcInputHash": "ce861080e07f37249ace9aab2f96e50a",
  "bytecode": "0x610120604052760100000000000000000000000000000000000000000001600d553480156200002d57600080fd5b50604051620062123803806200621283398101604081905262000050916200013f565b82826040518060400160405280601b81526020017f556e697377617020563320506f736974696f6e73204e46542d563100000000008152506040518060400160405280600a815260200169554e492d56332d504f5360b01b815250604051806040016040528060018152602001603160f81b81525082828160009081620000d891906200022e565b506001620000e782826200022e565b5050835160209485012060805250805192019190912060a052506001600160a01b0391821660c052811660e052166101005250620002fa9050565b80516001600160a01b03811681146200013a57600080fd5b919050565b6000806000606084860312156200015557600080fd5b620001608462000122565b9250620001706020850162000122565b9150620001806040850162000122565b90509250925092565b634e487b7160e01b600052604160045260246000fd5b600181811c90821680620001b457607f821691505b602082108103620001d557634e487b7160e01b600052602260045260246000fd5b50919050565b601f8211156200022957600081815260208120601f850160051c81016020861015620002045750805b601f850160051c820191505b81811015620002255782815560010162000210565b5050505b505050565b81516001600160401b038111156200024a576200024a62000189565b62000262816200025b84546200019f565b84620001db565b602080601f8311600181146200029a5760008415620002815750858301515b600019600386901b1c1916600185901b17855562000225565b600085815260208120601f198616915b82811015620002cb57888601518255948401946001909101908401620002aa565b5085821015620002ea5787850151600019600388901b60f8161c191681555b5050505050600190811b01905550565b60805160a05160c05160e05161010051615e71620003a16000396000612deb015260008181610299015281816105f001528181611a6701528181611b610152818161446f015281816144b501526145630152600081816107b901528181610ce7015281816110f5015281816111bb01528181612e77015281816131830152613a450152600081816105250152611e0d0152600081816105040152611dec0152615e716000f3fe6080604052600436106102895760003560e01c80636352211e11610153578063ac9650d8116100cb578063d34879971161007f578063e985e9c511610064578063e985e9c51461082e578063f3995c6714610877578063fc6f78651461088a57600080fd5b8063d3487997146107fb578063df2ab5bb1461081b57600080fd5b8063c2e3140a116100b0578063c2e3140a14610794578063c45a0155146107a7578063c87b56dd146107db57600080fd5b8063ac9650d814610754578063b88d4fde1461077457600080fd5b8063883164561161012257806399fbab881161010757806399fbab88146106e9578063a22cb46514610721578063a4a78f0c1461074157600080fd5b8063883164561461069957806395d89b41146106d457600080fd5b80636352211e146106325780636c0360eb1461065257806370a08231146106665780637ac2ff7b1461068657600080fd5b806323b872dd1161020157806342966c68116101b557806349404b7c1161019a57806349404b7c146105cb5780634aa4a4fc146105de5780634f6ccce71461061257600080fd5b806342966c68146105a55780634659a494146105b857600080fd5b806330adf81f116101e657806330adf81f1461049b5780633644e515146104cf57806342842e0e1461058557600080fd5b806323b872dd1461045b5780632f745c591461047b57600080fd5b80630c49ccbe1161025857806313ead5621161023d57806313ead562146103f157806318160ddd14610404578063219f5d171461042357600080fd5b80630c49ccbe146103c157806312210e8a146103e957600080fd5b806301ffc9a71461031257806306fdde0314610347578063081812fc14610369578063095ea7b3146103a157600080fd5b3661030d57336001600160a01b037f0000000000000000000000000000000000000000000000000000000000000000161461030b5760405162461bcd60e51b815260206004820152600960248201527f4e6f74205745544839000000000000000000000000000000000000000000000060448201526064015b60405180910390fd5b005b600080fd5b34801561031e57600080fd5b5061033261032d3660046151c3565b61089d565b60405190151581526020015b60405180910390f35b34801561035357600080fd5b5061035c6108e1565b60405161033e9190615238565b34801561037557600080fd5b5061038961038436600461524b565b610973565b6040516001600160a01b03909116815260200161033e565b3480156103ad57600080fd5b5061030b6103bc366004615279565b610a29565b6103d46103cf3660046152a5565b610b5a565b6040805192835260208301919091520161033e565b61030b611078565b6103896103ff3660046152d0565b61108a565b34801561041057600080fd5b506008545b60405190815260200161033e565b61043661043136600461532a565b6113a1565b604080516001600160801b03909416845260208401929092529082015260600161033e565b34801561046757600080fd5b5061030b61047636600461533c565b61170f565b34801561048757600080fd5b50610415610496366004615279565b611796565b3480156104a757600080fd5b506104157f49ecf333e5b8c95c40fdafc95c1ad136e8914a8fb55e9dc8bb01eaa83a2df9ad81565b3480156104db57600080fd5b5061041560007f8b73c3c69bb8fe3d512ecc4cf759cc79239f7b179b0ffacaa9a75d522b39400f7f00000000000000000000000000000000000000000000000000000000000000007f000000000000000000000000000000000000000000000000000000000000000046604080516020810195909552840192909252606083015260808201523060a082015260c00160405160208183030381529060405280519060200120905090565b34801561059157600080fd5b5061030b6105a036600461533c565b61183e565b61030b6105b336600461524b565b611859565b61030b6105c636600461538c565b611988565b61030b6105d93660046153e8565b611a36565b3480156105ea57600080fd5b506103897f000000000000000000000000000000000000000000000000000000000000000081565b34801561061e57600080fd5b5061041561062d36600461524b565b611bcf565b34801561063e57600080fd5b5061038961064d36600461524b565b611c73565b34801561065e57600080fd5b50606061035c565b34801561067257600080fd5b50610415610681366004615418565b611cd8565b61030b61069436600461538c565b611d72565b6106ac6106a7366004615435565b612259565b604080519485526001600160801b03909316602085015291830152606082015260800161033e565b3480156106e057600080fd5b5061035c6127f1565b3480156106f557600080fd5b5061070961070436600461524b565b612800565b60405161033e9c9b9a99989796959493929190615448565b34801561072d57600080fd5b5061030b61073c3660046154fc565b612a59565b61030b61074f36600461538c565b612a68565b61076761076236600461552a565b612b0f565b60405161033e919061559f565b34801561078057600080fd5b5061030b61078f36600461568e565b612c67565b61030b6107a236600461538c565b612cf5565b3480156107b357600080fd5b506103897f000000000000000000000000000000000000000000000000000000000000000081565b3480156107e757600080fd5b5061035c6107f636600461524b565b612d92565b34801561080757600080fd5b5061030b61081636600461573d565b612e62565b61030b6108293660046157bd565b612ee0565b34801561083a57600080fd5b506103326108493660046157ff565b6001600160a01b03918216600090815260056020908152604080832093909416825291909152205460ff1690565b61030b61088536600461538c565b612fc7565b6103d461089836600461582d565b613037565b60006001600160e01b031982167f780e9d630000000000000000000000000000000000000000000000000000000014806108db57506108db82613597565b92915050565b6060600080546108f09061583f565b80601f016020809104026020016040519081016040528092919081815260200182805461091c9061583f565b80156109695780601f1061093e57610100808354040283529160200191610969565b820191906000526020600020905b81548152906001019060200180831161094c57829003601f168201915b5050505050905090565b6000818152600260205260408120546001600160a01b03166109fd5760405162461bcd60e51b815260206004820152602c60248201527f4552433732313a20617070726f76656420717565727920666f72206e6f6e657860448201527f697374656e7420746f6b656e00000000000000000000000000000000000000006064820152608401610302565b506000908152600c60205260409020546c0100000000000000000000000090046001600160a01b031690565b6000610a3482611c73565b9050806001600160a01b0316836001600160a01b031603610abd5760405162461bcd60e51b815260206004820152602160248201527f4552433732313a20617070726f76616c20746f2063757272656e74206f776e6560448201527f72000000000000000000000000000000000000000000000000000000000000006064820152608401610302565b336001600160a01b0382161480610ad95750610ad98133610849565b610b4b5760405162461bcd60e51b815260206004820152603d60248201527f4552433732313a20617070726f76652063616c6c6572206973206e6f7420746f60448201527f6b656e206f776e6572206f7220617070726f76656420666f7220616c6c0000006064820152608401610302565b610b558383613632565b505050565b6000808235610b6933826136b6565b610bb55760405162461bcd60e51b815260206004820152600c60248201527f4e6f7420617070726f76656400000000000000000000000000000000000000006044820152606401610302565b608084013580421115610c0a5760405162461bcd60e51b815260206004820152601360248201527f5472616e73616374696f6e20746f6f206f6c64000000000000000000000000006044820152606401610302565b6000610c1c6040870160208801615888565b6001600160801b031611610c2f57600080fd5b84356000908152600c602090815260409182902060018101549092600160801b9091046001600160801b031691610c6a918901908901615888565b6001600160801b0316816001600160801b03161015610c8857600080fd5b60018281015469ffffffffffffffffffff166000908152600b60209081526040808320815160608101835281546001600160a01b039081168252919095015490811692850192909252600160a01b90910462ffffff1690830152610d0c7f000000000000000000000000000000000000000000000000000000000000000083613734565b60018501549091506001600160a01b0382169063a34123a7906a01000000000000000000008104600290810b91600160681b9004900b610d5260408e0160208f01615888565b6040516001600160e01b031960e086901b168152600293840b60048201529190920b60248201526001600160801b03909116604482015260640160408051808303816000875af1158015610daa573d6000803e3d6000fd5b505050506040513d601f19601f82011682018060405250810190610dce91906158a5565b909850965060408901358810801590610deb575088606001358710155b610e375760405162461bcd60e51b815260206004820152601460248201527f507269636520736c69707061676520636865636b0000000000000000000000006044820152606401610302565b6001840154600090610e679030906a01000000000000000000008104600290810b91600160681b9004900b613835565b9050600080836001600160a01b031663514ea4bf846040518263ffffffff1660e01b8152600401610e9a91815260200190565b60a060405180830381865afa158015610eb7573d6000803e3d6000fd5b505050506040513d601f19601f82011682018060405250810190610edb91906158c9565b50509250925050610f09876002015483610ef59190615941565b876001600160801b0316600160801b613889565b610f13908c615958565b600488018054600090610f309084906001600160801b0316615958565b92506101000a8154816001600160801b0302191690836001600160801b03160217905550610f67876003015482610ef59190615941565b610f71908b615958565b600488018054601090610f95908490600160801b90046001600160801b0316615958565b82546001600160801b039182166101009390930a9283029190920219909116179055506002870182905560038701819055610fd660408d0160208e01615888565b610fe09087615983565b8760010160106101000a8154816001600160801b0302191690836001600160801b031602179055508b600001357f26f6a048ee9138f2c0ce266f322cb99228e8d619ae2bff30c67f8dcf9d2377b48d60200160208101906110419190615888565b604080516001600160801b039092168252602082018f905281018d90526060015b60405180910390a2505050505050505050915091565b471561108857611088334761393b565b565b6000836001600160a01b0316856001600160a01b0316106110aa57600080fd5b6040517f1698ee820000000000000000000000000000000000000000000000000000000081526001600160a01b038681166004830152858116602483015262ffffff851660448301527f00000000000000000000000000000000000000000000000000000000000000001690631698ee8290606401602060405180830381865afa15801561113c573d6000803e3d6000fd5b505050506040513d601f19601f8201168201806040525081019061116091906159ab565b90506001600160a01b0381166112a5576040517fa16712950000000000000000000000000000000000000000000000000000000081526001600160a01b038681166004830152858116602483015262ffffff851660448301527f0000000000000000000000000000000000000000000000000000000000000000169063a1671295906064016020604051808303816000875af1158015611204573d6000803e3d6000fd5b505050506040513d601f19601f8201168201806040525081019061122891906159ab565b6040517ff637731d0000000000000000000000000000000000000000000000000000000081526001600160a01b0384811660048301529192509082169063f637731d90602401600060405180830381600087803b15801561128857600080fd5b505af115801561129c573d6000803e3d6000fd5b50505050611399565b6000816001600160a01b0316633850c7bd6040518163ffffffff1660e01b815260040160e060405180830381865afa1580156112e5573d6000803e3d6000fd5b505050506040513d601f19601f8201168201806040525081019061130991906159e9565b5050505050509050806001600160a01b0316600003611397576040517ff637731d0000000000000000000000000000000000000000000000000000000081526001600160a01b03848116600483015283169063f637731d90602401600060405180830381600087803b15801561137e57600080fd5b505af1158015611392573d6000803e3d6000fd5b505050505b505b949350505050565b6000808060a0840135804211156113fa5760405162461bcd60e51b815260206004820152601360248201527f5472616e73616374696f6e20746f6f206f6c64000000000000000000000000006044820152606401610302565b84356000908152600c6020908152604080832060018082015469ffffffffffffffffffff81168652600b855283862084516060808201875282546001600160a01b039081168352929094015480831682890190815262ffffff600160a01b9092048216838901908152885161014081018a528451861681529151909416818a01529251168287015230828501526a01000000000000000000008304600290810b608080850191909152600160681b909404900b60a0830152958c013560c0820152938b013560e0850152908a013561010084015289013561012083015292906114e2906139f8565b6001870154939a509198509650915060009061151c9030906a01000000000000000000008104600290810b91600160681b9004900b613835565b9050600080836001600160a01b031663514ea4bf846040518263ffffffff1660e01b815260040161154f91815260200190565b60a060405180830381865afa15801561156c573d6000803e3d6000fd5b505050506040513d601f19601f8201168201806040525081019061159091906158c9565b505092509250506115c78660020154836115aa9190615941565b60018801546001600160801b03600160801b918290041690613889565b6004870180546000906115e49084906001600160801b0316615958565b92506101000a8154816001600160801b0302191690836001600160801b0316021790555061161b8660030154826115aa9190615941565b60048701805460109061163f908490600160801b90046001600160801b0316615958565b92506101000a8154816001600160801b0302191690836001600160801b03160217905550818660020181905550808660030181905550898660010160108282829054906101000a90046001600160801b031661169b9190615958565b82546101009290920a6001600160801b0381810219909316918316021790915560408051918d168252602082018c905281018a90528c3591507f3067048beee31b25b2f1681f88dac838c8bba36af25bfb2b7cf7473a5847e35f9060600160405180910390a2505050505050509193909250565b61171933826136b6565b61178b5760405162461bcd60e51b815260206004820152602d60248201527f4552433732313a2063616c6c6572206973206e6f7420746f6b656e206f776e6560448201527f72206f7220617070726f766564000000000000000000000000000000000000006064820152608401610302565b610b55838383613c80565b60006117a183611cd8565b82106118155760405162461bcd60e51b815260206004820152602b60248201527f455243373231456e756d657261626c653a206f776e657220696e646578206f7560448201527f74206f6620626f756e64730000000000000000000000000000000000000000006064820152608401610302565b506001600160a01b03919091166000908152600660209081526040808320938352929052205490565b610b5583838360405180602001604052806000815250612c67565b8061186433826136b6565b6118b05760405162461bcd60e51b815260206004820152600c60248201527f4e6f7420617070726f76656400000000000000000000000000000000000000006044820152606401610302565b6000828152600c602052604090206001810154600160801b90046001600160801b03161580156118eb575060048101546001600160801b0316155b801561190957506004810154600160801b90046001600160801b0316155b6119555760405162461bcd60e51b815260206004820152600b60248201527f4e6f7420636c65617265640000000000000000000000000000000000000000006044820152606401610302565b6000838152600c6020526040812081815560018101829055600281018290556003810182905560040155610b5583613ec3565b6040517f8fcbaf0c00000000000000000000000000000000000000000000000000000000815233600482015230602482015260448101869052606481018590526001608482015260ff841660a482015260c4810183905260e481018290526001600160a01b03871690638fcbaf0c90610104015b600060405180830381600087803b158015611a1657600080fd5b505af1158015611a2a573d6000803e3d6000fd5b50505050505050505050565b6040517f70a082310000000000000000000000000000000000000000000000000000000081523060048201526000907f00000000000000000000000000000000000000000000000000000000000000006001600160a01b0316906370a0823190602401602060405180830381865afa158015611ab6573d6000803e3d6000fd5b505050506040513d601f19601f82011682018060405250810190611ada9190615a7b565b905082811015611b2c5760405162461bcd60e51b815260206004820152601260248201527f496e73756666696369656e7420574554483900000000000000000000000000006044820152606401610302565b8015610b55576040517f2e1a7d4d000000000000000000000000000000000000000000000000000000008152600481018290527f00000000000000000000000000000000000000000000000000000000000000006001600160a01b031690632e1a7d4d90602401600060405180830381600087803b158015611bad57600080fd5b505af1158015611bc1573d6000803e3d6000fd5b50505050610b55828261393b565b6000611bda60085490565b8210611c4e5760405162461bcd60e51b815260206004820152602c60248201527f455243373231456e756d657261626c653a20676c6f62616c20696e646578206f60448201527f7574206f6620626f756e647300000000000000000000000000000000000000006064820152608401610302565b60088281548110611c6157611c61615a94565b90600052602060002001549050919050565b6000818152600260205260408120546001600160a01b0316806108db5760405162461bcd60e51b815260206004820152601860248201527f4552433732313a20696e76616c696420746f6b656e20494400000000000000006044820152606401610302565b60006001600160a01b038216611d565760405162461bcd60e51b815260206004820152602960248201527f4552433732313a2061646472657373207a65726f206973206e6f74206120766160448201527f6c6964206f776e657200000000000000000000000000000000000000000000006064820152608401610302565b506001600160a01b031660009081526003602052604090205490565b83421115611dc25760405162461bcd60e51b815260206004820152600e60248201527f5065726d697420657870697265640000000000000000000000000000000000006044820152606401610302565b6000611e6d60007f8b73c3c69bb8fe3d512ecc4cf759cc79239f7b179b0ffacaa9a75d522b39400f7f00000000000000000000000000000000000000000000000000000000000000007f000000000000000000000000000000000000000000000000000000000000000046604080516020810195909552840192909252606083015260808201523060a082015260c00160405160208183030381529060405280519060200120905090565b7f49ecf333e5b8c95c40fdafc95c1ad136e8914a8fb55e9dc8bb01eaa83a2df9ad8888611e9981613f73565b6040805160208101959095526001600160a01b03909316928401929092526060830152608082015260a0810187905260c00160405160208183030381529060405280519060200120604051602001611f239291907f190100000000000000000000000000000000000000000000000000000000000081526002810192909252602282015260420190565b6040516020818303038152906040528051906020012090506000611f4687611c73565b9050806001600160a01b0316886001600160a01b031603611fcf5760405162461bcd60e51b815260206004820152602760248201527f4552433732315065726d69743a20617070726f76616c20746f2063757272656e60448201527f74206f776e6572000000000000000000000000000000000000000000000000006064820152608401610302565b6001600160a01b0381163b1561212b57604080516020810186905280820185905260f887901b7fff000000000000000000000000000000000000000000000000000000000000001660608201528151604181830301815260618201928390527f1626ba7e000000000000000000000000000000000000000000000000000000009092526001600160a01b03831691631626ba7e91612071918691606501615aaa565b602060405180830381865afa15801561208e573d6000803e3d6000fd5b505050506040513d601f19601f820116820180604052508101906120b29190615ac3565b7bffffffffffffffffffffffffffffffffffffffffffffffffffffffff1916631626ba7e60e01b146121265760405162461bcd60e51b815260206004820152600c60248201527f556e617574686f72697a656400000000000000000000000000000000000000006044820152606401610302565b612245565b6040805160008082526020820180845285905260ff881692820192909252606081018690526080810185905260019060a0016020604051602081039080840390855afa15801561217f573d6000803e3d6000fd5b5050604051601f1901519150506001600160a01b0381166121e25760405162461bcd60e51b815260206004820152601160248201527f496e76616c6964207369676e61747572650000000000000000000000000000006044820152606401610302565b816001600160a01b0316816001600160a01b0316146122435760405162461bcd60e51b815260206004820152600c60248201527f556e617574686f72697a656400000000000000000000000000000000000000006044820152606401610302565b505b61224f8888613632565b5050505050505050565b6000808080610140850135804211156122b45760405162461bcd60e51b815260206004820152601360248201527f5472616e73616374696f6e20746f6f206f6c64000000000000000000000000006044820152606401610302565b60408051610140810190915260009061238090806122d560208b018b615418565b6001600160a01b031681526020018960200160208101906122f69190615418565b6001600160a01b0316815260200161231460608b0160408c01615ae0565b62ffffff16815230602082015260400161233460808b0160608c01615afb565b60020b815260200161234c60a08b0160808c01615afb565b60020b81526020018960a0013581526020018960c0013581526020018960e0013581526020018961010001358152506139f8565b9297509095509350905061242961239f61014089016101208a01615418565b600d805475ffffffffffffffffffffffffffffffffffffffffffff169060006123c783615b18565b91906101000a81548175ffffffffffffffffffffffffffffffffffffffffffff021916908375ffffffffffffffffffffffffffffffffffffffffffff16021790555075ffffffffffffffffffffffffffffffffffffffffffff16975087613fdf565b60006124543061243f60808b0160608c01615afb565b61244f60a08c0160808d01615afb565b613835565b9050600080836001600160a01b031663514ea4bf846040518263ffffffff1660e01b815260040161248791815260200190565b60a060405180830381865afa1580156124a4573d6000803e3d6000fd5b505050506040513d601f19601f820116820180604052508101906124c891906158c9565b5050925092505060006125418560405180606001604052808e60000160208101906124f39190615418565b6001600160a01b031681526020018e60200160208101906125149190615418565b6001600160a01b031681526020018e60400160208101906125359190615ae0565b62ffffff169052614185565b905060405180610140016040528060006bffffffffffffffffffffffff16815260200160006001600160a01b031681526020018269ffffffffffffffffffff1681526020018c60600160208101906125999190615afb565b60020b81526020016125b160a08e0160808f01615afb565b60020b81526020018a6001600160801b0316815260200184815260200183815260200160006001600160801b0316815260200160006001600160801b0316815250600c60008c815260200190815260200160002060008201518160000160006101000a8154816bffffffffffffffffffffffff02191690836bffffffffffffffffffffffff160217905550602082015181600001600c6101000a8154816001600160a01b0302191690836001600160a01b0316021790555060408201518160010160006101000a81548169ffffffffffffffffffff021916908369ffffffffffffffffffff160217905550606082015181600101600a6101000a81548162ffffff021916908360020b62ffffff160217905550608082015181600101600d6101000a81548162ffffff021916908360020b62ffffff16021790555060a08201518160010160106101000a8154816001600160801b0302191690836001600160801b0316021790555060c0820151816002015560e082015181600301556101008201518160040160006101000a8154816001600160801b0302191690836001600160801b031602179055506101208201518160040160106101000a8154816001600160801b0302191690836001600160801b03160217905550905050897f3067048beee31b25b2f1681f88dac838c8bba36af25bfb2b7cf7473a5847e35f8a8a8a6040516127dc939291906001600160801b039390931683526020830191909152604082015260600190565b60405180910390a25050505050509193509193565b6060600180546108f09061583f565b6000818152600c6020908152604080832081516101408101835281546bffffffffffffffffffffffff811682526001600160a01b036c010000000000000000000000009091041693810193909352600181015469ffffffffffffffffffff81169284018390526a01000000000000000000008104600290810b6060860152600160681b8204810b60808601526001600160801b03600160801b92839004811660a08701529083015460c0860152600383015460e08601526004909201548083166101008601520416610120830152829182918291829182918291829182918291829182919082036129335760405162461bcd60e51b815260206004820152601060248201527f496e76616c696420746f6b656e204944000000000000000000000000000000006044820152606401610302565b6000600b6000836040015169ffffffffffffffffffff1669ffffffffffffffffffff1681526020019081526020016000206040518060600160405290816000820160009054906101000a90046001600160a01b03166001600160a01b03166001600160a01b031681526020016001820160009054906101000a90046001600160a01b03166001600160a01b03166001600160a01b031681526020016001820160149054906101000a900462ffffff1662ffffff1662ffffff1681525050905081600001518260200151826000015183602001518460400151866060015187608001518860a001518960c001518a60e001518b61010001518c61012001519d509d509d509d509d509d509d509d509d509d509d509d50505091939597999b5091939597999b565b612a643383836142d5565b5050565b6040517fdd62ed3e000000000000000000000000000000000000000000000000000000008152336004820152306024820152600019906001600160a01b0388169063dd62ed3e90604401602060405180830381865afa158015612acf573d6000803e3d6000fd5b505050506040513d601f19601f82011682018060405250810190612af39190615a7b565b1015612b0757612b07868686868686611988565b505050505050565b60608167ffffffffffffffff811115612b2a57612b2a61561f565b604051908082528060200260200182016040528015612b5d57816020015b6060815260200190600190039081612b485790505b50905060005b82811015612c605760008030868685818110612b8157612b81615a94565b9050602002810190612b939190615b4d565b604051612ba1929190615bb9565b600060405180830381855af49150503d8060008114612bdc576040519150601f19603f3d011682016040523d82523d6000602084013e612be1565b606091505b509150915081612c2d57604481511015612bfa57600080fd5b60048101905080806020019051810190612c149190615bc9565b60405162461bcd60e51b81526004016103029190615238565b80848481518110612c4057612c40615a94565b602002602001018190525050508080612c5890615c37565b915050612b63565b5092915050565b612c7133836136b6565b612ce35760405162461bcd60e51b815260206004820152602d60248201527f4552433732313a2063616c6c6572206973206e6f7420746f6b656e206f776e6560448201527f72206f7220617070726f766564000000000000000000000000000000000000006064820152608401610302565b612cef848484846143c1565b50505050565b6040517fdd62ed3e00000000000000000000000000000000000000000000000000000000815233600482015230602482015285906001600160a01b0388169063dd62ed3e90604401602060405180830381865afa158015612d5a573d6000803e3d6000fd5b505050506040513d601f19601f82011682018060405250810190612d7e9190615a7b565b1015612b0757612b07868686868686612fc7565b6000818152600260205260409020546060906001600160a01b0316612db657600080fd5b6040517fe9dc6375000000000000000000000000000000000000000000000000000000008152306004820152602481018390527f00000000000000000000000000000000000000000000000000000000000000006001600160a01b03169063e9dc637590604401600060405180830381865afa158015612e3a573d6000803e3d6000fd5b505050506040513d6000823e601f3d908101601f191682016040526108db9190810190615bc9565b6000612e7082840184615c51565b9050612ea07f0000000000000000000000000000000000000000000000000000000000000000826000015161444a565b508415612ebb578051516020820151612ebb9190338861446d565b8315612ed957612ed98160000151602001518260200151338761446d565b5050505050565b6040517f70a082310000000000000000000000000000000000000000000000000000000081523060048201526000906001600160a01b038516906370a0823190602401602060405180830381865afa158015612f40573d6000803e3d6000fd5b505050506040513d601f19601f82011682018060405250810190612f649190615a7b565b905082811015612fb65760405162461bcd60e51b815260206004820152601260248201527f496e73756666696369656e7420746f6b656e00000000000000000000000000006044820152606401610302565b8015612cef57612cef848383614606565b6040517fd505accf000000000000000000000000000000000000000000000000000000008152336004820152306024820152604481018690526064810185905260ff8416608482015260a4810183905260c481018290526001600160a01b0387169063d505accf9060e4016119fc565b600080823561304633826136b6565b6130925760405162461bcd60e51b815260206004820152600c60248201527f4e6f7420617070726f76656400000000000000000000000000000000000000006044820152606401610302565b60006130a46060860160408701615888565b6001600160801b031611806130d1575060006130c66080860160608701615888565b6001600160801b0316115b6130da57600080fd5b6000806130ed6040870160208801615418565b6001600160a01b0316146131105761310b6040860160208701615418565b613112565b305b85356000908152600c6020908152604080832060018082015469ffffffffffffffffffff168552600b8452828520835160608101855281546001600160a01b039081168252919092015490811694820194909452600160a01b90930462ffffff1691830191909152929350906131a87f000000000000000000000000000000000000000000000000000000000000000083613734565b600484015460018501549192506001600160801b0380821692600160801b92839004821692900416156133995760018501546040517fa34123a70000000000000000000000000000000000000000000000000000000081526a01000000000000000000008204600290810b6004830152600160681b90920490910b6024820152600060448201526001600160a01b0384169063a34123a79060640160408051808303816000875af1158015613261573d6000803e3d6000fd5b505050506040513d601f19601f8201168201806040525081019061328591906158a5565b5050600185015460009081906001600160a01b0386169063514ea4bf906132ca9030906a01000000000000000000008104600290810b91600160681b9004900b613835565b6040518263ffffffff1660e01b81526004016132e891815260200190565b60a060405180830381865afa158015613305573d6000803e3d6000fd5b505050506040513d601f19601f8201168201806040525081019061332991906158c9565b505092509250506133608760020154836133439190615941565b60018901546001600160801b03600160801b918290041690613889565b61336a9085615958565b935061337f8760030154826133439190615941565b6133899084615958565b6002880192909255600387015590505b6000806001600160801b0384166133b660608e0160408f01615888565b6001600160801b0316116133d9576133d460608d0160408e01615888565b6133db565b835b836001600160801b03168d60600160208101906133f89190615888565b6001600160801b03161161341b5761341660808e0160608f01615888565b61341d565b835b60018901546040517f4f1eb3d80000000000000000000000000000000000000000000000000000000081526001600160a01b038c811660048301526a01000000000000000000008304600290810b6024840152600160681b90930490920b60448201526001600160801b03808516606483015283166084820152929450909250861690634f1eb3d89060a40160408051808303816000875af11580156134c7573d6000803e3d6000fd5b505050506040513d601f19601f820116820180604052508101906134eb9190615d10565b6001600160801b039182169c501699506135058285615983565b61350f8285615983565b6001600160801b03918216908216600160801b027fffffffffffffffffffffffffffffffff0000000000000000000000000000000016176004890155604080516001600160a01b038b1681528483166020820152918316908201528c35907f40d0efd1a53d60ecbf40971b9daf7dc90178c3aadc7aab1765632738fa8b8f0190606001611062565b60006001600160e01b031982167f80ac58cd0000000000000000000000000000000000000000000000000000000014806135fa57506001600160e01b031982167f5b5e139f00000000000000000000000000000000000000000000000000000000145b806108db57507f01ffc9a7000000000000000000000000000000000000000000000000000000006001600160e01b03198316146108db565b6000818152600c6020526040902080546bffffffffffffffffffffffff166c010000000000000000000000006001600160a01b03851690810291909117909155819061367d82611c73565b6001600160a01b03167f8c5be1e5ebec7d5bd14f71427d1e84f3dd0314c0f7b2291e5b200ac8c7c3b92560405160405180910390a45050565b6000806136c283611c73565b9050806001600160a01b0316846001600160a01b0316148061370957506001600160a01b0380821660009081526005602090815260408083209388168352929052205460ff165b806113995750836001600160a01b031661372284610973565b6001600160a01b031614949350505050565b600081602001516001600160a01b031682600001516001600160a01b03161061375c57600080fd5b815160208084015160408086015181516001600160a01b0395861681860152949092168482015262ffffff90911660608085019190915281518085038201815260808501909252815191909201207fff0000000000000000000000000000000000000000000000000000000000000060a08401529085901b6bffffffffffffffffffffffff191660a183015260b58201527fa598dd2fba360510c5a8f02f44423a4468e902df5857dbce3ca162a43a3a31ff60d582015260f50160408051601f1981840301815291905280516020909101209392505050565b6040516bffffffffffffffffffffffff19606085901b16602082015260e883811b603483015282901b6037820152600090603a016040516020818303038152906040528051906020012090505b9392505050565b60008080600019858709858702925082811083820303915050806000036138c257600084116138b757600080fd5b508290049050613882565b8084116138ce57600080fd5b6000848688096000868103871696879004966002600389028118808a02820302808a02820302808a02820302808a02820302808a02820302808a02909103029181900381900460010186841190950394909402919094039290920491909117919091029150509392505050565b604080516000808252602082019092526001600160a01b0384169083906040516139659190615d3f565b60006040518083038185875af1925050503d80600081146139a2576040519150601f19603f3d011682016040523d82523d6000602084013e6139a7565b606091505b5050905080610b555760405162461bcd60e51b815260206004820152600360248201527f53544500000000000000000000000000000000000000000000000000000000006044820152606401610302565b6000806000806000604051806060016040528087600001516001600160a01b0316815260200187602001516001600160a01b03168152602001876040015162ffffff168152509050613a6a7f000000000000000000000000000000000000000000000000000000000000000082613734565b91506000826001600160a01b0316633850c7bd6040518163ffffffff1660e01b815260040160e060405180830381865afa158015613aac573d6000803e3d6000fd5b505050506040513d601f19601f82011682018060405250810190613ad091906159e9565b50505050505090506000613ae78860800151614748565b90506000613af88960a00151614748565b9050613b0f8383838c60c001518d60e00151614a84565b9750505050816001600160a01b0316633c8a7d8d876060015188608001518960a00151896040518060400160405280888152602001336001600160a01b0316815250604051602001613b9c9190815180516001600160a01b03908116835260208083015182168185015260409283015162ffffff1692840192909252920151909116606082015260800190565b6040516020818303038152906040526040518663ffffffff1660e01b8152600401613bcb959493929190615d5b565b60408051808303816000875af1158015613be9573d6000803e3d6000fd5b505050506040513d601f19601f82011682018060405250810190613c0d91906158a5565b61010088015191955093508410801590613c2c57508561012001518310155b613c785760405162461bcd60e51b815260206004820152601460248201527f507269636520736c69707061676520636865636b0000000000000000000000006044820152606401610302565b509193509193565b826001600160a01b0316613c9382611c73565b6001600160a01b031614613d0f5760405162461bcd60e51b815260206004820152602560248201527f4552433732313a207472616e736665722066726f6d20696e636f72726563742060448201527f6f776e65720000000000000000000000000000000000000000000000000000006064820152608401610302565b6001600160a01b038216613d8a5760405162461bcd60e51b8152602060048201526024808201527f4552433732313a207472616e7366657220746f20746865207a65726f2061646460448201527f72657373000000000000000000000000000000000000000000000000000000006064820152608401610302565b613d978383836001614b48565b826001600160a01b0316613daa82611c73565b6001600160a01b031614613e265760405162461bcd60e51b815260206004820152602560248201527f4552433732313a207472616e736665722066726f6d20696e636f72726563742060448201527f6f776e65720000000000000000000000000000000000000000000000000000006064820152608401610302565b6000818152600460209081526040808320805473ffffffffffffffffffffffffffffffffffffffff199081169091556001600160a01b0387811680865260038552838620805460001901905590871680865283862080546001019055868652600290945282852080549092168417909155905184937fddf252ad1be2c89b69c2b068fc378daa952ba7f163c4a11628f55a4df523b3ef91a4505050565b6000613ece82611c73565b9050613ede816000846001614b48565b613ee782611c73565b6000838152600460209081526040808320805473ffffffffffffffffffffffffffffffffffffffff199081169091556001600160a01b0385168085526003845282852080546000190190558785526002909352818420805490911690555192935084927fddf252ad1be2c89b69c2b068fc378daa952ba7f163c4a11628f55a4df523b3ef908390a45050565b6000818152600c6020526040812080546bffffffffffffffffffffffff169082613f9c83615da9565b91906101000a8154816bffffffffffffffffffffffff02191690836bffffffffffffffffffffffff1602179055506bffffffffffffffffffffffff169050919050565b6001600160a01b0382166140355760405162461bcd60e51b815260206004820181905260248201527f4552433732313a206d696e7420746f20746865207a65726f20616464726573736044820152606401610302565b6000818152600260205260409020546001600160a01b03161561409a5760405162461bcd60e51b815260206004820152601c60248201527f4552433732313a20746f6b656e20616c7265616479206d696e746564000000006044820152606401610302565b6140a8600083836001614b48565b6000818152600260205260409020546001600160a01b03161561410d5760405162461bcd60e51b815260206004820152601c60248201527f4552433732313a20746f6b656e20616c7265616479206d696e746564000000006044820152606401610302565b6001600160a01b0382166000818152600360209081526040808320805460010190558483526002909152808220805473ffffffffffffffffffffffffffffffffffffffff19168417905551839291907fddf252ad1be2c89b69c2b068fc378daa952ba7f163c4a11628f55a4df523b3ef908290a45050565b6001600160a01b0382166000908152600a602052604081205469ffffffffffffffffffff16908190036108db57600d8054760100000000000000000000000000000000000000000000900469ffffffffffffffffffff169060166141e883615dca565b82546101009290920a69ffffffffffffffffffff8181021990931691831602179091556001600160a01b039485166000908152600a6020908152604080832080547fffffffffffffffffffffffffffffffffffffffffffff00000000000000000000169486169485179055928252600b8152908290208551815473ffffffffffffffffffffffffffffffffffffffff1916908816178155908501516001919091018054959092015195167fffffffffffffffffff000000000000000000000000000000000000000000000090941693909317600160a01b62ffffff90951694909402939093179091555090565b816001600160a01b0316836001600160a01b0316036143365760405162461bcd60e51b815260206004820152601960248201527f4552433732313a20617070726f766520746f2063616c6c6572000000000000006044820152606401610302565b6001600160a01b0383811660008181526005602090815260408083209487168084529482529182902080547fffffffffffffffffffffffffffffffffffffffffffffffffffffffffffffff001686151590811790915591519182527f17307eab39ab6107e8899845ad3d59bd9653f200f220920489ca2b5937696c31910160405180910390a3505050565b6143cc848484613c80565b6143d884848484614c7d565b612cef5760405162461bcd60e51b815260206004820152603260248201527f4552433732313a207472616e7366657220746f206e6f6e20455243373231526560448201527f63656976657220696d706c656d656e74657200000000000000000000000000006064820152608401610302565b60006144568383613734565b9050336001600160a01b038216146108db57600080fd5b7f00000000000000000000000000000000000000000000000000000000000000006001600160a01b0316846001600160a01b03161480156144ae5750804710155b156145da577f00000000000000000000000000000000000000000000000000000000000000006001600160a01b031663d0e30db0826040518263ffffffff1660e01b81526004016000604051808303818588803b15801561450e57600080fd5b505af1158015614522573d6000803e3d6000fd5b50506040517fa9059cbb0000000000000000000000000000000000000000000000000000000081526001600160a01b038681166004830152602482018690527f000000000000000000000000000000000000000000000000000000000000000016935063a9059cbb925060440190506020604051808303816000875af11580156145b0573d6000803e3d6000fd5b505050506040513d601f19601f820116820180604052508101906145d49190615de9565b50612cef565b306001600160a01b038416036145fa576145f5848383614606565b612cef565b612cef84848484614e03565b604080516001600160a01b038481166024830152604480830185905283518084039091018152606490920183526020820180517bffffffffffffffffffffffffffffffffffffffffffffffffffffffff167fa9059cbb0000000000000000000000000000000000000000000000000000000017905291516000928392908716916146909190615d3f565b6000604051808303816000865af19150503d80600081146146cd576040519150601f19603f3d011682016040523d82523d6000602084013e6146d2565b606091505b50915091508180156146fc5750805115806146fc5750808060200190518101906146fc9190615de9565b612ed95760405162461bcd60e51b815260206004820152600260248201527f53540000000000000000000000000000000000000000000000000000000000006044820152606401610302565b60008060008360020b1261475f578260020b614767565b8260020b6000035b9050620d89e88111156147a6576040517f2bc80f3a00000000000000000000000000000000000000000000000000000000815260040160405180910390fd5b6000816001166000036147bd57600160801b6147cf565b6ffffcb933bd6fad37aa2d162d1a5940015b70ffffffffffffffffffffffffffffffffff1690506002821615614803576ffff97272373d413259a46990580e213a0260801c5b6004821615614822576ffff2e50f5f656932ef12357cf3c7fdcc0260801c5b6008821615614841576fffe5caca7e10e4e61c3624eaa0941cd00260801c5b6010821615614860576fffcb9843d60f6159c9db58835c9266440260801c5b602082161561487f576fff973b41fa98c081472e6896dfb254c00260801c5b604082161561489e576fff2ea16466c96a3843ec78b326b528610260801c5b60808216156148bd576ffe5dee046a99a2a811c461f1969c30530260801c5b6101008216156148dd576ffcbe86c7900a88aedcffc83b479aa3a40260801c5b6102008216156148fd576ff987a7253ac413176f2b074cf7815e540260801c5b61040082161561491d576ff3392b0822b70005940c7a398e4b70f30260801c5b61080082161561493d576fe7159475a2c29b7443b29c7fa6e889d90260801c5b61100082161561495d576fd097f3bdfd2022b8845ad8f792aa58250260801c5b61200082161561497d576fa9f746462d870fdf8a65dc1f90e061e50260801c5b61400082161561499d576f70d869a156d2a1b890bb3df62baf32f70260801c5b6180008216156149bd576f31be135f97d08fd981231505542fcfa60260801c5b620100008216156149de576f09aa508b5b7a84e1c677de54f3e99bc90260801c5b620200008216156149fe576e5d6af8dedb81196699c329225ee6040260801c5b62040000821615614a1d576d2216e584f5fa1ea926041bedfe980260801c5b62080000821615614a3a576b048a170391f7dc42444e8fa20260801c5b60008460020b1315614a5b578060001981614a5757614a57615e06565b0490505b640100000000810615614a6f576001614a72565b60005b60ff16602082901c0192505050919050565b6000836001600160a01b0316856001600160a01b03161115614aa4579293925b846001600160a01b0316866001600160a01b031611614acf57614ac8858585614f4d565b9050614b3f565b836001600160a01b0316866001600160a01b03161015614b31576000614af6878686614f4d565b90506000614b05878986614fb9565b9050806001600160801b0316826001600160801b031610614b265780614b28565b815b92505050614b3f565b614b3c858584614fb9565b90505b95945050505050565b6001811115614bbf5760405162461bcd60e51b815260206004820152603560248201527f455243373231456e756d657261626c653a20636f6e736563757469766520747260448201527f616e7366657273206e6f7420737570706f7274656400000000000000000000006064820152608401610302565b816001600160a01b038516614c1b57614c1681600880546000838152600960205260408120829055600182018355919091527ff3f7a9fe364faab93b216da50a3214154f22a0a2b415b23a84c8169e8b636ee30155565b614c3e565b836001600160a01b0316856001600160a01b031614614c3e57614c3e8582614fff565b6001600160a01b038416614c5a57614c558161509c565b612ed9565b846001600160a01b0316846001600160a01b031614612ed957612ed9848261514b565b60006001600160a01b0384163b15614dfb576040517f150b7a020000000000000000000000000000000000000000000000000000000081526001600160a01b0385169063150b7a0290614cda903390899088908890600401615e1c565b6020604051808303816000875af1925050508015614d15575060408051601f3d908101601f19168201909252614d1291810190615ac3565b60015b614dc8573d808015614d43576040519150601f19603f3d011682016040523d82523d6000602084013e614d48565b606091505b508051600003614dc05760405162461bcd60e51b815260206004820152603260248201527f4552433732313a207472616e7366657220746f206e6f6e20455243373231526560448201527f63656976657220696d706c656d656e74657200000000000000000000000000006064820152608401610302565b805181602001fd5b6001600160e01b0319167f150b7a0200000000000000000000000000000000000000000000000000000000149050611399565b506001611399565b604080516001600160a01b0385811660248301528481166044830152606480830185905283518084039091018152608490920183526020820180517bffffffffffffffffffffffffffffffffffffffffffffffffffffffff167f23b872dd000000000000000000000000000000000000000000000000000000001790529151600092839290881691614e959190615d3f565b6000604051808303816000865af19150503d8060008114614ed2576040519150601f19603f3d011682016040523d82523d6000602084013e614ed7565b606091505b5091509150818015614f01575080511580614f01575080806020019051810190614f019190615de9565b612b075760405162461bcd60e51b815260206004820152600360248201527f53544600000000000000000000000000000000000000000000000000000000006044820152606401610302565b6000826001600160a01b0316846001600160a01b03161115614f6d579192915b6000614f99856001600160a01b0316856001600160a01b03166c01000000000000000000000000613889565b9050614b3f614fb484838888036001600160a01b0316613889565b61518f565b6000826001600160a01b0316846001600160a01b03161115614fd9579192915b611399614fb4836c010000000000000000000000008787036001600160a01b0316613889565b6000600161500c84611cd8565b6150169190615941565b600083815260076020526040902054909150808214615069576001600160a01b03841660009081526006602090815260408083208584528252808320548484528184208190558352600790915290208190555b5060009182526007602090815260408084208490556001600160a01b039094168352600681528383209183525290812055565b6008546000906150ae90600190615941565b600083815260096020526040812054600880549394509092849081106150d6576150d6615a94565b9060005260206000200154905080600883815481106150f7576150f7615a94565b600091825260208083209091019290925582815260099091526040808220849055858252812055600880548061512f5761512f615e4e565b6001900381819060005260206000200160009055905550505050565b600061515683611cd8565b6001600160a01b039093166000908152600660209081526040808320868452825280832085905593825260079052919091209190915550565b806001600160801b03811681146151a557600080fd5b919050565b6001600160e01b0319811681146151c057600080fd5b50565b6000602082840312156151d557600080fd5b8135613882816151aa565b60005b838110156151fb5781810151838201526020016151e3565b83811115612cef5750506000910152565b600081518084526152248160208601602086016151e0565b601f01601f19169290920160200192915050565b602081526000613882602083018461520c565b60006020828403121561525d57600080fd5b5035919050565b6001600160a01b03811681146151c057600080fd5b6000806040838503121561528c57600080fd5b823561529781615264565b946020939093013593505050565b600060a082840312156152b757600080fd5b50919050565b803562ffffff811681146151a557600080fd5b600080600080608085870312156152e657600080fd5b84356152f181615264565b9350602085013561530181615264565b925061530f604086016152bd565b9150606085013561531f81615264565b939692955090935050565b600060c082840312156152b757600080fd5b60008060006060848603121561535157600080fd5b833561535c81615264565b9250602084013561536c81615264565b929592945050506040919091013590565b60ff811681146151c057600080fd5b60008060008060008060c087890312156153a557600080fd5b86356153b081615264565b9550602087013594506040870135935060608701356153ce8161537d565b9598949750929560808101359460a0909101359350915050565b600080604083850312156153fb57600080fd5b82359150602083013561540d81615264565b809150509250929050565b60006020828403121561542a57600080fd5b813561388281615264565b600061016082840312156152b757600080fd5b6bffffffffffffffffffffffff8d1681526001600160a01b038c811660208301528b811660408301528a16606082015262ffffff89166080820152600288810b60a083015287900b60c082015261018081016001600160801b03871660e083015285610100830152846101208301526154cd6101408301856001600160801b03169052565b6001600160801b0383166101608301529d9c50505050505050505050505050565b80151581146151c057600080fd5b6000806040838503121561550f57600080fd5b823561551a81615264565b9150602083013561540d816154ee565b6000806020838503121561553d57600080fd5b823567ffffffffffffffff8082111561555557600080fd5b818501915085601f83011261556957600080fd5b81358181111561557857600080fd5b8660208260051b850101111561558d57600080fd5b60209290920196919550909350505050565b6000602080830181845280855180835260408601915060408160051b870101925083870160005b82811015615612577fffffffffffffffffffffffffffffffffffffffffffffffffffffffffffffffc088860301845261560085835161520c565b945092850192908501906001016155c6565b5092979650505050505050565b634e487b7160e01b600052604160045260246000fd5b604051601f8201601f1916810167ffffffffffffffff8111828210171561565e5761565e61561f565b604052919050565b600067ffffffffffffffff8211156156805761568061561f565b50601f01601f191660200190565b600080600080608085870312156156a457600080fd5b84356156af81615264565b935060208501356156bf81615264565b925060408501359150606085013567ffffffffffffffff8111156156e257600080fd5b8501601f810187136156f357600080fd5b803561570661570182615666565b615635565b81815288602083850101111561571b57600080fd5b8160208401602083013760006020838301015280935050505092959194509250565b6000806000806060858703121561575357600080fd5b8435935060208501359250604085013567ffffffffffffffff8082111561577957600080fd5b818701915087601f83011261578d57600080fd5b81358181111561579c57600080fd5b8860208285010111156157ae57600080fd5b95989497505060200194505050565b6000806000606084860312156157d257600080fd5b83356157dd81615264565b92506020840135915060408401356157f481615264565b809150509250925092565b6000806040838503121561581257600080fd5b823561581d81615264565b9150602083013561540d81615264565b6000608082840312156152b757600080fd5b600181811c9082168061585357607f821691505b6020821081036152b757634e487b7160e01b600052602260045260246000fd5b6001600160801b03811681146151c057600080fd5b60006020828403121561589a57600080fd5b813561388281615873565b600080604083850312156158b857600080fd5b505080516020909101519092909150565b600080600080600060a086880312156158e157600080fd5b85516158ec81615873565b809550506020860151935060408601519250606086015161590c81615873565b608087015190925061591d81615873565b809150509295509295909350565b634e487b7160e01b600052601160045260246000fd5b6000828210156159535761595361592b565b500390565b60006001600160801b0380831681851680830382111561597a5761597a61592b565b01949350505050565b60006001600160801b03838116908316818110156159a3576159a361592b565b039392505050565b6000602082840312156159bd57600080fd5b815161388281615264565b8060020b81146151c057600080fd5b805161ffff811681146151a557600080fd5b600080600080600080600060e0888a031215615a0457600080fd5b8751615a0f81615264565b6020890151909750615a20816159c8565b9550615a2e604089016159d7565b9450615a3c606089016159d7565b9350615a4a608089016159d7565b925060a0880151615a5a8161537d565b60c0890151909250615a6b816154ee565b8091505092959891949750929550565b600060208284031215615a8d57600080fd5b5051919050565b634e487b7160e01b600052603260045260246000fd5b828152604060208201526000611399604083018461520c565b600060208284031215615ad557600080fd5b8151613882816151aa565b600060208284031215615af257600080fd5b613882826152bd565b600060208284031215615b0d57600080fd5b8135613882816159c8565b600075ffffffffffffffffffffffffffffffffffffffffffff808316818103615b4357615b4361592b565b6001019392505050565b60008083357fffffffffffffffffffffffffffffffffffffffffffffffffffffffffffffffe1843603018112615b8257600080fd5b83018035915067ffffffffffffffff821115615b9d57600080fd5b602001915036819003821315615bb257600080fd5b9250929050565b8183823760009101908152919050565b600060208284031215615bdb57600080fd5b815167ffffffffffffffff811115615bf257600080fd5b8201601f81018413615c0357600080fd5b8051615c1161570182615666565b818152856020838501011115615c2657600080fd5b614b3f8260208301602086016151e0565b60006000198203615c4a57615c4a61592b565b5060010190565b60008183036080811215615c6457600080fd5b6040516040810167ffffffffffffffff8282108183111715615c8857615c8861561f565b816040526060841215615c9a57600080fd5b60a0830193508184108185111715615cb457615cb461561f565b508260405284359250615cc683615264565b918252602084013591615cd883615264565b826060830152615cea604086016152bd565b6080830152815260608401359150615d0182615264565b60208101919091529392505050565b60008060408385031215615d2357600080fd5b8251615d2e81615873565b602084015190925061540d81615873565b60008251615d518184602087016151e0565b9190910192915050565b6001600160a01b03861681528460020b60208201528360020b60408201526001600160801b038316606082015260a060808201526000615d9e60a083018461520c565b979650505050505050565b60006bffffffffffffffffffffffff808316818103615b4357615b4361592b565b600069ffffffffffffffffffff808316818103615b4357615b4361592b565b600060208284031215615dfb57600080fd5b8151613882816154ee565b634e487b7160e01b600052601260045260246000fd5b60006001600160a01b03808716835280861660208401525083604083015260806060830152614b3c608083018461520c565b634e487b7160e01b600052603160045260246000fdfea164736f6c634300080f000a"
}