{
  "address": "0x61b44eAD719a41dCd21aC1f7ECf08a1b5fC0463d",
  "abi": [
    {
      "inputs": [
        {
          "internalType": "address",
          "name": "_factory",
          "type": "address"
        },
        {
          "internalType": "address",
          "name": "_WETH9",
          "type": "address"
        },
        {
          "internalType": "address",
          "name": "_nonfungiblePositionManager",
          "type": "address"
        }
      ],
      "stateMutability": "nonpayable",
      "type": "constructor"
    },
    {
      "inputs": [],
      "name": "WETH9",
      "outputs": [
        {
          "internalType": "address",
          "name": "",
          "type": "address"
        }
      ],
      "stateMutability": "view",
      "type": "function"
    },
    {
      "inputs": [
        {
          "internalType": "address",
          "name": "token0",
          "type": "address"
        },
        {
          "internalType": "address",
          "name": "token1",
          "type": "address"
        },
        {
          "internalType": "uint24",
          "name": "fee",
          "type": "uint24"
        },
        {
          "internalType": "uint160",
          "name": "sqrtPriceX96",
          "type": "uint160"
        }
      ],
      "name": "createAndInitializePoolIfNecessary",
      "outputs": [
        {
          "internalType": "address",
          "name": "pool",
          "type": "address"
        }
      ],
      "stateMutability": "payable",
      "type": "function"
    },
    {
      "inputs": [],
      "name": "factory",
      "outputs": [
        {
          "internalType": "address",
          "name": "",
          "type": "address"
        }
      ],
      "stateMutability": "view",
      "type": "function"
    },
    {
      "inputs": [
        {
          "components": [
            {
              "internalType": "address",
              "name": "pair",
              "type": "address"
            },
            {
              "internalType": "uint256",
              "name": "liquidityToMigrate",
              "type": "uint256"
            },
            {
              "internalType": "uint8",
              "name": "percentageToMigrate",
              "type": "uint8"
            },
            {
              "internalType": "address",
              "name": "token0",
              "type": "address"
            },
            {
              "internalType": "address",
              "name": "token1",
              "type": "address"
            },
            {
              "internalType": "uint24",
              "name": "fee",
              "type": "uint24"
            },
            {
              "internalType": "int24",
              "name": "tickLower",
              "type": "int24"
            },
            {
              "internalType": "int24",
              "name": "tickUpper",
              "type": "int24"
            },
            {
              "internalType": "uint256",
              "name": "amount0Min",
              "type": "uint256"
            },
            {
              "internalType": "uint256",
              "name": "amount1Min",
              "type": "uint256"
            },
            {
              "internalType": "address",
              "name": "recipient",
              "type": "address"
            },
            {
              "internalType": "uint256",
              "name": "deadline",
              "type": "uint256"
            },
            {
              "internalType": "bool",
              "name": "refundAsETH",
              "type": "bool"
            }
          ],
          "internalType": "struct IV3Migrator.MigrateParams",
          "name": "params",
          "type": "tuple"
        }
      ],
      "name": "migrate",
      "outputs": [],
      "stateMutability": "nonpayable",
      "type": "function"
    },
    {
      "inputs": [
        {
          "internalType": "bytes[]",
          "name": "data",
          "type": "bytes[]"
        }
      ],
      "name": "multicall",
      "outputs": [
        {
          "internalType": "bytes[]",
          "name": "results",
          "type": "bytes[]"
        }
      ],
      "stateMutability": "payable",
      "type": "function"
    },
    {
      "inputs": [],
      "name": "nonfungiblePositionManager",
      "outputs": [
        {
          "internalType": "address",
          "name": "",
          "type": "address"
        }
      ],
      "stateMutability": "view",
      "type": "function"
    },
    {
      "inputs": [
        {
          "internalType": "address",
          "name": "token",
          "type": "address"
        },
        {
          "internalType": "uint256",
          "name": "value",
          "type": "uint256"
        },
        {
          "internalType": "uint256",
          "name": "deadline",
          "type": "uint256"
        },
        {
          "internalType": "uint8",
          "name": "v",
          "type": "uint8"
        },
        {
          "internalType": "bytes32",
          "name": "r",
          "type": "bytes32"
        },
        {
          "internalType": "bytes32",
          "name": "s",
          "type": "bytes32"
        }
      ],
      "name": "selfPermit",
      "outputs": [],
      "stateMutability": "payable",
      "type": "function"
    },
    {
      "inputs": [
        {
          "internalType": "address",
          "name": "token",
          "type": "address"
        },
        {
          "internalType": "uint256",
          "name": "nonce",
          "type": "uint256"
        },
        {
          "internalType": "uint256",
          "name": "expiry",
          "type": "uint256"
        },
        {
          "internalType": "uint8",
          "name": "v",
          "type": "uint8"
        },
        {
          "internalType": "bytes32",
          "name": "r",
          "type": "bytes32"
        },
        {
          "internalType": "bytes32",
          "name": "s",
          "type": "bytes32"
        }
      ],
      "name": "selfPermitAllowed",
      "outputs": [],
      "stateMutability": "payable",
      "type": "function"
    },
    {
      "inputs": [
        {
          "internalType": "address",
          "name": "token",
          "type": "address"
        },
        {
          "internalType": "uint256",
          "name": "nonce",
          "type": "uint256"
        },
        {
          "internalType": "uint256",
          "name": "expiry",
          "type": "uint256"
        },
        {
          "internalType": "uint8",
          "name": "v",
          "type": "uint8"
        },
        {
          "internalType": "bytes32",
          "name": "r",
          "type": "bytes32"
        },
        {
          "internalType": "bytes32",
          "name": "s",
          "type": "bytes32"
        }
      ],
      "name": "selfPermitAllowedIfNecessary",
      "outputs": [],
      "stateMutability": "payable",
      "type": "function"
    },
    {
      "inputs": [
        {
          "internalType": "address",
          "name": "token",
          "type": "address"
        },
        {
          "internalType": "uint256",
          "name": "value",
          "type": "uint256"
        },
        {
          "internalType": "uint256",
          "name": "deadline",
          "type": "uint256"
        },
        {
          "internalType": "uint8",
          "name": "v",
          "type": "uint8"
        },
        {
          "internalType": "bytes32",
          "name": "r",
          "type": "bytes32"
        },
        {
          "internalType": "bytes32",
          "name": "s",
          "type": "bytes32"
        }
      ],
      "name": "selfPermitIfNecessary",
      "outputs": [],
      "stateMutability": "payable",
      "type": "function"
    },
    {
      "stateMutability": "payable",
      "type": "receive"
    }
  ],
  "transactionHash": "0xb522f5135d497f99c5a0b75607650704cba5ed07d301bd51661de868cd26b481",
  "args": [
    "0xFeE7Cc22453Da768Ea1c9784a09c00dCcaE83dE8",
    "0x471EcE3750Da237f93B8E339c536989b8978a438",
    "0x33fA4A3d749f9968763379385B891AeC48135a6F"
  ],
  "numDeployments": 1,
  "solcInputHash": "a2f41cb9f1200104cbbde83b37292b27",
  "bytecode": "0x60e06040523480156200001157600080fd5b5060405162001fee38038062001fee83398101604081905262000034916200006f565b6001600160a01b0392831660805290821660a0521660c052620000b9565b80516001600160a01b03811681146200006a57600080fd5b919050565b6000806000606084860312156200008557600080fd5b620000908462000052565b9250620000a06020850162000052565b9150620000b06040850162000052565b90509250925092565b60805160a05160c051611eb9620001356000396000818161022e01528181610ce401528181610d1e01528181610d480152610f1601526000818160d2015281816101c701528181610f7a01528181610ff6015281816110f3015261116f0152600081816102750152818161035c015261043c0152611eb96000f3fe6080604052600436106100b55760003560e01c8063b44a272211610069578063c45a01551161004e578063c45a015514610263578063d44f2bf214610297578063f3995c67146102b757600080fd5b8063b44a27221461021c578063c2e3140a1461025057600080fd5b80634aa4a4fc1161009a5780634aa4a4fc146101b5578063a4a78f0c146101e9578063ac9650d8146101fc57600080fd5b806313ead562146101655780634659a494146101a257600080fd5b36610160573373ffffffffffffffffffffffffffffffffffffffff7f0000000000000000000000000000000000000000000000000000000000000000161461015e576040517f08c379a000000000000000000000000000000000000000000000000000000000815260206004820152600960248201527f4e6f74205745544839000000000000000000000000000000000000000000000060448201526064015b60405180910390fd5b005b600080fd5b610178610173366004611689565b6102ca565b60405173ffffffffffffffffffffffffffffffffffffffff90911681526020015b60405180910390f35b61015e6101b03660046116f2565b610656565b3480156101c157600080fd5b506101787f000000000000000000000000000000000000000000000000000000000000000081565b61015e6101f73660046116f2565b610711565b61020f61020a36600461174e565b6107e3565b604051610199919061183d565b34801561022857600080fd5b506101787f000000000000000000000000000000000000000000000000000000000000000081565b61015e61025e3660046116f2565b610955565b34801561026f57600080fd5b506101787f000000000000000000000000000000000000000000000000000000000000000081565b3480156102a357600080fd5b5061015e6102b23660046118bd565b6109ff565b61015e6102c53660046116f2565b61120d565b60008373ffffffffffffffffffffffffffffffffffffffff168573ffffffffffffffffffffffffffffffffffffffff161061030457600080fd5b6040517f1698ee8200000000000000000000000000000000000000000000000000000000815273ffffffffffffffffffffffffffffffffffffffff8681166004830152858116602483015262ffffff851660448301527f00000000000000000000000000000000000000000000000000000000000000001690631698ee8290606401602060405180830381865afa1580156103a3573d6000803e3d6000fd5b505050506040513d601f19601f820116820180604052508101906103c791906118d6565b905073ffffffffffffffffffffffffffffffffffffffff8116610533576040517fa167129500000000000000000000000000000000000000000000000000000000815273ffffffffffffffffffffffffffffffffffffffff8681166004830152858116602483015262ffffff851660448301527f0000000000000000000000000000000000000000000000000000000000000000169063a1671295906064016020604051808303816000875af1158015610485573d6000803e3d6000fd5b505050506040513d601f19601f820116820180604052508101906104a991906118d6565b6040517ff637731d00000000000000000000000000000000000000000000000000000000815273ffffffffffffffffffffffffffffffffffffffff84811660048301529192509082169063f637731d90602401600060405180830381600087803b15801561051657600080fd5b505af115801561052a573d6000803e3d6000fd5b5050505061064e565b60008173ffffffffffffffffffffffffffffffffffffffff16633850c7bd6040518163ffffffff1660e01b815260040160e060405180830381865afa158015610580573d6000803e3d6000fd5b505050506040513d601f19601f820116820180604052508101906105a49190611929565b50505050505090508073ffffffffffffffffffffffffffffffffffffffff1660000361064c576040517ff637731d00000000000000000000000000000000000000000000000000000000815273ffffffffffffffffffffffffffffffffffffffff848116600483015283169063f637731d90602401600060405180830381600087803b15801561063357600080fd5b505af1158015610647573d6000803e3d6000fd5b505050505b505b949350505050565b6040517f8fcbaf0c00000000000000000000000000000000000000000000000000000000815233600482015230602482015260448101869052606481018590526001608482015260ff841660a482015260c4810183905260e4810182905273ffffffffffffffffffffffffffffffffffffffff871690638fcbaf0c90610104015b600060405180830381600087803b1580156106f157600080fd5b505af1158015610705573d6000803e3d6000fd5b50505050505050505050565b6040517fdd62ed3e0000000000000000000000000000000000000000000000000000000081523360048201523060248201527fffffffffffffffffffffffffffffffffffffffffffffffffffffffffffffffff9073ffffffffffffffffffffffffffffffffffffffff88169063dd62ed3e90604401602060405180830381865afa1580156107a3573d6000803e3d6000fd5b505050506040513d601f19601f820116820180604052508101906107c791906119bb565b10156107db576107db868686868686610656565b505050505050565b60608167ffffffffffffffff8111156107fe576107fe6119d4565b60405190808252806020026020018201604052801561083157816020015b606081526020019060019003908161081c5790505b50905060005b8281101561094e576000803086868581811061085557610855611a03565b90506020028101906108679190611a32565b604051610875929190611a9e565b600060405180830381855af49150503d80600081146108b0576040519150601f19603f3d011682016040523d82523d6000602084013e6108b5565b606091505b50915091508161091b576044815110156108ce57600080fd5b600481019050808060200190518101906108e89190611aae565b6040517f08c379a00000000000000000000000000000000000000000000000000000000081526004016101559190611b79565b8084848151811061092e5761092e611a03565b60200260200101819052505050808061094690611bbb565b915050610837565b5092915050565b6040517fdd62ed3e000000000000000000000000000000000000000000000000000000008152336004820152306024820152859073ffffffffffffffffffffffffffffffffffffffff88169063dd62ed3e90604401602060405180830381865afa1580156109c7573d6000803e3d6000fd5b505050506040513d601f19601f820116820180604052508101906109eb91906119bb565b10156107db576107db86868686868661120d565b6000610a116060830160408401611bf3565b60ff1611610a7b576040517f08c379a000000000000000000000000000000000000000000000000000000000815260206004820152601460248201527f50657263656e7461676520746f6f20736d616c6c0000000000000000000000006044820152606401610155565b6064610a8d6060830160408401611bf3565b60ff161115610af8576040517f08c379a000000000000000000000000000000000000000000000000000000000815260206004820152601460248201527f50657263656e7461676520746f6f206c617267650000000000000000000000006044820152606401610155565b610b056020820182611c10565b73ffffffffffffffffffffffffffffffffffffffff166323b872dd33610b2e6020850185611c10565b6040517fffffffff0000000000000000000000000000000000000000000000000000000060e085901b16815273ffffffffffffffffffffffffffffffffffffffff928316600482015291166024820152602084013560448201526064016020604051808303816000875af1158015610baa573d6000803e3d6000fd5b505050506040513d601f19601f82011682018060405250810190610bce9190611c2d565b50600080610bdf6020840184611c10565b6040517f89afcb4400000000000000000000000000000000000000000000000000000000815230600482015273ffffffffffffffffffffffffffffffffffffffff91909116906389afcb449060240160408051808303816000875af1158015610c4c573d6000803e3d6000fd5b505050506040513d601f19601f82011682018060405250810190610c709190611c4a565b909250905060006064610c896060860160408701611bf3565b610c969060ff1685611c6e565b610ca09190611cab565b905060006064610cb66060870160408801611bf3565b610cc39060ff1685611c6e565b610ccd9190611cab565b9050610d09610ce26080870160608801611c10565b7f00000000000000000000000000000000000000000000000000000000000000008461128a565b610d43610d1c60a0870160808801611c10565b7f00000000000000000000000000000000000000000000000000000000000000008361128a565b6000807f000000000000000000000000000000000000000000000000000000000000000073ffffffffffffffffffffffffffffffffffffffff1663883164566040518061016001604052808a6060016020810190610da19190611c10565b73ffffffffffffffffffffffffffffffffffffffff168152602001610dcc60a08c0160808d01611c10565b73ffffffffffffffffffffffffffffffffffffffff168152602001610df760c08c0160a08d01611ce6565b62ffffff168152602001610e1160e08c0160c08d01611d01565b60020b8152602001610e2a6101008c0160e08d01611d01565b60020b815260208101889052604081018790526101008b013560608201526101208b0135608082015260a001610e686101608c016101408d01611c10565b73ffffffffffffffffffffffffffffffffffffffff1681526020018a61016001358152506040518263ffffffff1660e01b8152600401610ea89190611d1e565b6080604051808303816000875af1158015610ec7573d6000803e3d6000fd5b505050506040513d601f19601f82011682018060405250810190610eeb9190611e09565b935093505050858210156110925783821015610f3c57610f3c610f146080890160608a01611c10565b7f0000000000000000000000000000000000000000000000000000000000000000600061128a565b6000610f488388611e5c565b9050610f5c6101a089016101808a01611e73565b8015610fc2575073ffffffffffffffffffffffffffffffffffffffff7f000000000000000000000000000000000000000000000000000000000000000016610faa60808a0160608b01611c10565b73ffffffffffffffffffffffffffffffffffffffff16145b15611076576040517f2e1a7d4d000000000000000000000000000000000000000000000000000000008152600481018290527f000000000000000000000000000000000000000000000000000000000000000073ffffffffffffffffffffffffffffffffffffffff1690632e1a7d4d90602401600060405180830381600087803b15801561104f57600080fd5b505af1158015611063573d6000803e3d6000fd5b5050505061107133826113fa565b611090565b61109061108960808a0160608b01611c10565b33836114e3565b505b8481101561120457828110156110b5576110b5610f1460a0890160808a01611c10565b60006110c18287611e5c565b90506110d56101a089016101808a01611e73565b801561113b575073ffffffffffffffffffffffffffffffffffffffff7f00000000000000000000000000000000000000000000000000000000000000001661112360a08a0160808b01611c10565b73ffffffffffffffffffffffffffffffffffffffff16145b156111ef576040517f2e1a7d4d000000000000000000000000000000000000000000000000000000008152600481018290527f000000000000000000000000000000000000000000000000000000000000000073ffffffffffffffffffffffffffffffffffffffff1690632e1a7d4d90602401600060405180830381600087803b1580156111c857600080fd5b505af11580156111dc573d6000803e3d6000fd5b505050506111ea33826113fa565b611202565b61120261108960a08a0160808b01611c10565b505b50505050505050565b6040517fd505accf000000000000000000000000000000000000000000000000000000008152336004820152306024820152604481018690526064810185905260ff8416608482015260a4810183905260c4810182905273ffffffffffffffffffffffffffffffffffffffff87169063d505accf9060e4016106d7565b6040805173ffffffffffffffffffffffffffffffffffffffff8481166024830152604480830185905283518084039091018152606490920183526020820180517bffffffffffffffffffffffffffffffffffffffffffffffffffffffff167f095ea7b30000000000000000000000000000000000000000000000000000000017905291516000928392908716916113219190611e90565b6000604051808303816000865af19150503d806000811461135e576040519150601f19603f3d011682016040523d82523d6000602084013e611363565b606091505b509150915081801561138d57508051158061138d57508080602001905181019061138d9190611c2d565b6113f3576040517f08c379a000000000000000000000000000000000000000000000000000000000815260206004820152600260248201527f53410000000000000000000000000000000000000000000000000000000000006044820152606401610155565b5050505050565b6040805160008082526020820190925273ffffffffffffffffffffffffffffffffffffffff84169083906040516114319190611e90565b60006040518083038185875af1925050503d806000811461146e576040519150601f19603f3d011682016040523d82523d6000602084013e611473565b606091505b50509050806114de576040517f08c379a000000000000000000000000000000000000000000000000000000000815260206004820152600360248201527f53544500000000000000000000000000000000000000000000000000000000006044820152606401610155565b505050565b6040805173ffffffffffffffffffffffffffffffffffffffff8481166024830152604480830185905283518084039091018152606490920183526020820180517bffffffffffffffffffffffffffffffffffffffffffffffffffffffff167fa9059cbb00000000000000000000000000000000000000000000000000000000179052915160009283929087169161157a9190611e90565b6000604051808303816000865af19150503d80600081146115b7576040519150601f19603f3d011682016040523d82523d6000602084013e6115bc565b606091505b50915091508180156115e65750805115806115e65750808060200190518101906115e69190611c2d565b6113f3576040517f08c379a000000000000000000000000000000000000000000000000000000000815260206004820152600260248201527f53540000000000000000000000000000000000000000000000000000000000006044820152606401610155565b73ffffffffffffffffffffffffffffffffffffffff8116811461166e57600080fd5b50565b803562ffffff8116811461168457600080fd5b919050565b6000806000806080858703121561169f57600080fd5b84356116aa8161164c565b935060208501356116ba8161164c565b92506116c860408601611671565b915060608501356116d88161164c565b939692955090935050565b60ff8116811461166e57600080fd5b60008060008060008060c0878903121561170b57600080fd5b86356117168161164c565b955060208701359450604087013593506060870135611734816116e3565b9598949750929560808101359460a0909101359350915050565b6000806020838503121561176157600080fd5b823567ffffffffffffffff8082111561177957600080fd5b818501915085601f83011261178d57600080fd5b81358181111561179c57600080fd5b8660208260051b85010111156117b157600080fd5b60209290920196919550909350505050565b60005b838110156117de5781810151838201526020016117c6565b838111156117ed576000848401525b50505050565b6000815180845261180b8160208601602086016117c3565b601f017fffffffffffffffffffffffffffffffffffffffffffffffffffffffffffffffe0169290920160200192915050565b6000602080830181845280855180835260408601915060408160051b870101925083870160005b828110156118b0577fffffffffffffffffffffffffffffffffffffffffffffffffffffffffffffffc088860301845261189e8583516117f3565b94509285019290850190600101611864565b5092979650505050505050565b60006101a082840312156118d057600080fd5b50919050565b6000602082840312156118e857600080fd5b81516118f38161164c565b9392505050565b8060020b811461166e57600080fd5b805161ffff8116811461168457600080fd5b801515811461166e57600080fd5b600080600080600080600060e0888a03121561194457600080fd5b875161194f8161164c565b6020890151909750611960816118fa565b955061196e60408901611909565b945061197c60608901611909565b935061198a60808901611909565b925060a088015161199a816116e3565b60c08901519092506119ab8161191b565b8091505092959891949750929550565b6000602082840312156119cd57600080fd5b5051919050565b7f4e487b7100000000000000000000000000000000000000000000000000000000600052604160045260246000fd5b7f4e487b7100000000000000000000000000000000000000000000000000000000600052603260045260246000fd5b60008083357fffffffffffffffffffffffffffffffffffffffffffffffffffffffffffffffe1843603018112611a6757600080fd5b83018035915067ffffffffffffffff821115611a8257600080fd5b602001915036819003821315611a9757600080fd5b9250929050565b8183823760009101908152919050565b600060208284031215611ac057600080fd5b815167ffffffffffffffff80821115611ad857600080fd5b818401915084601f830112611aec57600080fd5b815181811115611afe57611afe6119d4565b604051601f82017fffffffffffffffffffffffffffffffffffffffffffffffffffffffffffffffe0908116603f01168101908382118183101715611b4457611b446119d4565b81604052828152876020848701011115611b5d57600080fd5b611b6e8360208301602088016117c3565b979650505050505050565b6020815260006118f360208301846117f3565b7f4e487b7100000000000000000000000000000000000000000000000000000000600052601160045260246000fd5b60007fffffffffffffffffffffffffffffffffffffffffffffffffffffffffffffffff8203611bec57611bec611b8c565b5060010190565b600060208284031215611c0557600080fd5b81356118f3816116e3565b600060208284031215611c2257600080fd5b81356118f38161164c565b600060208284031215611c3f57600080fd5b81516118f38161191b565b60008060408385031215611c5d57600080fd5b505080516020909101519092909150565b6000817fffffffffffffffffffffffffffffffffffffffffffffffffffffffffffffffff0483118215151615611ca657611ca6611b8c565b500290565b600082611ce1577f4e487b7100000000000000000000000000000000000000000000000000000000600052601260045260246000fd5b500490565b600060208284031215611cf857600080fd5b6118f382611671565b600060208284031215611d1357600080fd5b81356118f3816118fa565b815173ffffffffffffffffffffffffffffffffffffffff16815261016081016020830151611d64602084018273ffffffffffffffffffffffffffffffffffffffff169052565b506040830151611d7b604084018262ffffff169052565b506060830151611d90606084018260020b9052565b506080830151611da5608084018260020b9052565b5060a083015160a083015260c083015160c083015260e083015160e083015261010080840151818401525061012080840151611df88285018273ffffffffffffffffffffffffffffffffffffffff169052565b505061014092830151919092015290565b60008060008060808587031215611e1f57600080fd5b8451935060208501516fffffffffffffffffffffffffffffffff81168114611e4657600080fd5b6040860151606090960151949790965092505050565b600082821015611e6e57611e6e611b8c565b500390565b600060208284031215611e8557600080fd5b81356118f38161191b565b60008251611ea28184602087016117c3565b919091019291505056fea164736f6c634300080f000a",
  "devdoc": {
    "kind": "dev",
    "methods": {
      "createAndInitializePoolIfNecessary(address,address,uint24,uint160)": {
        "details": "This method can be bundled with others via IMulticall for the first action (e.g. mint) performed against a pool",
        "params": {
          "fee": "The fee amount of the v3 pool for the specified token pair",
          "sqrtPriceX96": "The initial square root price of the pool as a Q64.96 value",
          "token0": "The contract address of token0 of the pool",
          "token1": "The contract address of token1 of the pool"
        },
        "returns": {
          "pool": "Returns the pool address based on the pair of tokens and fee, will return the newly created pool address if necessary"
        }
      },
      "migrate((address,uint256,uint8,address,address,uint24,int24,int24,uint256,uint256,address,uint256,bool))": {
        "details": "Slippage protection is enforced via `amount{0,1}Min`, which should be a discount of the expected values of the maximum amount of v3 liquidity that the v2 liquidity can get. For the special case of migrating to an out-of-range position, `amount{0,1}Min` may be set to 0, enforcing that the position remains out of range",
        "params": {
          "params": "The params necessary to migrate v2 liquidity, encoded as `MigrateParams` in calldata"
        }
      },
      "multicall(bytes[])": {
        "details": "The `msg.value` should not be trusted for any method callable from multicall.",
        "params": {
          "data": "The encoded function data for each of the calls to make to this contract"
        },
        "returns": {
          "results": "The results from each of the calls passed in via data"
        }
      },
      "selfPermit(address,uint256,uint256,uint8,bytes32,bytes32)": {
        "details": "The `owner` is always msg.sender and the `spender` is always address(this).",
        "params": {
          "deadline": "A timestamp, the current blocktime must be less than or equal to this timestamp",
          "r": "Must produce valid secp256k1 signature from the holder along with `v` and `s`",
          "s": "Must produce valid secp256k1 signature from the holder along with `r` and `v`",
          "token": "The address of the token spent",
          "v": "Must produce valid secp256k1 signature from the holder along with `r` and `s`",
          "value": "The amount that can be spent of token"
        }
      },
      "selfPermitAllowed(address,uint256,uint256,uint8,bytes32,bytes32)": {
        "details": "The `owner` is always msg.sender and the `spender` is always address(this)",
        "params": {
          "expiry": "The timestamp at which the permit is no longer valid",
          "nonce": "The current nonce of the owner",
          "r": "Must produce valid secp256k1 signature from the holder along with `v` and `s`",
          "s": "Must produce valid secp256k1 signature from the holder along with `r` and `v`",
          "token": "The address of the token spent",
          "v": "Must produce valid secp256k1 signature from the holder along with `r` and `s`"
        }
      },
      "selfPermitAllowedIfNecessary(address,uint256,uint256,uint8,bytes32,bytes32)": {
        "details": "The `owner` is always msg.sender and the `spender` is always address(this) Can be used instead of #selfPermitAllowed to prevent calls from failing due to a frontrun of a call to #selfPermitAllowed.",
        "params": {
          "expiry": "The timestamp at which the permit is no longer valid",
          "nonce": "The current nonce of the owner",
          "r": "Must produce valid secp256k1 signature from the holder along with `v` and `s`",
          "s": "Must produce valid secp256k1 signature from the holder along with `r` and `v`",
          "token": "The address of the token spent",
          "v": "Must produce valid secp256k1 signature from the holder along with `r` and `s`"
        }
      },
      "selfPermitIfNecessary(address,uint256,uint256,uint8,bytes32,bytes32)": {
        "details": "The `owner` is always msg.sender and the `spender` is always address(this). Can be used instead of #selfPermit to prevent calls from failing due to a frontrun of a call to #selfPermit",
        "params": {
          "deadline": "A timestamp, the current blocktime must be less than or equal to this timestamp",
          "r": "Must produce valid secp256k1 signature from the holder along with `v` and `s`",
          "s": "Must produce valid secp256k1 signature from the holder along with `r` and `v`",
          "token": "The address of the token spent",
          "v": "Must produce valid secp256k1 signature from the holder along with `r` and `s`",
          "value": "The amount that can be spent of token"
        }
      }
    },
    "title": "Uniswap V3 Migrator",
    "version": 1
  },
  "userdoc": {
    "kind": "user",
    "methods": {
      "createAndInitializePoolIfNecessary(address,address,uint24,uint160)": {
        "notice": "Creates a new pool if it does not exist, then initializes if not initialized"
      },
      "migrate((address,uint256,uint8,address,address,uint24,int24,int24,uint256,uint256,address,uint256,bool))": {
        "notice": "Migrates liquidity to v3 by burning v2 liquidity and minting a new position for v3"
      },
      "multicall(bytes[])": {
        "notice": "Call multiple functions in the current contract and return the data from all of them if they all succeed"
      },
      "selfPermit(address,uint256,uint256,uint8,bytes32,bytes32)": {
        "notice": "Permits this contract to spend a given token from `msg.sender`"
      },
      "selfPermitAllowed(address,uint256,uint256,uint8,bytes32,bytes32)": {
        "notice": "Permits this contract to spend the sender's tokens for permit signatures that have the `allowed` parameter"
      },
      "selfPermitAllowedIfNecessary(address,uint256,uint256,uint8,bytes32,bytes32)": {
        "notice": "Permits this contract to spend the sender's tokens for permit signatures that have the `allowed` parameter"
      },
      "selfPermitIfNecessary(address,uint256,uint256,uint8,bytes32,bytes32)": {
        "notice": "Permits this contract to spend a given token from `msg.sender`"
      }
    },
    "version": 1
  },
  "storageLayout": {
    "storage": [],
    "types": null
  }
}