{
  "address": "0x1BA1f90A3eB0e59421B54Dbf876119987587C0C3",
  "abi": [
    {
      "inputs": [
        {
          "internalType": "address",
          "name": "_feeToSetter",
          "type": "address"
        }
      ],
      "stateMutability": "nonpayable",
      "type": "constructor"
    },
    {
      "anonymous": false,
      "inputs": [
        {
          "indexed": true,
          "internalType": "address",
          "name": "token0",
          "type": "address"
        },
        {
          "indexed": true,
          "internalType": "address",
          "name": "token1",
          "type": "address"
        },
        {
          "indexed": false,
          "internalType": "address",
          "name": "pair",
          "type": "address"
        },
        {
          "indexed": false,
          "internalType": "uint256",
          "name": "",
          "type": "uint256"
        }
      ],
      "name": "PairCreated",
      "type": "event"
    },
    {
      "inputs": [
        {
          "internalType": "uint256",
          "name": "",
          "type": "uint256"
        }
      ],
      "name": "allPairs",
      "outputs": [
        {
          "internalType": "address",
          "name": "",
          "type": "address"
        }
      ],
      "stateMutability": "view",
      "type": "function"
    },
    {
      "inputs": [],
      "name": "allPairsLength",
      "outputs": [
        {
          "internalType": "uint256",
          "name": "",
          "type": "uint256"
        }
      ],
      "stateMutability": "view",
      "type": "function"
    },
    {
      "inputs": [
        {
          "internalType": "address",
          "name": "tokenA",
          "type": "address"
        },
        {
          "internalType": "address",
          "name": "tokenB",
          "type": "address"
        }
      ],
      "name": "createPair",
      "outputs": [
        {
          "internalType": "address",
          "name": "pair",
          "type": "address"
        }
      ],
      "stateMutability": "nonpayable",
      "type": "function"
    },
    {
      "inputs": [],
      "name": "feeTo",
      "outputs": [
        {
          "internalType": "address",
          "name": "",
          "type": "address"
        }
      ],
      "stateMutability": "view",
      "type": "function"
    },
    {
      "inputs": [],
      "name": "feeToSetter",
      "outputs": [
        {
          "internalType": "address",
          "name": "",
          "type": "address"
        }
      ],
      "stateMutability": "view",
      "type": "function"
    },
    {
      "inputs": [
        {
          "internalType": "address",
          "name": "",
          "type": "address"
        },
        {
          "internalType": "address",
          "name": "",
          "type": "address"
        }
      ],
      "name": "getPair",
      "outputs": [
        {
          "internalType": "address",
          "name": "",
          "type": "address"
        }
      ],
      "stateMutability": "view",
      "type": "function"
    },
    {
      "inputs": [],
      "name": "migrator",
      "outputs": [
        {
          "internalType": "address",
          "name": "",
          "type": "address"
        }
      ],
      "stateMutability": "view",
      "type": "function"
    },
    {
      "inputs": [],
      "name": "pairCodeHash",
      "outputs": [
        {
          "internalType": "bytes32",
          "name": "",
          "type": "bytes32"
        }
      ],
      "stateMutability": "pure",
      "type": "function"
    },
    {
      "inputs": [
        {
          "internalType": "address",
          "name": "_feeTo",
          "type": "address"
        }
      ],
      "name": "setFeeTo",
      "outputs": [],
      "stateMutability": "nonpayable",
      "type": "function"
    },
    {
      "inputs": [
        {
          "internalType": "address",
          "name": "_feeToSetter",
          "type": "address"
        }
      ],
      "name": "setFeeToSetter",
      "outputs": [],
      "stateMutability": "nonpayable",
      "type": "function"
    },
    {
      "inputs": [
        {
          "internalType": "address",
          "name": "_migrator",
          "type": "address"
        }
      ],
      "name": "setMigrator",
      "outputs": [],
      "stateMutability": "nonpayable",
      "type": "function"
    }
  ],
  "transactionHash": "0xbdc3ffb6f3a40e4e871bc3a1c76f5a22d274c9781e4b101bab5b596978b6d9a5",
  "args": [
    "0xf39Fd6e51aad88F6F4ce6aB8827279cffFb92266"
  ],
  "numDeployments": 1,
  "solcInputHash": "1fb783cb8a2c1b9ee79d6413b3391de3",
  "bytecode": "0x608060405234801561001057600080fd5b50604051612c24380380612c248339818101604052602081101561003357600080fd5b5051600180546001600160a01b0319166001600160a01b03909216919091179055612bc1806100636000396000f3fe608060405234801561001057600080fd5b50600436106100a95760003560e01c80637cd07e47116100715780637cd07e47146101395780639aab924814610141578063a2e74af614610149578063c9c653961461016f578063e6a439051461019d578063f46901ed146101cb576100a9565b8063017e7e58146100ae578063094b7415146100d25780631e3dd18b146100da57806323cf3118146100f7578063574f2ba31461011f575b600080fd5b6100b66101f1565b604080516001600160a01b039092168252519081900360200190f35b6100b6610200565b6100b6600480360360208110156100f057600080fd5b503561020f565b61011d6004803603602081101561010d57600080fd5b50356001600160a01b0316610236565b005b6101276102ae565b60408051918252519081900360200190f35b6100b66102b4565b6101276102c3565b61011d6004803603602081101561015f57600080fd5b50356001600160a01b03166102f5565b6100b66004803603604081101561018557600080fd5b506001600160a01b038135811691602001351661036d565b6100b6600480360360408110156101b357600080fd5b506001600160a01b0381358116916020013516610698565b61011d600480360360208110156101e157600080fd5b50356001600160a01b03166106be565b6000546001600160a01b031681565b6001546001600160a01b031681565b6004818154811061021c57fe5b6000918252602090912001546001600160a01b0316905081565b6001546001600160a01b0316331461028c576040805162461bcd60e51b81526020600482015260146024820152732ab734b9bbb0b82b191d102327a92124a22222a760611b604482015290519081900360640190fd5b600280546001600160a01b0319166001600160a01b0392909216919091179055565b60045490565b6002546001600160a01b031681565b6000604051806020016102d590610736565b6020820181038252601f19601f8201166040525080519060200120905090565b6001546001600160a01b0316331461034b576040805162461bcd60e51b81526020600482015260146024820152732ab734b9bbb0b82b191d102327a92124a22222a760611b604482015290519081900360640190fd5b600180546001600160a01b0319166001600160a01b0392909216919091179055565b6000816001600160a01b0316836001600160a01b031614156103d6576040805162461bcd60e51b815260206004820152601e60248201527f556e697377617056323a204944454e544943414c5f4144445245535345530000604482015290519081900360640190fd5b600080836001600160a01b0316856001600160a01b0316106103f95783856103fc565b84845b90925090506001600160a01b03821661045c576040805162461bcd60e51b815260206004820152601760248201527f556e697377617056323a205a45524f5f41444452455353000000000000000000604482015290519081900360640190fd5b6001600160a01b038281166000908152600360209081526040808320858516845290915290205416156104cf576040805162461bcd60e51b8152602060048201526016602482015275556e697377617056323a20504149525f45584953545360501b604482015290519081900360640190fd5b6060604051806020016104e190610736565b6020820181038252601f19601f8201166040525090506000838360405160200180836001600160a01b031660601b8152601401826001600160a01b031660601b815260140192505050604051602081830303815290604052805190602001209050808251602084016000f59450846001600160a01b031663485cc95585856040518363ffffffff1660e01b815260040180836001600160a01b03168152602001826001600160a01b0316815260200192505050600060405180830381600087803b1580156105ae57600080fd5b505af11580156105c2573d6000803e3d6000fd5b505050506001600160a01b0384811660008181526003602081815260408084208987168086529083528185208054978d166001600160a01b031998891681179091559383528185208686528352818520805488168517905560048054600181018255958190527f8a35acfbc15ff81a39ae7d344fd709f28e8600b4aa8c65c6b64bfe7fe36bd19b90950180549097168417909655925483519283529082015281517f0d3648bd0f6ba80134a33ba9275ac585d9d315f0ad8355cddefde31afa28d0e9929181900390910190a35050505092915050565b60036020908152600092835260408084209091529082529020546001600160a01b031681565b6001546001600160a01b03163314610714576040805162461bcd60e51b81526020600482015260146024820152732ab734b9bbb0b82b191d102327a92124a22222a760611b604482015290519081900360640190fd5b600080546001600160a01b0319166001600160a01b0392909216919091179055565b612448806107448339019056fe60806040526001600c5534801561001557600080fd5b50604080518082018252600e81526d2d29bbb0b8102628102a37b5b2b760911b6020918201528151808301835260018152603160f81b9082015281517f8b73c3c69bb8fe3d512ecc4cf759cc79239f7b179b0ffacaa9a75d522b39400f818301527f09e5b79958c1b2c18e22f8e7a170973fa8160a19c1f1a387c578ed7afe2482ea818401527fc89efdaa54c0f20c7adf612882df0950f5a951637e0307cdcb4c672f298b8bc660608201524660808201523060a0808301919091528351808303909101815260c09091019092528151910120600355600580546001600160a01b0319163317905561233c8061010c6000396000f3fe608060405234801561001057600080fd5b50600436106101c45760003560e01c806370a08231116100f9578063bc25cf7711610097578063d21220a711610071578063d21220a714610573578063d505accf1461057b578063dd62ed3e146105cc578063fff6cae9146105fa576101c4565b8063bc25cf7714610521578063bf66d83014610547578063c45a01551461056b576101c4565b806389afcb44116100d357806389afcb44146104a657806395d89b41146104e5578063a9059cbb146104ed578063ba9a7a5614610519576101c4565b806370a08231146104525780637464fc3d146104785780637ecebe0014610480576101c4565b806330adf81f11610166578063485cc95511610140578063485cc955146103ee5780635909c0d51461041c5780635a3d5493146104245780636a6278421461042c576101c4565b806330adf81f146103c0578063313ce567146103c85780633644e515146103e6576101c4565b8063095ea7b3116101a2578063095ea7b31461030c5780630dfe16811461034c57806318160ddd1461037057806323b872dd1461038a576101c4565b8063022c0d9f146101c957806306fdde03146102575780630902f1ac146102d4575b600080fd5b610255600480360360808110156101df57600080fd5b8135916020810135916001600160a01b03604083013516919081019060808101606082013564010000000081111561021657600080fd5b82018360208201111561022857600080fd5b8035906020019184600183028401116401000000008311171561024a57600080fd5b509092509050610602565b005b61025f610b3e565b6040805160208082528351818301528351919283929083019185019080838360005b83811015610299578181015183820152602001610281565b50505050905090810190601f1680156102c65780820380516001836020036101000a031916815260200191505b509250505060405180910390f35b6102dc610b68565b604080516001600160701b03948516815292909316602083015263ffffffff168183015290519081900360600190f35b6103386004803603604081101561032257600080fd5b506001600160a01b038135169060200135610b92565b604080519115158252519081900360200190f35b610354610ba9565b604080516001600160a01b039092168252519081900360200190f35b610378610bb8565b60408051918252519081900360200190f35b610338600480360360608110156103a057600080fd5b506001600160a01b03813581169160208101359091169060400135610bbe565b610378610c52565b6103d0610c76565b6040805160ff9092168252519081900360200190f35b610378610c7b565b6102556004803603604081101561040457600080fd5b506001600160a01b0381358116916020013516610c81565b610378610cfe565b610378610d04565b6103786004803603602081101561044257600080fd5b50356001600160a01b0316610d0a565b6103786004803603602081101561046857600080fd5b50356001600160a01b031661117f565b610378611191565b6103786004803603602081101561049657600080fd5b50356001600160a01b0316611197565b6104cc600480360360208110156104bc57600080fd5b50356001600160a01b03166111a9565b6040805192835260208301919091528051918290030190f35b61025f611536565b6103386004803603604081101561050357600080fd5b506001600160a01b038135169060200135611559565b610378611566565b6102556004803603602081101561053757600080fd5b50356001600160a01b031661156c565b61054f6116d7565b604080516001600160701b039092168252519081900360200190f35b6103546116e6565b6103546116f5565b610255600480360360e081101561059157600080fd5b506001600160a01b03813581169160208101359091169060408101359060608101359060ff6080820135169060a08101359060c00135611704565b610378600480360360408110156105e257600080fd5b506001600160a01b03813581169160200135166118f5565b610255611912565b600c54600114610646576040805162461bcd60e51b815260206004820152600a602482015269158c940e9313d0d2d15160b21b604482015290519081900360640190fd5b6000600c55841515806106595750600084115b6106aa576040805162461bcd60e51b815260206004820152601e60248201527f5632503a494e53554646494349454e545f4f55545055545f414d4f554e540000604482015290519081900360640190fd5b6000806106b5610b68565b5091509150816001600160701b0316871080156106da5750806001600160701b031686105b61072b576040805162461bcd60e51b815260206004820152601a60248201527f5632503a494e53554646494349454e545f4c4951554944495459000000000000604482015290519081900360640190fd5b60065460075460009182916001600160a01b039182169190811690891682148015906107695750806001600160a01b0316896001600160a01b031614155b6107ab576040805162461bcd60e51b815260206004820152600e60248201526d5632503a494e56414c49445f544f60901b604482015290519081900360640190fd5b8a156107bc576107bc828a8d611a6d565b89156107cd576107cd818a8c611a6d565b861561087f57886001600160a01b03166310d1e85c338d8d8c8c6040518663ffffffff1660e01b815260040180866001600160a01b03168152602001858152602001848152602001806020018281038252848482818152602001925080828437600081840152601f19601f8201169050808301925050509650505050505050600060405180830381600087803b15801561086657600080fd5b505af115801561087a573d6000803e3d6000fd5b505050505b604080516370a0823160e01b815230600482015290516001600160a01b038416916370a08231916024808301926020929190829003018186803b1580156108c557600080fd5b505afa1580156108d9573d6000803e3d6000fd5b505050506040513d60208110156108ef57600080fd5b5051604080516370a0823160e01b815230600482015290519195506001600160a01b038316916370a0823191602480820192602092909190829003018186803b15801561093b57600080fd5b505afa15801561094f573d6000803e3d6000fd5b505050506040513d602081101561096557600080fd5b5051925060009150506001600160701b0385168a90038311610988576000610997565b89856001600160701b03160383035b9050600089856001600160701b03160383116109b45760006109c3565b89856001600160701b03160383035b905060008211806109d45750600081115b610a25576040805162461bcd60e51b815260206004820152601d60248201527f5632503a494e53554646494349454e545f494e5055545f414d4f554e54000000604482015290519081900360640190fd5b6000610a47610a35846003611bfd565b610a41876103e8611bfd565b90611c60565b90506000610a59610a35846003611bfd565b9050610a7e620f4240610a786001600160701b038b8116908b16611bfd565b90611bfd565b610a888383611bfd565b1015610aca576040805162461bcd60e51b815260206004820152600c60248201526b556e697377617056323a204b60a01b604482015290519081900360640190fd5b5050610ad884848888611cb0565b60408051838152602081018390528082018d9052606081018c905290516001600160a01b038b169133917fd78ad95fa46c994b6551d0da85fc275fe613ce37657fb8d5e3d130840159d8229181900360800190a350506001600c55505050505050505050565b6040518060400160405280600e81526020016d2d29bbb0b8102628102a37b5b2b760911b81525081565b6008546001600160701b0380821692600160701b830490911691600160e01b900463ffffffff1690565b6000610b9f338484611e68565b5060015b92915050565b6006546001600160a01b031681565b60005481565b6001600160a01b038316600090815260026020908152604080832033845290915281205460001914610c3d576001600160a01b0384166000908152600260209081526040808320338452909152902054610c189083611c60565b6001600160a01b03851660009081526002602090815260408083203384529091529020555b610c48848484611eca565b5060019392505050565b7f6e71edae12b1b97f4d1f60370fef10105fa2faae0126114a169c64845d6126c981565b601281565b60035481565b6005546001600160a01b03163314610cd0576040805162461bcd60e51b815260206004820152600d60248201526c2b19281d2327a92124a22222a760991b604482015290519081900360640190fd5b600680546001600160a01b039384166001600160a01b03199182161790915560078054929093169116179055565b60095481565b600a5481565b6000600c54600114610d50576040805162461bcd60e51b815260206004820152600a602482015269158c940e9313d0d2d15160b21b604482015290519081900360640190fd5b6000600c81905580610d60610b68565b50600654604080516370a0823160e01b815230600482015290519395509193506000926001600160a01b03909116916370a08231916024808301926020929190829003018186803b158015610db457600080fd5b505afa158015610dc8573d6000803e3d6000fd5b505050506040513d6020811015610dde57600080fd5b5051600754604080516370a0823160e01b815230600482015290519293506000926001600160a01b03909216916370a0823191602480820192602092909190829003018186803b158015610e3157600080fd5b505afa158015610e45573d6000803e3d6000fd5b505050506040513d6020811015610e5b57600080fd5b505190506000610e74836001600160701b038716611c60565b90506000610e8b836001600160701b038716611c60565b90506000610e998787611f78565b600054909150806110705760055460408051637cd07e4760e01b815290516000926001600160a01b031691637cd07e47916004808301926020929190829003018186803b158015610ee957600080fd5b505afa158015610efd573d6000803e3d6000fd5b505050506040513d6020811015610f1357600080fd5b50519050336001600160a01b0382161415610fee57806001600160a01b03166340dc0e376040518163ffffffff1660e01b815260040160206040518083038186803b158015610f6157600080fd5b505afa158015610f75573d6000803e3d6000fd5b505050506040513d6020811015610f8b57600080fd5b505199508915801590610fa057506000198a14155b610fe9576040805162461bcd60e51b81526020600482015260156024820152744261642064657369726564206c697175696469747960581b604482015290519081900360640190fd5b61106a565b6001600160a01b03811615611043576040805162461bcd60e51b815260206004820152601660248201527526bab9ba103737ba103430bb329036b4b3b930ba37b960511b604482015290519081900360640190fd5b61105b6103e8610a416110568888611bfd565b6120b8565b995061106a60006103e861210a565b506110b3565b6110b06001600160701b0389166110878684611bfd565b8161108e57fe5b046001600160701b0389166110a38685611bfd565b816110aa57fe5b04612194565b98505b600089116110f25760405162461bcd60e51b81526004018080602001828103825260218152602001806122c56021913960400191505060405180910390fd5b6110fc8a8a61210a565b61110886868a8a611cb0565b81156111325760085461112e906001600160701b0380821691600160701b900416611bfd565b600b555b6040805185815260208101859052815133927f4c209b5fc8ad50758f13e2e1088ba56a560dff690a1c6fef26394f4c03821c4f928290030190a250506001600c5550949695505050505050565b60016020526000908152604090205481565b600b5481565b60046020526000908152604090205481565b600080600c546001146111f0576040805162461bcd60e51b815260206004820152600a602482015269158c940e9313d0d2d15160b21b604482015290519081900360640190fd5b6000600c81905580611200610b68565b50600654600754604080516370a0823160e01b815230600482015290519496509294506001600160a01b039182169391169160009184916370a08231916024808301926020929190829003018186803b15801561125c57600080fd5b505afa158015611270573d6000803e3d6000fd5b505050506040513d602081101561128657600080fd5b5051604080516370a0823160e01b815230600482015290519192506000916001600160a01b038516916370a08231916024808301926020929190829003018186803b1580156112d457600080fd5b505afa1580156112e8573d6000803e3d6000fd5b505050506040513d60208110156112fe57600080fd5b50513060009081526001602052604081205491925061131d8888611f78565b6000549091508061132e8487611bfd565b8161133557fe5b049a50806113438486611bfd565b8161134a57fe5b04995060008b11801561135d575060008a115b6113985760405162461bcd60e51b81526004018080602001828103825260218152602001806122e66021913960400191505060405180910390fd5b6113a230846121ac565b6113ad878d8d611a6d565b6113b8868d8c611a6d565b604080516370a0823160e01b815230600482015290516001600160a01b038916916370a08231916024808301926020929190829003018186803b1580156113fe57600080fd5b505afa158015611412573d6000803e3d6000fd5b505050506040513d602081101561142857600080fd5b5051604080516370a0823160e01b815230600482015290519196506001600160a01b038816916370a0823191602480820192602092909190829003018186803b15801561147457600080fd5b505afa158015611488573d6000803e3d6000fd5b505050506040513d602081101561149e57600080fd5b505193506114ae85858b8b611cb0565b81156114d8576008546114d4906001600160701b0380821691600160701b900416611bfd565b600b555b604080518c8152602081018c905281516001600160a01b038f169233927fdccd412f0b1252819cb1fd330b93224ca42612892bb3f4f789976e6d81936496929081900390910190a35050505050505050506001600c81905550915091565b6040518060400160405280600781526020016605a537761704c560cc1b81525081565b6000610b9f338484611eca565b6103e881565b600c546001146115b0576040805162461bcd60e51b815260206004820152600a602482015269158c940e9313d0d2d15160b21b604482015290519081900360640190fd5b6000600c55600654600754600854604080516370a0823160e01b815230600482015290516001600160a01b0394851694909316926116599285928792611654926001600160701b03169185916370a0823191602480820192602092909190829003018186803b15801561162257600080fd5b505afa158015611636573d6000803e3d6000fd5b505050506040513d602081101561164c57600080fd5b505190611c60565b611a6d565b6116cd81846116546008600e9054906101000a90046001600160701b03166001600160701b0316856001600160a01b03166370a08231306040518263ffffffff1660e01b815260040180826001600160a01b0316815260200191505060206040518083038186803b15801561162257600080fd5b50506001600c5550565b6008546001600160701b031690565b6005546001600160a01b031681565b6007546001600160a01b031681565b42841015611746576040805162461bcd60e51b815260206004820152600a602482015269154c8e9156141254915160b21b604482015290519081900360640190fd5b6003546001600160a01b0380891660008181526004602090815260408083208054600180820190925582517f6e71edae12b1b97f4d1f60370fef10105fa2faae0126114a169c64845d6126c98186015280840196909652958d166060860152608085018c905260a085019590955260c08085018b90528151808603909101815260e08501825280519083012061190160f01b6101008601526101028501969096526101228085019690965280518085039096018652610142840180825286519683019690962095839052610162840180825286905260ff89166101828501526101a284018890526101c28401879052519193926101e280820193601f1981019281900390910190855afa158015611861573d6000803e3d6000fd5b5050604051601f1901519150506001600160a01b038116158015906118975750886001600160a01b0316816001600160a01b0316145b6118df576040805162461bcd60e51b815260206004820152601460248201527355323a494e56414c49445f5349474e415455524560601b604482015290519081900360640190fd5b6118ea898989611e68565b505050505050505050565b600260209081526000928352604080842090915290825290205481565b600c54600114611956576040805162461bcd60e51b815260206004820152600a602482015269158c940e9313d0d2d15160b21b604482015290519081900360640190fd5b6000600c55600654604080516370a0823160e01b81523060048201529051611a66926001600160a01b0316916370a08231916024808301926020929190829003018186803b1580156119a757600080fd5b505afa1580156119bb573d6000803e3d6000fd5b505050506040513d60208110156119d157600080fd5b5051600754604080516370a0823160e01b815230600482015290516001600160a01b03909216916370a0823191602480820192602092909190829003018186803b158015611a1e57600080fd5b505afa158015611a32573d6000803e3d6000fd5b505050506040513d6020811015611a4857600080fd5b50516008546001600160701b0380821691600160701b900416611cb0565b6001600c55565b604080518082018252601981527f7472616e7366657228616464726573732c75696e74323536290000000000000060209182015281516001600160a01b0385811660248301526044808301869052845180840390910181526064909201845291810180516001600160e01b031663a9059cbb60e01b1781529251815160009460609489169392918291908083835b60208310611b1a5780518252601f199092019160209182019101611afb565b6001836020036101000a0380198251168184511680821785525050505050509050019150506000604051808303816000865af19150503d8060008114611b7c576040519150601f19603f3d011682016040523d82523d6000602084013e611b81565b606091505b5091509150818015611baf575080511580611baf5750808060200190516020811015611bac57600080fd5b50515b611bf6576040805162461bcd60e51b8152602060048201526013602482015272158c940e9514905394d1915497d19052531151606a1b604482015290519081900360640190fd5b5050505050565b6000811580611c1857505080820282828281611c1557fe5b04145b610ba3576040805162461bcd60e51b815260206004820152601460248201527364732d6d6174682d6d756c2d6f766572666c6f7760601b604482015290519081900360640190fd5b80820382811115610ba3576040805162461bcd60e51b815260206004820152601560248201527464732d6d6174682d7375622d756e646572666c6f7760581b604482015290519081900360640190fd5b6001600160701b038411801590611cce57506001600160701b038311155b611d0e576040805162461bcd60e51b815260206004820152600c60248201526b5632503a4f564552464c4f5760a01b604482015290519081900360640190fd5b60085463ffffffff42811691600160e01b90048116820390811615801590611d3e57506001600160701b03841615155b8015611d5257506001600160701b03831615155b15611dbd578063ffffffff16611d7a85611d6b8661223e565b6001600160e01b031690612250565b600980546001600160e01b03929092169290920201905563ffffffff8116611da584611d6b8761223e565b600a80546001600160e01b0392909216929092020190555b600880546dffffffffffffffffffffffffffff19166001600160701b03888116919091176dffffffffffffffffffffffffffff60701b1916600160701b8883168102919091176001600160e01b0316600160e01b63ffffffff871602179283905560408051848416815291909304909116602082015281517f1c411e9a96e071241c2f21f7726b17ae89e3cab4c78be50e062b03a9fffbbad1929181900390910190a1505050505050565b6001600160a01b03808416600081815260026020908152604080832094871680845294825291829020859055815185815291517f8c5be1e5ebec7d5bd14f71427d1e84f3dd0314c0f7b2291e5b200ac8c7c3b9259281900390910190a3505050565b6001600160a01b038316600090815260016020526040902054611eed9082611c60565b6001600160a01b038085166000908152600160205260408082209390935590841681522054611f1c9082612275565b6001600160a01b0380841660008181526001602090815260409182902094909455805185815290519193928716927fddf252ad1be2c89b69c2b068fc378daa952ba7f163c4a11628f55a4df523b3ef92918290030190a3505050565b600080600560009054906101000a90046001600160a01b03166001600160a01b031663017e7e586040518163ffffffff1660e01b815260040160206040518083038186803b158015611fc957600080fd5b505afa158015611fdd573d6000803e3d6000fd5b505050506040513d6020811015611ff357600080fd5b5051600b546001600160a01b0382161580159450919250906120a457801561209f5760006120306110566001600160701b03888116908816611bfd565b9050600061203d836120b8565b90508082111561209c57600061205f6120568484611c60565b60005490611bfd565b9050600061207883612072866005611bfd565b90612275565b9050600081838161208557fe5b049050801561209857612098878261210a565b5050505b50505b6120b0565b80156120b0576000600b555b505092915050565b600060038211156120fb575080600160028204015b818110156120f5578091506002818285816120e457fe5b0401816120ed57fe5b0490506120cd565b50612105565b8115612105575060015b919050565b6000546121179082612275565b60009081556001600160a01b03831681526001602052604090205461213c9082612275565b6001600160a01b03831660008181526001602090815260408083209490945583518581529351929391927fddf252ad1be2c89b69c2b068fc378daa952ba7f163c4a11628f55a4df523b3ef9281900390910190a35050565b60008183106121a357816121a5565b825b9392505050565b6001600160a01b0382166000908152600160205260409020546121cf9082611c60565b6001600160a01b038316600090815260016020526040812091909155546121f69082611c60565b60009081556040805183815290516001600160a01b038516917fddf252ad1be2c89b69c2b068fc378daa952ba7f163c4a11628f55a4df523b3ef919081900360200190a35050565b6001600160701b0316600160701b0290565b60006001600160701b0382166001600160e01b0384168161226d57fe5b049392505050565b80820182811015610ba3576040805162461bcd60e51b815260206004820152601460248201527364732d6d6174682d6164642d6f766572666c6f7760601b604482015290519081900360640190fdfe5632503a494e53554646494349454e545f4c49515549444954595f4d494e5445445632503a494e53554646494349454e545f4c49515549444954595f4255524e4544a26469706673582212206476d0f5c6e81c7d71b1505c7505caedd2eab831f24e6c59170afb0e0ef11a0764736f6c634300060c0033a2646970667358221220290650cc5d477a0dd343502a8dac2b1602747edebb65dd8729e9ccd675f8004664736f6c634300060c0033",
  "devdoc": {
    "kind": "dev",
    "methods": {},
    "version": 1
  },
  "userdoc": {
    "kind": "user",
    "methods": {},
    "version": 1
  },
  "storageLayout": {
    "storage": [
      {
        "astId": 2176,
        "contract": "contracts/uniswapv2/UniswapV2Factory.sol:UniswapV2Factory",
        "label": "feeTo",
        "offset": 0,
        "slot": "0",
        "type": "t_address"
      },
      {
        "astId": 2179,
        "contract": "contracts/uniswapv2/UniswapV2Factory.sol:UniswapV2Factory",
        "label": "feeToSetter",
        "offset": 0,
        "slot": "1",
        "type": "t_address"
      },
      {
        "astId": 2182,
        "contract": "contracts/uniswapv2/UniswapV2Factory.sol:UniswapV2Factory",
        "label": "migrator",
        "offset": 0,
        "slot": "2",
        "type": "t_address"
      },
      {
        "astId": 2189,
        "contract": "contracts/uniswapv2/UniswapV2Factory.sol:UniswapV2Factory",
        "label": "getPair",
        "offset": 0,
        "slot": "3",
        "type": "t_mapping(t_address,t_mapping(t_address,t_address))"
      },
      {
        "astId": 2193,
        "contract": "contracts/uniswapv2/UniswapV2Factory.sol:UniswapV2Factory",
        "label": "allPairs",
        "offset": 0,
        "slot": "4",
        "type": "t_array(t_address)dyn_storage"
      }
    ],
    "types": {
      "t_address": {
        "encoding": "inplace",
        "label": "address",
        "numberOfBytes": "20"
      },
      "t_array(t_address)dyn_storage": {
        "base": "t_address",
        "encoding": "dynamic_array",
        "label": "address[]",
        "numberOfBytes": "32"
      },
      "t_mapping(t_address,t_address)": {
        "encoding": "mapping",
        "key": "t_address",
        "label": "mapping(address => address)",
        "numberOfBytes": "32",
        "value": "t_address"
      },
      "t_mapping(t_address,t_mapping(t_address,t_address))": {
        "encoding": "mapping",
        "key": "t_address",
        "label": "mapping(address => mapping(address => address))",
        "numberOfBytes": "32",
        "value": "t_mapping(t_address,t_address)"
      }
    }
  }
}