{
  "address": "0xbf3c4A6a5d6799F5893e8FC086CbBE3c1B507Bc1",
  "abi": [
    {
      "inputs": [
        {
          "internalType": "contract IERC20",
          "name": "_sushi",
          "type": "address"
        },
        {
          "internalType": "address",
          "name": "owner",
          "type": "address"
        }
      ],
      "stateMutability": "nonpayable",
      "type": "constructor"
    },
    {
      "anonymous": false,
      "inputs": [
        {
          "indexed": true,
          "internalType": "address",
          "name": "user",
          "type": "address"
        },
        {
          "indexed": true,
          "internalType": "uint256",
          "name": "pid",
          "type": "uint256"
        },
        {
          "indexed": false,
          "internalType": "uint256",
          "name": "amount",
          "type": "uint256"
        },
        {
          "indexed": true,
          "internalType": "address",
          "name": "to",
          "type": "address"
        }
      ],
      "name": "Deposit",
      "type": "event"
    },
    {
      "anonymous": false,
      "inputs": [
        {
          "indexed": true,
          "internalType": "address",
          "name": "user",
          "type": "address"
        },
        {
          "indexed": true,
          "internalType": "uint256",
          "name": "pid",
          "type": "uint256"
        },
        {
          "indexed": false,
          "internalType": "uint256",
          "name": "amount",
          "type": "uint256"
        },
        {
          "indexed": true,
          "internalType": "address",
          "name": "to",
          "type": "address"
        }
      ],
      "name": "EmergencyWithdraw",
      "type": "event"
    },
    {
      "anonymous": false,
      "inputs": [
        {
          "indexed": true,
          "internalType": "address",
          "name": "user",
          "type": "address"
        },
        {
          "indexed": true,
          "internalType": "uint256",
          "name": "pid",
          "type": "uint256"
        },
        {
          "indexed": false,
          "internalType": "uint256",
          "name": "amount",
          "type": "uint256"
        }
      ],
      "name": "Harvest",
      "type": "event"
    },
    {
      "anonymous": false,
      "inputs": [
        {
          "indexed": true,
          "internalType": "uint256",
          "name": "pid",
          "type": "uint256"
        },
        {
          "indexed": false,
          "internalType": "uint256",
          "name": "allocPoint",
          "type": "uint256"
        },
        {
          "indexed": true,
          "internalType": "contract IERC20",
          "name": "lpToken",
          "type": "address"
        },
        {
          "indexed": true,
          "internalType": "contract IRewarder",
          "name": "rewarder",
          "type": "address"
        }
      ],
      "name": "LogPoolAddition",
      "type": "event"
    },
    {
      "anonymous": false,
      "inputs": [
        {
          "indexed": true,
          "internalType": "uint256",
          "name": "pid",
          "type": "uint256"
        },
        {
          "indexed": false,
          "internalType": "uint256",
          "name": "allocPoint",
          "type": "uint256"
        },
        {
          "indexed": true,
          "internalType": "contract IRewarder",
          "name": "rewarder",
          "type": "address"
        },
        {
          "indexed": false,
          "internalType": "bool",
          "name": "overwrite",
          "type": "bool"
        }
      ],
      "name": "LogSetPool",
      "type": "event"
    },
    {
      "anonymous": false,
      "inputs": [
        {
          "indexed": false,
          "internalType": "uint256",
          "name": "sushiPerSecond",
          "type": "uint256"
        }
      ],
      "name": "LogSushiPerSecond",
      "type": "event"
    },
    {
      "anonymous": false,
      "inputs": [
        {
          "indexed": true,
          "internalType": "uint256",
          "name": "pid",
          "type": "uint256"
        },
        {
          "indexed": false,
          "internalType": "uint64",
          "name": "lastRewardTime",
          "type": "uint64"
        },
        {
          "indexed": false,
          "internalType": "uint256",
          "name": "lpSupply",
          "type": "uint256"
        },
        {
          "indexed": false,
          "internalType": "uint256",
          "name": "accSushiPerShare",
          "type": "uint256"
        }
      ],
      "name": "LogUpdatePool",
      "type": "event"
    },
    {
      "anonymous": false,
      "inputs": [
        {
          "indexed": true,
          "internalType": "address",
          "name": "previousOwner",
          "type": "address"
        },
        {
          "indexed": true,
          "internalType": "address",
          "name": "newOwner",
          "type": "address"
        }
      ],
      "name": "OwnershipTransferred",
      "type": "event"
    },
    {
      "anonymous": false,
      "inputs": [
        {
          "indexed": true,
          "internalType": "address",
          "name": "user",
          "type": "address"
        },
        {
          "indexed": true,
          "internalType": "uint256",
          "name": "pid",
          "type": "uint256"
        },
        {
          "indexed": false,
          "internalType": "uint256",
          "name": "amount",
          "type": "uint256"
        },
        {
          "indexed": true,
          "internalType": "address",
          "name": "to",
          "type": "address"
        }
      ],
      "name": "Withdraw",
      "type": "event"
    },
    {
      "inputs": [],
      "name": "SUSHI",
      "outputs": [
        {
          "internalType": "contract IERC20",
          "name": "",
          "type": "address"
        }
      ],
      "stateMutability": "view",
      "type": "function"
    },
    {
      "inputs": [
        {
          "internalType": "uint256",
          "name": "allocPoint",
          "type": "uint256"
        },
        {
          "internalType": "contract IERC20",
          "name": "_lpToken",
          "type": "address"
        },
        {
          "internalType": "contract IRewarder",
          "name": "_rewarder",
          "type": "address"
        }
      ],
      "name": "add",
      "outputs": [],
      "stateMutability": "nonpayable",
      "type": "function"
    },
    {
      "inputs": [
        {
          "internalType": "address",
          "name": "",
          "type": "address"
        }
      ],
      "name": "addedTokens",
      "outputs": [
        {
          "internalType": "bool",
          "name": "",
          "type": "bool"
        }
      ],
      "stateMutability": "view",
      "type": "function"
    },
    {
      "inputs": [
        {
          "internalType": "bytes[]",
          "name": "calls",
          "type": "bytes[]"
        },
        {
          "internalType": "bool",
          "name": "revertOnFail",
          "type": "bool"
        }
      ],
      "name": "batch",
      "outputs": [
        {
          "internalType": "bool[]",
          "name": "successes",
          "type": "bool[]"
        },
        {
          "internalType": "bytes[]",
          "name": "results",
          "type": "bytes[]"
        }
      ],
      "stateMutability": "payable",
      "type": "function"
    },
    {
      "inputs": [],
      "name": "claimOwnership",
      "outputs": [],
      "stateMutability": "nonpayable",
      "type": "function"
    },
    {
      "inputs": [
        {
          "internalType": "uint256",
          "name": "pid",
          "type": "uint256"
        },
        {
          "internalType": "uint256",
          "name": "amount",
          "type": "uint256"
        },
        {
          "internalType": "address",
          "name": "to",
          "type": "address"
        }
      ],
      "name": "deposit",
      "outputs": [],
      "stateMutability": "nonpayable",
      "type": "function"
    },
    {
      "inputs": [
        {
          "internalType": "uint256",
          "name": "pid",
          "type": "uint256"
        },
        {
          "internalType": "address",
          "name": "to",
          "type": "address"
        }
      ],
      "name": "emergencyWithdraw",
      "outputs": [],
      "stateMutability": "nonpayable",
      "type": "function"
    },
    {
      "inputs": [
        {
          "internalType": "uint256",
          "name": "pid",
          "type": "uint256"
        },
        {
          "internalType": "address",
          "name": "to",
          "type": "address"
        }
      ],
      "name": "harvest",
      "outputs": [],
      "stateMutability": "nonpayable",
      "type": "function"
    },
    {
      "inputs": [
        {
          "internalType": "uint256",
          "name": "",
          "type": "uint256"
        }
      ],
      "name": "lpToken",
      "outputs": [
        {
          "internalType": "contract IERC20",
          "name": "",
          "type": "address"
        }
      ],
      "stateMutability": "view",
      "type": "function"
    },
    {
      "inputs": [
        {
          "internalType": "uint256[]",
          "name": "pids",
          "type": "uint256[]"
        }
      ],
      "name": "massUpdatePools",
      "outputs": [],
      "stateMutability": "nonpayable",
      "type": "function"
    },
    {
      "inputs": [
        {
          "internalType": "uint256",
          "name": "_pid",
          "type": "uint256"
        }
      ],
      "name": "migrate",
      "outputs": [],
      "stateMutability": "nonpayable",
      "type": "function"
    },
    {
      "inputs": [],
      "name": "migrator",
      "outputs": [
        {
          "internalType": "contract IMigratorChef",
          "name": "",
          "type": "address"
        }
      ],
      "stateMutability": "view",
      "type": "function"
    },
    {
      "inputs": [],
      "name": "owner",
      "outputs": [
        {
          "internalType": "address",
          "name": "",
          "type": "address"
        }
      ],
      "stateMutability": "view",
      "type": "function"
    },
    {
      "inputs": [],
      "name": "pendingOwner",
      "outputs": [
        {
          "internalType": "address",
          "name": "",
          "type": "address"
        }
      ],
      "stateMutability": "view",
      "type": "function"
    },
    {
      "inputs": [
        {
          "internalType": "uint256",
          "name": "_pid",
          "type": "uint256"
        },
        {
          "internalType": "address",
          "name": "_user",
          "type": "address"
        }
      ],
      "name": "pendingSushi",
      "outputs": [
        {
          "internalType": "uint256",
          "name": "pending",
          "type": "uint256"
        }
      ],
      "stateMutability": "view",
      "type": "function"
    },
    {
      "inputs": [
        {
          "internalType": "contract IERC20",
          "name": "token",
          "type": "address"
        },
        {
          "internalType": "address",
          "name": "from",
          "type": "address"
        },
        {
          "internalType": "address",
          "name": "to",
          "type": "address"
        },
        {
          "internalType": "uint256",
          "name": "amount",
          "type": "uint256"
        },
        {
          "internalType": "uint256",
          "name": "deadline",
          "type": "uint256"
        },
        {
          "internalType": "uint8",
          "name": "v",
          "type": "uint8"
        },
        {
          "internalType": "bytes32",
          "name": "r",
          "type": "bytes32"
        },
        {
          "internalType": "bytes32",
          "name": "s",
          "type": "bytes32"
        }
      ],
      "name": "permitToken",
      "outputs": [],
      "stateMutability": "nonpayable",
      "type": "function"
    },
    {
      "inputs": [
        {
          "internalType": "uint256",
          "name": "",
          "type": "uint256"
        }
      ],
      "name": "poolInfo",
      "outputs": [
        {
          "internalType": "uint128",
          "name": "accSushiPerShare",
          "type": "uint128"
        },
        {
          "internalType": "uint64",
          "name": "lastRewardTime",
          "type": "uint64"
        },
        {
          "internalType": "uint64",
          "name": "allocPoint",
          "type": "uint64"
        }
      ],
      "stateMutability": "view",
      "type": "function"
    },
    {
      "inputs": [],
      "name": "poolLength",
      "outputs": [
        {
          "internalType": "uint256",
          "name": "pools",
          "type": "uint256"
        }
      ],
      "stateMutability": "view",
      "type": "function"
    },
    {
      "inputs": [
        {
          "internalType": "uint256",
          "name": "",
          "type": "uint256"
        }
      ],
      "name": "rewarder",
      "outputs": [
        {
          "internalType": "contract IRewarder",
          "name": "",
          "type": "address"
        }
      ],
      "stateMutability": "view",
      "type": "function"
    },
    {
      "inputs": [
        {
          "internalType": "uint256",
          "name": "_pid",
          "type": "uint256"
        },
        {
          "internalType": "uint256",
          "name": "_allocPoint",
          "type": "uint256"
        },
        {
          "internalType": "contract IRewarder",
          "name": "_rewarder",
          "type": "address"
        },
        {
          "internalType": "bool",
          "name": "overwrite",
          "type": "bool"
        }
      ],
      "name": "set",
      "outputs": [],
      "stateMutability": "nonpayable",
      "type": "function"
    },
    {
      "inputs": [
        {
          "internalType": "contract IMigratorChef",
          "name": "_migrator",
          "type": "address"
        }
      ],
      "name": "setMigrator",
      "outputs": [],
      "stateMutability": "nonpayable",
      "type": "function"
    },
    {
      "inputs": [
        {
          "internalType": "uint256",
          "name": "_sushiPerSecond",
          "type": "uint256"
        }
      ],
      "name": "setSushiPerSecond",
      "outputs": [],
      "stateMutability": "nonpayable",
      "type": "function"
    },
    {
      "inputs": [],
      "name": "sushiPerSecond",
      "outputs": [
        {
          "internalType": "uint256",
          "name": "",
          "type": "uint256"
        }
      ],
      "stateMutability": "view",
      "type": "function"
    },
    {
      "inputs": [],
      "name": "totalAllocPoint",
      "outputs": [
        {
          "internalType": "uint256",
          "name": "",
          "type": "uint256"
        }
      ],
      "stateMutability": "view",
      "type": "function"
    },
    {
      "inputs": [
        {
          "internalType": "address",
          "name": "newOwner",
          "type": "address"
        },
        {
          "internalType": "bool",
          "name": "direct",
          "type": "bool"
        },
        {
          "internalType": "bool",
          "name": "renounce",
          "type": "bool"
        }
      ],
      "name": "transferOwnership",
      "outputs": [],
      "stateMutability": "nonpayable",
      "type": "function"
    },
    {
      "inputs": [
        {
          "internalType": "uint256",
          "name": "pid",
          "type": "uint256"
        }
      ],
      "name": "updatePool",
      "outputs": [
        {
          "components": [
            {
              "internalType": "uint128",
              "name": "accSushiPerShare",
              "type": "uint128"
            },
            {
              "internalType": "uint64",
              "name": "lastRewardTime",
              "type": "uint64"
            },
            {
              "internalType": "uint64",
              "name": "allocPoint",
              "type": "uint64"
            }
          ],
          "internalType": "struct MiniChefV2.PoolInfo",
          "name": "pool",
          "type": "tuple"
        }
      ],
      "stateMutability": "nonpayable",
      "type": "function"
    },
    {
      "inputs": [
        {
          "internalType": "uint256",
          "name": "",
          "type": "uint256"
        },
        {
          "internalType": "address",
          "name": "",
          "type": "address"
        }
      ],
      "name": "userInfo",
      "outputs": [
        {
          "internalType": "uint256",
          "name": "amount",
          "type": "uint256"
        },
        {
          "internalType": "int256",
          "name": "rewardDebt",
          "type": "int256"
        }
      ],
      "stateMutability": "view",
      "type": "function"
    },
    {
      "inputs": [
        {
          "internalType": "uint256",
          "name": "pid",
          "type": "uint256"
        },
        {
          "internalType": "uint256",
          "name": "amount",
          "type": "uint256"
        },
        {
          "internalType": "address",
          "name": "to",
          "type": "address"
        }
      ],
      "name": "withdraw",
      "outputs": [],
      "stateMutability": "nonpayable",
      "type": "function"
    },
    {
      "inputs": [
        {
          "internalType": "uint256",
          "name": "pid",
          "type": "uint256"
        },
        {
          "internalType": "uint256",
          "name": "amount",
          "type": "uint256"
        },
        {
          "internalType": "address",
          "name": "to",
          "type": "address"
        }
      ],
      "name": "withdrawAndHarvest",
      "outputs": [],
      "stateMutability": "nonpayable",
      "type": "function"
    }
  ],
  "transactionHash": "0x5c7bc9c6eaa207c4f4bd1fc5a44b4b463e51f1d53d2e5cc8809f0403c90b5723",
  "args": [
    "0xDc64a140Aa3E981100a9becA4E685f962f0cF6C9",
    "0xf39Fd6e51aad88F6F4ce6aB8827279cffFb92266"
  ],
  "numDeployments": 1,
  "solcInputHash": "6b7244084d63c8b06712ce7a32b4d8d8",
  "bytecode": "0x60a06040523480156200001157600080fd5b5060405162002f1338038062002f13833981016040819052620000349162000172565b600080546001600160a01b03191633908117825560405190919060008051602062002ef3833981519152908290a36001600160601b0319606083901b166080526200008381600160006200008b565b505062000235565b6000546001600160a01b03163314620000c15760405162461bcd60e51b8152600401620000b890620001e7565b60405180910390fd5b811562000151576001600160a01b038316151580620000dd5750805b620000fc5760405162461bcd60e51b8152600401620000b890620001b0565b600080546040516001600160a01b038087169392169160008051602062002ef383398151915291a3600080546001600160a01b0385166001600160a01b0319918216179091556001805490911690556200016d565b600180546001600160a01b0319166001600160a01b0385161790555b505050565b6000806040838503121562000185578182fd5b825162000192816200021c565b6020840151909250620001a5816200021c565b809150509250929050565b60208082526015908201527f4f776e61626c653a207a65726f20616464726573730000000000000000000000604082015260600190565b6020808252818101527f4f776e61626c653a2063616c6c6572206973206e6f7420746865206f776e6572604082015260600190565b6001600160a01b03811681146200023257600080fd5b50565b60805160601c612c966200025d600039806108cd52806118015280611b245250612c966000f3fe6080604052600436106101c25760003560e01c806379d12ffb116100f75780639baf58c311610095578063c346253d11610064578063c346253d146104f6578063d1abb90714610516578063d2423b5114610536578063e30c397814610557576101c2565b80639baf58c31461048c578063a06e408b146104ac578063ab560e10146104c1578063ab7de098146104d6576101c2565b806388bba42f116100d157806388bba42f146104095780638da5cb5b146104295780638dbdbe6d1461043e57806393f1a40b1461045e576101c2565b806379d12ffb146103a75780637c516e94146103d45780637cd07e47146103f4576101c2565b806323cf3118116101645780634e71e0c81161013e5780634e71e0c81461031857806351eb05a61461032d57806357a5b58c1461035a57806378ed5d1f1461037a576101c2565b806323cf3118146102b85780632f940c70146102d8578063454b0608146102f8576101c2565b80631526fe27116101a05780631526fe271461023457806317caf6f11461026357806318fccc7614610278578063195426ec14610298576101c2565b8063078dfbe7146101c7578063081e3eda146101e95780630ad58d2f14610214575b600080fd5b3480156101d357600080fd5b506101e76101e23660046122a8565b61056c565b005b3480156101f557600080fd5b506101fe61065b565b60405161020b9190612b4a565b60405180910390f35b34801561022057600080fd5b506101e761022f366004612568565b610661565b34801561024057600080fd5b5061025461024f3660046124d3565b6107f1565b60405161020b93929190612b20565b34801561026f57600080fd5b506101fe610833565b34801561028457600080fd5b506101e7610293366004612503565b610839565b3480156102a457600080fd5b506101fe6102b3366004612503565b6109d3565b3480156102c457600080fd5b506101e76102d336600461228c565b610bd3565b3480156102e457600080fd5b506101e76102f3366004612503565b610c1f565b34801561030457600080fd5b506101e76103133660046124d3565b610d40565b34801561032457600080fd5b506101e761105e565b34801561033957600080fd5b5061034d6103483660046124d3565b6110eb565b60405161020b9190612ae7565b34801561036657600080fd5b506101e761037536600461233b565b61136f565b34801561038657600080fd5b5061039a6103953660046124d3565b6113a5565b60405161020b9190612636565b3480156103b357600080fd5b506103c76103c236600461228c565b6113cc565b60405161020b9190612762565b3480156103e057600080fd5b506101e76103ef3660046123b2565b6113e1565b34801561040057600080fd5b5061039a611455565b34801561041557600080fd5b506101e7610424366004612595565b611464565b34801561043557600080fd5b5061039a6115d1565b34801561044a57600080fd5b506101e7610459366004612568565b6115e0565b34801561046a57600080fd5b5061047e610479366004612503565b61176b565b60405161020b929190612b92565b34801561049857600080fd5b506101e76104a73660046124d3565b61178f565b3480156104b857600080fd5b506101fe6117f9565b3480156104cd57600080fd5b5061039a6117ff565b3480156104e257600080fd5b506101e76104f1366004612532565b611823565b34801561050257600080fd5b5061039a6105113660046124d3565b611a49565b34801561052257600080fd5b506101e7610531366004612568565b611a56565b6105496105443660046122f2565b611c89565b60405161020b9291906126c8565b34801561056357600080fd5b5061039a611e19565b6000546001600160a01b0316331461059f5760405162461bcd60e51b815260040161059690612932565b60405180910390fd5b811561063a576001600160a01b0383161515806105b95750805b6105d55760405162461bcd60e51b81526004016105969061284c565b600080546040516001600160a01b03808716939216917f8be0079c531659141344cd1fd0a4f28419497f9722a3daafe3b4186f6b6457e091a3600080546001600160a01b0385166001600160a01b031991821617909155600180549091169055610656565b600180546001600160a01b0319166001600160a01b0385161790555b505050565b60035490565b610669612224565b610672846110eb565b600085815260066020908152604080832033845290915290208151919250906106c49064e8d4a51000906106b09087906001600160801b0316611e28565b816106b757fe5b6001840154919004611e65565b600182015580546106d59085611eb2565b81556005805460009190879081106106e957fe5b6000918252602090912001546001600160a01b03169050801561076f5781546040516345fb1ba160e11b81526001600160a01b03831691638bf637429161073c918a9133918a9160009190600401612b53565b600060405180830381600087803b15801561075657600080fd5b505af115801561076a573d6000803e3d6000fd5b505050505b61079d84866004898154811061078157fe5b6000918252602090912001546001600160a01b03169190611ed5565b836001600160a01b031686336001600160a01b03167f8166bf25f8a2b7ed3c85049207da4358d16edbed977d23fa2ee6f0dde3ec2132886040516107e19190612b4a565b60405180910390a4505050505050565b600381815481106107fe57fe5b6000918252602090912001546001600160801b03811691506001600160401b03600160801b8204811691600160c01b90041683565b60085481565b610841612224565b61084a836110eb565b6000848152600660209081526040808320338452909152812082518154939450909264e8d4a510009161088691906001600160801b0316611e28565b8161088d57fe5b04905060006108b16108ac846001015484611e6590919063ffffffff16565b611fc3565b60018401839055905080156108f4576108f46001600160a01b037f0000000000000000000000000000000000000000000000000000000000000000168683611ed5565b60006005878154811061090357fe5b6000918252602090912001546001600160a01b0316905080156109885783546040516345fb1ba160e11b81526001600160a01b03831691638bf6374291610955918b9133918c91899190600401612b53565b600060405180830381600087803b15801561096f57600080fd5b505af1158015610983573d6000803e3d6000fd5b505050505b86336001600160a01b03167f71bab65ced2e5750775a0613be067df48ef06cf92a496ebf7663ae0660924954846040516109c29190612b4a565b60405180910390a350505050505050565b60006109dd612224565b600384815481106109ea57fe5b600091825260208083206040805160608101825291909301546001600160801b0380821683526001600160401b03600160801b8304811684860152600160c01b90920490911682850152888552600683528385206001600160a01b0389168652909252918320825160048054949650919492169288908110610a6857fe5b6000918252602090912001546040516370a0823160e01b81526001600160a01b03909116906370a0823190610aa1903090600401612636565b60206040518083038186803b158015610ab957600080fd5b505afa158015610acd573d6000803e3d6000fd5b505050506040513d601f19601f82011682018060405250810190610af191906124eb565b905083602001516001600160401b031642118015610b0e57508015155b15610b9a576000610b3585602001516001600160401b031642611eb290919063ffffffff16565b90506000600854610b6887604001516001600160401b0316610b6260095486611e2890919063ffffffff16565b90611e28565b81610b6f57fe5b049050610b9583610b858364e8d4a51000611e28565b81610b8c57fe5b86919004611fe9565b935050505b60018301548354610bc8916108ac9164e8d4a5100090610bba9087611e28565b81610bc157fe5b0490611e65565b979650505050505050565b6000546001600160a01b03163314610bfd5760405162461bcd60e51b815260040161059690612932565b600280546001600160a01b0319166001600160a01b0392909216919091179055565b60008281526006602090815260408083203384529091528120805482825560018201839055600580549293919286908110610c5657fe5b6000918252602090912001546001600160a01b031690508015610cdb576040516345fb1ba160e11b81526001600160a01b03821690638bf6374290610ca8908890339089906000908190600401612b53565b600060405180830381600087803b158015610cc257600080fd5b505af1158015610cd6573d6000803e3d6000fd5b505050505b610ced84836004888154811061078157fe5b836001600160a01b031685336001600160a01b03167f2cac5e20e1541d836381527a43f651851e302817b71dc8e810284e69210c1c6b85604051610d319190612b4a565b60405180910390a45050505050565b6002546001600160a01b0316610d685760405162461bcd60e51b815260040161059690612a00565b600060048281548110610d7757fe5b60009182526020822001546040516370a0823160e01b81526001600160a01b03909116925082906370a0823190610db2903090600401612636565b60206040518083038186803b158015610dca57600080fd5b505afa158015610dde573d6000803e3d6000fd5b505050506040513d601f19601f82011682018060405250810190610e0291906124eb565b60025460405163095ea7b360e01b81529192506001600160a01b038085169263095ea7b392610e3792169085906004016126af565b602060405180830381600087803b158015610e5157600080fd5b505af1158015610e65573d6000803e3d6000fd5b505050506040513d601f19601f82011682018060405250810190610e89919061237a565b5060025460405163ce5494bb60e01b81526000916001600160a01b03169063ce5494bb90610ebb908690600401612636565b602060405180830381600087803b158015610ed557600080fd5b505af1158015610ee9573d6000803e3d6000fd5b505050506040513d601f19601f82011682018060405250810190610f0d9190612396565b6040516370a0823160e01b81529091506001600160a01b038216906370a0823190610f3c903090600401612636565b60206040518083038186803b158015610f5457600080fd5b505afa158015610f68573d6000803e3d6000fd5b505050506040513d601f19601f82011682018060405250810190610f8c91906124eb565b8214610faa5760405162461bcd60e51b81526004016105969061287b565b6001600160a01b03811660009081526007602052604090205460ff1615610fe35760405162461bcd60e51b81526004016105969061299c565b6001600160a01b03808216600090815260076020526040808220805460ff199081166001179091559286168252902080549091169055600480548291908690811061102a57fe5b9060005260206000200160006101000a8154816001600160a01b0302191690836001600160a01b0316021790555050505050565b6001546001600160a01b03163381146110895760405162461bcd60e51b815260040161059690612967565b600080546040516001600160a01b03808516939216917f8be0079c531659141344cd1fd0a4f28419497f9722a3daafe3b4186f6b6457e091a3600080546001600160a01b039092166001600160a01b0319928316179055600180549091169055565b6110f3612224565b6003828154811061110057fe5b60009182526020918290206040805160608101825292909101546001600160801b03811683526001600160401b03600160801b82048116948401859052600160c01b9091041690820152915042111561136a5760006004838154811061116257fe5b6000918252602090912001546040516370a0823160e01b81526001600160a01b03909116906370a082319061119b903090600401612636565b60206040518083038186803b1580156111b357600080fd5b505afa1580156111c7573d6000803e3d6000fd5b505050506040513d601f19601f820116820180604052508101906111eb91906124eb565b9050801561128e57600061121583602001516001600160401b031642611eb290919063ffffffff16565b9050600060085461124285604001516001600160401b0316610b6260095486611e2890919063ffffffff16565b8161124957fe5b04905061128061126f846112628464e8d4a51000611e28565b8161126957fe5b0461200c565b85516001600160801b031690612035565b6001600160801b0316845250505b61129742612064565b6001600160401b0316602083015260038054839190859081106112b657fe5b6000918252602091829020835191018054848401516040958601516001600160801b03199092166001600160801b039094169390931767ffffffffffffffff60801b1916600160801b6001600160401b0394851602176001600160c01b0316600160c01b93909116929092029190911790558301518351915185927f0fc9545022a542541ad085d091fb09a2ab36fee366a4576ab63714ea907ad353926113609290918691612ba0565b60405180910390a2505b919050565b8060005b8181101561139f5761139684848381811061138a57fe5b905060200201356110eb565b50600101611373565b50505050565b600481815481106113b257fe5b6000918252602090912001546001600160a01b0316905081565b60076020526000908152604090205460ff1681565b60405163d505accf60e01b81526001600160a01b0389169063d505accf90611419908a908a908a908a908a908a908a9060040161266e565b600060405180830381600087803b15801561143357600080fd5b505af1158015611447573d6000803e3d6000fd5b505050505050505050505050565b6002546001600160a01b031681565b6000546001600160a01b0316331461148e5760405162461bcd60e51b815260040161059690612932565b6114cd836114c7600387815481106114a257fe5b60009182526020909120015460085490600160c01b90046001600160401b0316611eb2565b90611fe9565b6008556114d983612064565b600385815481106114e657fe5b9060005260206000200160000160186101000a8154816001600160401b0302191690836001600160401b03160217905550801561155a57816005858154811061152b57fe5b9060005260206000200160006101000a8154816001600160a01b0302191690836001600160a01b031602179055505b80611586576005848154811061156c57fe5b6000918252602090912001546001600160a01b0316611588565b815b6001600160a01b0316847f95895a6ab1df54420d241b55243258a33e61b2194db66c1179ec521aae8e186585846040516115c3929190612b82565b60405180910390a350505050565b6000546001600160a01b031681565b6115e8612224565b6115f1846110eb565b60008581526006602090815260408083206001600160a01b038716845290915290208054919250906116239085611fe9565b8155815161165a9064e8d4a51000906116469087906001600160801b0316611e28565b8161164d57fe5b600184015491900461208d565b816001018190555060006005868154811061167157fe5b6000918252602090912001546001600160a01b0316905080156116f75781546040516345fb1ba160e11b81526001600160a01b03831691638bf63742916116c4918a918991829160009190600401612b53565b600060405180830381600087803b1580156116de57600080fd5b505af11580156116f2573d6000803e3d6000fd5b505050505b61172733308760048a8154811061170a57fe5b6000918252602090912001546001600160a01b03169291906120d3565b836001600160a01b031686336001600160a01b03167f02d7e648dd130fc184d383e55bb126ac4c9c60e8f94bf05acdf557ba2d540b47886040516107e19190612b4a565b60066020908152600092835260408084209091529082529020805460019091015482565b6000546001600160a01b031633146117b95760405162461bcd60e51b815260040161059690612932565b60098190556040517fc6ce5eff3291fb2c1517b943daa5067ea76c83816bbf674307fbc7fea3b311d0906117ee908390612b4a565b60405180910390a150565b60095481565b7f000000000000000000000000000000000000000000000000000000000000000081565b6000546001600160a01b0316331461184d5760405162461bcd60e51b815260040161059690612932565b6001600160a01b03821660009081526007602052604090205460ff16156118865760405162461bcd60e51b81526004016105969061299c565b6008546118939084611fe9565b6008556004805460018181019092557f8a35acfbc15ff81a39ae7d344fd709f28e8600b4aa8c65c6b64bfe7fe36bd19b0180546001600160a01b038086166001600160a01b03199283161790925560058054938401815560009081527f036b6384b5eca791c62761152d0c79bb0604c104a5fb6f4eb0703f3154bb3db090930180549285169290911691909117905560408051606081019091529081526003906020810161194042612064565b6001600160401b0316815260200161195786612064565b6001600160401b0390811690915282546001818101855560009485526020808620855193018054828701516040978801518716600160c01b026001600160c01b0391909716600160801b0267ffffffffffffffff60801b196001600160801b039097166001600160801b031990931692909217959095161793909316939093179091556001600160a01b03808716808652600790935292909320805460ff191684179055600454918416929091611a0d91611eb2565b7f81ee0f8c5c46e2cb41984886f77a84181724abb86c32a5f6de539b07509d45e586604051611a3c9190612b4a565b60405180910390a4505050565b600581815481106113b257fe5b611a5e612224565b611a67846110eb565b6000858152600660209081526040808320338452909152812082518154939450909264e8d4a5100091611aa391906001600160801b0316611e28565b81611aaa57fe5b0490506000611ac96108ac846001015484611e6590919063ffffffff16565b9050611b0464e8d4a51000611af486600001516001600160801b031689611e2890919063ffffffff16565b81611afb57fe5b84919004611e65565b60018401558254611b159087611eb2565b8355611b4b6001600160a01b037f0000000000000000000000000000000000000000000000000000000000000000168683611ed5565b600060058881548110611b5a57fe5b6000918252602090912001546001600160a01b031690508015611bdf5783546040516345fb1ba160e11b81526001600160a01b03831691638bf6374291611bac918c9133918c91899190600401612b53565b600060405180830381600087803b158015611bc657600080fd5b505af1158015611bda573d6000803e3d6000fd5b505050505b611bf1868860048b8154811061078157fe5b856001600160a01b031688336001600160a01b03167f8166bf25f8a2b7ed3c85049207da4358d16edbed977d23fa2ee6f0dde3ec21328a604051611c359190612b4a565b60405180910390a487336001600160a01b03167f71bab65ced2e5750775a0613be067df48ef06cf92a496ebf7663ae066092495484604051611c779190612b4a565b60405180910390a35050505050505050565b606080836001600160401b0381118015611ca257600080fd5b50604051908082528060200260200182016040528015611ccc578160200160208202803683370190505b509150836001600160401b0381118015611ce557600080fd5b50604051908082528060200260200182016040528015611d1957816020015b6060815260200190600190039081611d045790505b50905060005b84811015611e10576000606030888885818110611d3857fe5b9050602002810190611d4a9190612bca565b604051611d5892919061260a565b600060405180830381855af49150503d8060008114611d93576040519150601f19603f3d011682016040523d82523d6000602084013e611d98565b606091505b50915091508180611da7575085155b611db0826121c4565b90611dce5760405162461bcd60e51b8152600401610596919061276d565b5081858481518110611ddc57fe5b60200260200101901515908115158152505080848481518110611dfb57fe5b60209081029190910101525050600101611d1f565b50935093915050565b6001546001600160a01b031681565b6000811580611e4357505080820282828281611e4057fe5b04145b611e5f5760405162461bcd60e51b815260040161059690612ab0565b92915050565b6000818303818312801590611e7a5750838113155b80611e8f5750600083128015611e8f57508381135b611eab5760405162461bcd60e51b815260040161059690612a37565b9392505050565b80820382811115611e5f5760405162461bcd60e51b815260040161059690612780565b60006060846001600160a01b031663a9059cbb8585604051602401611efb9291906126af565b6040516020818303038152906040529060e01b6020820180516001600160e01b038381831617835250505050604051611f34919061261a565b6000604051808303816000865af19150503d8060008114611f71576040519150601f19603f3d011682016040523d82523d6000602084013e611f76565b606091505b5091509150818015611fa0575080511580611fa0575080806020019051810190611fa0919061237a565b611fbc5760405162461bcd60e51b8152600401610596906127d4565b5050505050565b600080821215611fe55760405162461bcd60e51b8152600401610596906127af565b5090565b81810181811015611e5f5760405162461bcd60e51b8152600401610596906128fb565b60006001600160801b03821115611fe55760405162461bcd60e51b8152600401610596906128c4565b8181016001600160801b038083169082161015611e5f5760405162461bcd60e51b8152600401610596906128fb565b60006001600160401b03821115611fe55760405162461bcd60e51b8152600401610596906129c9565b60008282018183128015906120a25750838112155b806120b757506000831280156120b757508381125b611eab5760405162461bcd60e51b81526004016105969061280b565b60006060856001600160a01b03166323b872dd8686866040516024016120fb9392919061264a565b6040516020818303038152906040529060e01b6020820180516001600160e01b038381831617835250505050604051612134919061261a565b6000604051808303816000865af19150503d8060008114612171576040519150601f19603f3d011682016040523d82523d6000602084013e612176565b606091505b50915091508180156121a05750805115806121a05750808060200190518101906121a0919061237a565b6121bc5760405162461bcd60e51b815260040161059690612a7b565b505050505050565b606060448251101561220a575060408051808201909152601d81527f5472616e73616374696f6e2072657665727465642073696c656e746c79000000602082015261136a565b60048201915081806020019051810190611e5f9190612439565b604080516060810182526000808252602082018190529181019190915290565b60008083601f840112612255578182fd5b5081356001600160401b0381111561226b578182fd5b602083019150836020808302850101111561228557600080fd5b9250929050565b60006020828403121561229d578081fd5b8135611eab81612c3a565b6000806000606084860312156122bc578182fd5b83356122c781612c3a565b925060208401356122d781612c52565b915060408401356122e781612c52565b809150509250925092565b600080600060408486031215612306578283fd5b83356001600160401b0381111561231b578384fd5b61232786828701612244565b90945092505060208401356122e781612c52565b6000806020838503121561234d578182fd5b82356001600160401b03811115612362578283fd5b61236e85828601612244565b90969095509350505050565b60006020828403121561238b578081fd5b8151611eab81612c52565b6000602082840312156123a7578081fd5b8151611eab81612c3a565b600080600080600080600080610100898b0312156123ce578384fd5b88356123d981612c3a565b975060208901356123e981612c3a565b965060408901356123f981612c3a565b9550606089013594506080890135935060a089013560ff8116811461241c578384fd5b979a969950949793969295929450505060c08201359160e0013590565b60006020828403121561244a578081fd5b81516001600160401b0380821115612460578283fd5b818401915084601f830112612473578283fd5b815181811115612481578384fd5b604051601f8201601f1916810160200183811182821017156124a1578586fd5b6040528181528382016020018710156124b8578485fd5b6124c9826020830160208701612c0e565b9695505050505050565b6000602082840312156124e4578081fd5b5035919050565b6000602082840312156124fc578081fd5b5051919050565b60008060408385031215612515578182fd5b82359150602083013561252781612c3a565b809150509250929050565b600080600060608486031215612546578081fd5b83359250602084013561255881612c3a565b915060408401356122e781612c3a565b60008060006060848603121561257c578081fd5b833592506020840135915060408401356122e781612c3a565b600080600080608085870312156125aa578182fd5b843593506020850135925060408501356125c381612c3a565b915060608501356125d381612c52565b939692955090935050565b600081518084526125f6816020860160208601612c0e565b601f01601f19169290920160200192915050565b6000828483379101908152919050565b6000825161262c818460208701612c0e565b9190910192915050565b6001600160a01b0391909116815260200190565b6001600160a01b039384168152919092166020820152604081019190915260600190565b6001600160a01b0397881681529590961660208601526040850193909352606084019190915260ff16608083015260a082015260c081019190915260e00190565b6001600160a01b03929092168252602082015260400190565b604080825283519082018190526000906020906060840190828701845b828110156127035781511515845292840192908401906001016126e5565b5050508381038285015280855161271a8184612b4a565b91508192508381028201848801865b838110156127535785830385526127418383516125de565b94870194925090860190600101612729565b50909998505050505050505050565b901515815260200190565b600060208252611eab60208301846125de565b602080825260159082015274426f72696e674d6174683a20556e646572666c6f7760581b604082015260600190565b6020808252600b908201526a0496e7465676572203c20360ac1b604082015260600190565b6020808252601c908201527f426f72696e6745524332303a205472616e73666572206661696c656400000000604082015260600190565b60208082526021908201527f5369676e6564536166654d6174683a206164646974696f6e206f766572666c6f6040820152607760f81b606082015260800190565b6020808252601590820152744f776e61626c653a207a65726f206164647265737360581b604082015260600190565b60208082526029908201527f4d61737465724368656656323a206d696772617465642062616c616e6365206d6040820152680eae6e840dac2e8c6d60bb1b606082015260800190565b6020808252601c908201527f426f72696e674d6174683a2075696e74313238204f766572666c6f7700000000604082015260600190565b60208082526018908201527f426f72696e674d6174683a20416464204f766572666c6f770000000000000000604082015260600190565b6020808252818101527f4f776e61626c653a2063616c6c6572206973206e6f7420746865206f776e6572604082015260600190565b6020808252818101527f4f776e61626c653a2063616c6c657220213d2070656e64696e67206f776e6572604082015260600190565b602080825260139082015272151bdad95b88185b1c9958591e481859191959606a1b604082015260600190565b6020808252601b908201527f426f72696e674d6174683a2075696e743634204f766572666c6f770000000000604082015260600190565b6020808252601d908201527f4d61737465724368656656323a206e6f206d69677261746f7220736574000000604082015260600190565b60208082526024908201527f5369676e6564536166654d6174683a207375627472616374696f6e206f766572604082015263666c6f7760e01b606082015260800190565b6020808252818101527f426f72696e6745524332303a205472616e7366657246726f6d206661696c6564604082015260600190565b60208082526018908201527f426f72696e674d6174683a204d756c204f766572666c6f770000000000000000604082015260600190565b81516001600160801b031681526020808301516001600160401b0390811691830191909152604092830151169181019190915260600190565b6001600160801b039390931683526001600160401b03918216602084015216604082015260600190565b90815260200190565b9485526001600160a01b0393841660208601529190921660408401526060830191909152608082015260a00190565b9182521515602082015260400190565b918252602082015260400190565b6001600160401b0393909316835260208301919091526001600160801b0316604082015260600190565b6000808335601e19843603018112612be0578283fd5b8301803591506001600160401b03821115612bf9578283fd5b60200191503681900382131561228557600080fd5b60005b83811015612c29578181015183820152602001612c11565b8381111561139f5750506000910152565b6001600160a01b0381168114612c4f57600080fd5b50565b8015158114612c4f57600080fdfea26469706673582212204a5c5c0d2bec9a526848c2e879af854b3adf078ae34f239e8ecdaeeabe14d6b764736f6c634300060c00338be0079c531659141344cd1fd0a4f28419497f9722a3daafe3b4186f6b6457e0",
  "devdoc": {
    "kind": "dev",
    "methods": {
      "add(uint256,address,address)": {
        "params": {
          "_lpToken": "Address of the LP ERC-20 token.",
          "_rewarder": "Address of the rewarder delegate.",
          "allocPoint": "AP of the new pool."
        }
      },
      "constructor": {
        "params": {
          "_sushi": "The SUSHI token contract address."
        }
      },
      "deposit(uint256,uint256,address)": {
        "params": {
          "amount": "LP token amount to deposit.",
          "pid": "The index of the pool. See `poolInfo`.",
          "to": "The receiver of `amount` deposit benefit."
        }
      },
      "emergencyWithdraw(uint256,address)": {
        "params": {
          "pid": "The index of the pool. See `poolInfo`.",
          "to": "Receiver of the LP tokens."
        }
      },
      "harvest(uint256,address)": {
        "params": {
          "pid": "The index of the pool. See `poolInfo`.",
          "to": "Receiver of SUSHI rewards."
        }
      },
      "massUpdatePools(uint256[])": {
        "params": {
          "pids": "Pool IDs of all to be updated. Make sure to update all active pools."
        }
      },
      "migrate(uint256)": {
        "params": {
          "_pid": "The index of the pool. See `poolInfo`."
        }
      },
      "pendingSushi(uint256,address)": {
        "params": {
          "_pid": "The index of the pool. See `poolInfo`.",
          "_user": "Address of user."
        },
        "returns": {
          "pending": "SUSHI reward for a given user."
        }
      },
      "set(uint256,uint256,address,bool)": {
        "params": {
          "_allocPoint": "New AP of the pool.",
          "_pid": "The index of the pool. See `poolInfo`.",
          "_rewarder": "Address of the rewarder delegate.",
          "overwrite": "True if _rewarder should be `set`. Otherwise `_rewarder` is ignored."
        }
      },
      "setMigrator(address)": {
        "params": {
          "_migrator": "The contract address to set."
        }
      },
      "setSushiPerSecond(uint256)": {
        "params": {
          "_sushiPerSecond": "The amount of Sushi to be distributed per second."
        }
      },
      "updatePool(uint256)": {
        "params": {
          "pid": "The index of the pool. See `poolInfo`."
        },
        "returns": {
          "pool": "Returns the pool that was updated."
        }
      },
      "withdraw(uint256,uint256,address)": {
        "params": {
          "amount": "LP token amount to withdraw.",
          "pid": "The index of the pool. See `poolInfo`.",
          "to": "Receiver of the LP tokens."
        }
      },
      "withdrawAndHarvest(uint256,uint256,address)": {
        "params": {
          "amount": "LP token amount to withdraw.",
          "pid": "The index of the pool. See `poolInfo`.",
          "to": "Receiver of the LP tokens and SUSHI rewards."
        }
      }
    },
    "stateVariables": {
      "addedTokens": {
        "details": "Tokens added"
      },
      "totalAllocPoint": {
        "details": "Total allocation points. Must be the sum of all allocation points in all pools."
      }
    },
    "version": 1
  },
  "userdoc": {
    "kind": "user",
    "methods": {
      "SUSHI()": {
        "notice": "Address of SUSHI contract."
      },
      "add(uint256,address,address)": {
        "notice": "Add a new LP to the pool. Can only be called by the owner. DO NOT add the same LP token more than once. Rewards will be messed up if you do."
      },
      "deposit(uint256,uint256,address)": {
        "notice": "Deposit LP tokens to MCV2 for SUSHI allocation."
      },
      "emergencyWithdraw(uint256,address)": {
        "notice": "Withdraw without caring about rewards. EMERGENCY ONLY."
      },
      "harvest(uint256,address)": {
        "notice": "Harvest proceeds for transaction sender to `to`."
      },
      "lpToken(uint256)": {
        "notice": "Address of the LP token for each MCV2 pool."
      },
      "massUpdatePools(uint256[])": {
        "notice": "Update reward variables for all pools. Be careful of gas spending!"
      },
      "migrate(uint256)": {
        "notice": "Migrate LP token to another LP contract through the `migrator` contract."
      },
      "pendingSushi(uint256,address)": {
        "notice": "View function to see pending SUSHI on frontend."
      },
      "poolInfo(uint256)": {
        "notice": "Info of each MCV2 pool."
      },
      "poolLength()": {
        "notice": "Returns the number of MCV2 pools."
      },
      "rewarder(uint256)": {
        "notice": "Address of each `IRewarder` contract in MCV2."
      },
      "set(uint256,uint256,address,bool)": {
        "notice": "Update the given pool's SUSHI allocation point and `IRewarder` contract. Can only be called by the owner."
      },
      "setMigrator(address)": {
        "notice": "Set the `migrator` contract. Can only be called by the owner."
      },
      "setSushiPerSecond(uint256)": {
        "notice": "Sets the sushi per second to be distributed. Can only be called by the owner."
      },
      "updatePool(uint256)": {
        "notice": "Update reward variables of the given pool."
      },
      "userInfo(uint256,address)": {
        "notice": "Info of each user that stakes LP tokens."
      },
      "withdraw(uint256,uint256,address)": {
        "notice": "Withdraw LP tokens from MCV2."
      },
      "withdrawAndHarvest(uint256,uint256,address)": {
        "notice": "Withdraw LP tokens from MCV2 and harvest proceeds for transaction sender to `to`."
      }
    },
    "notice": "The (older) MasterChef contract gives out a constant number of SUSHI tokens per block. It is the only address with minting rights for SUSHI. The idea for this MasterChef V2 (MCV2) contract is therefore to be the owner of a dummy token that is deposited into the MasterChef V1 (MCV1) contract. The allocation point for this pool on MCV1 is the total allocation point for all pools that receive double incentives.",
    "version": 1
  },
  "storageLayout": {
    "storage": [
      {
        "astId": 149,
        "contract": "contracts/MiniChefV2.sol:MiniChefV2",
        "label": "owner",
        "offset": 0,
        "slot": "0",
        "type": "t_address"
      },
      {
        "astId": 151,
        "contract": "contracts/MiniChefV2.sol:MiniChefV2",
        "label": "pendingOwner",
        "offset": 0,
        "slot": "1",
        "type": "t_address"
      },
      {
        "astId": 2150,
        "contract": "contracts/MiniChefV2.sol:MiniChefV2",
        "label": "migrator",
        "offset": 0,
        "slot": "2",
        "type": "t_contract(IMigratorChef)2116"
      },
      {
        "astId": 2154,
        "contract": "contracts/MiniChefV2.sol:MiniChefV2",
        "label": "poolInfo",
        "offset": 0,
        "slot": "3",
        "type": "t_array(t_struct(PoolInfo)2145_storage)dyn_storage"
      },
      {
        "astId": 2158,
        "contract": "contracts/MiniChefV2.sol:MiniChefV2",
        "label": "lpToken",
        "offset": 0,
        "slot": "4",
        "type": "t_array(t_contract(IERC20)337)dyn_storage"
      },
      {
        "astId": 2162,
        "contract": "contracts/MiniChefV2.sol:MiniChefV2",
        "label": "rewarder",
        "offset": 0,
        "slot": "5",
        "type": "t_array(t_contract(IRewarder)3392)dyn_storage"
      },
      {
        "astId": 2169,
        "contract": "contracts/MiniChefV2.sol:MiniChefV2",
        "label": "userInfo",
        "offset": 0,
        "slot": "6",
        "type": "t_mapping(t_uint256,t_mapping(t_address,t_struct(UserInfo)2138_storage))"
      },
      {
        "astId": 2174,
        "contract": "contracts/MiniChefV2.sol:MiniChefV2",
        "label": "addedTokens",
        "offset": 0,
        "slot": "7",
        "type": "t_mapping(t_address,t_bool)"
      },
      {
        "astId": 2177,
        "contract": "contracts/MiniChefV2.sol:MiniChefV2",
        "label": "totalAllocPoint",
        "offset": 0,
        "slot": "8",
        "type": "t_uint256"
      },
      {
        "astId": 2179,
        "contract": "contracts/MiniChefV2.sol:MiniChefV2",
        "label": "sushiPerSecond",
        "offset": 0,
        "slot": "9",
        "type": "t_uint256"
      }
    ],
    "types": {
      "t_address": {
        "encoding": "inplace",
        "label": "address",
        "numberOfBytes": "20"
      },
      "t_array(t_contract(IERC20)337)dyn_storage": {
        "base": "t_contract(IERC20)337",
        "encoding": "dynamic_array",
        "label": "contract IERC20[]",
        "numberOfBytes": "32"
      },
      "t_array(t_contract(IRewarder)3392)dyn_storage": {
        "base": "t_contract(IRewarder)3392",
        "encoding": "dynamic_array",
        "label": "contract IRewarder[]",
        "numberOfBytes": "32"
      },
      "t_array(t_struct(PoolInfo)2145_storage)dyn_storage": {
        "base": "t_struct(PoolInfo)2145_storage",
        "encoding": "dynamic_array",
        "label": "struct MiniChefV2.PoolInfo[]",
        "numberOfBytes": "32"
      },
      "t_bool": {
        "encoding": "inplace",
        "label": "bool",
        "numberOfBytes": "1"
      },
      "t_contract(IERC20)337": {
        "encoding": "inplace",
        "label": "contract IERC20",
        "numberOfBytes": "20"
      },
      "t_contract(IMigratorChef)2116": {
        "encoding": "inplace",
        "label": "contract IMigratorChef",
        "numberOfBytes": "20"
      },
      "t_contract(IRewarder)3392": {
        "encoding": "inplace",
        "label": "contract IRewarder",
        "numberOfBytes": "20"
      },
      "t_int256": {
        "encoding": "inplace",
        "label": "int256",
        "numberOfBytes": "32"
      },
      "t_mapping(t_address,t_bool)": {
        "encoding": "mapping",
        "key": "t_address",
        "label": "mapping(address => bool)",
        "numberOfBytes": "32",
        "value": "t_bool"
      },
      "t_mapping(t_address,t_struct(UserInfo)2138_storage)": {
        "encoding": "mapping",
        "key": "t_address",
        "label": "mapping(address => struct MiniChefV2.UserInfo)",
        "numberOfBytes": "32",
        "value": "t_struct(UserInfo)2138_storage"
      },
      "t_mapping(t_uint256,t_mapping(t_address,t_struct(UserInfo)2138_storage))": {
        "encoding": "mapping",
        "key": "t_uint256",
        "label": "mapping(uint256 => mapping(address => struct MiniChefV2.UserInfo))",
        "numberOfBytes": "32",
        "value": "t_mapping(t_address,t_struct(UserInfo)2138_storage)"
      },
      "t_struct(PoolInfo)2145_storage": {
        "encoding": "inplace",
        "label": "struct MiniChefV2.PoolInfo",
        "members": [
          {
            "astId": 2140,
            "contract": "contracts/MiniChefV2.sol:MiniChefV2",
            "label": "accSushiPerShare",
            "offset": 0,
            "slot": "0",
            "type": "t_uint128"
          },
          {
            "astId": 2142,
            "contract": "contracts/MiniChefV2.sol:MiniChefV2",
            "label": "lastRewardTime",
            "offset": 16,
            "slot": "0",
            "type": "t_uint64"
          },
          {
            "astId": 2144,
            "contract": "contracts/MiniChefV2.sol:MiniChefV2",
            "label": "allocPoint",
            "offset": 24,
            "slot": "0",
            "type": "t_uint64"
          }
        ],
        "numberOfBytes": "32"
      },
      "t_struct(UserInfo)2138_storage": {
        "encoding": "inplace",
        "label": "struct MiniChefV2.UserInfo",
        "members": [
          {
            "astId": 2135,
            "contract": "contracts/MiniChefV2.sol:MiniChefV2",
            "label": "amount",
            "offset": 0,
            "slot": "0",
            "type": "t_uint256"
          },
          {
            "astId": 2137,
            "contract": "contracts/MiniChefV2.sol:MiniChefV2",
            "label": "rewardDebt",
            "offset": 0,
            "slot": "1",
            "type": "t_int256"
          }
        ],
        "numberOfBytes": "64"
      },
      "t_uint128": {
        "encoding": "inplace",
        "label": "uint128",
        "numberOfBytes": "16"
      },
      "t_uint256": {
        "encoding": "inplace",
        "label": "uint256",
        "numberOfBytes": "32"
      },
      "t_uint64": {
        "encoding": "inplace",
        "label": "uint64",
        "numberOfBytes": "8"
      }
    }
  }
}