{
  "address": "0x245835214BBBB7caD494eDE7903394c09F3b2f90",
  "abi": [
    {
      "inputs": [],
      "name": "NotEnoughBalance",
      "type": "error"
    },
    {
      "anonymous": false,
      "inputs": [
        {
          "indexed": true,
          "internalType": "address",
          "name": "sender",
          "type": "address"
        },
        {
          "indexed": false,
          "internalType": "uint256",
          "name": "amount",
          "type": "uint256"
        }
      ],
      "name": "ETHReceived",
      "type": "event"
    },
    {
      "anonymous": false,
      "inputs": [
        {
          "indexed": true,
          "internalType": "address",
          "name": "tokenAddress",
          "type": "address"
        },
        {
          "indexed": true,
          "internalType": "address",
          "name": "to",
          "type": "address"
        },
        {
          "indexed": false,
          "internalType": "uint256",
          "name": "tokenId",
          "type": "uint256"
        },
        {
          "indexed": false,
          "internalType": "enum zSwapFeeReceiver.CoinType",
          "name": "coinType",
          "type": "uint8"
        }
      ],
      "name": "NFTWithdrawal",
      "type": "event"
    },
    {
      "anonymous": false,
      "inputs": [
        {
          "indexed": true,
          "internalType": "address",
          "name": "previousOwner",
          "type": "address"
        },
        {
          "indexed": true,
          "internalType": "address",
          "name": "newOwner",
          "type": "address"
        }
      ],
      "name": "OwnershipTransferred",
      "type": "event"
    },
    {
      "anonymous": false,
      "inputs": [
        {
          "indexed": true,
          "internalType": "address",
          "name": "tokenAddress",
          "type": "address"
        },
        {
          "indexed": true,
          "internalType": "address",
          "name": "to",
          "type": "address"
        },
        {
          "indexed": false,
          "internalType": "uint256",
          "name": "amount",
          "type": "uint256"
        },
        {
          "indexed": false,
          "internalType": "enum zSwapFeeReceiver.CoinType",
          "name": "coinType",
          "type": "uint8"
        }
      ],
      "name": "Withdrawal",
      "type": "event"
    },
    {
      "inputs": [],
      "name": "owner",
      "outputs": [
        {
          "internalType": "address",
          "name": "",
          "type": "address"
        }
      ],
      "stateMutability": "view",
      "type": "function"
    },
    {
      "inputs": [],
      "name": "renounceOwnership",
      "outputs": [],
      "stateMutability": "nonpayable",
      "type": "function"
    },
    {
      "inputs": [
        {
          "internalType": "address",
          "name": "newOwner",
          "type": "address"
        }
      ],
      "name": "transferOwnership",
      "outputs": [],
      "stateMutability": "nonpayable",
      "type": "function"
    },
    {
      "inputs": [
        {
          "internalType": "uint256",
          "name": "amount",
          "type": "uint256"
        },
        {
          "internalType": "address payable",
          "name": "to",
          "type": "address"
        }
      ],
      "name": "withdraw",
      "outputs": [],
      "stateMutability": "nonpayable",
      "type": "function"
    },
    {
      "inputs": [
        {
          "internalType": "contract IERC20",
          "name": "token",
          "type": "address"
        },
        {
          "internalType": "uint256",
          "name": "amount",
          "type": "uint256"
        },
        {
          "internalType": "address",
          "name": "to",
          "type": "address"
        }
      ],
      "name": "withdrawERC20",
      "outputs": [],
      "stateMutability": "nonpayable",
      "type": "function"
    },
    {
      "inputs": [
        {
          "internalType": "contract IERC721",
          "name": "token",
          "type": "address"
        },
        {
          "internalType": "uint256",
          "name": "tokenId",
          "type": "uint256"
        },
        {
          "internalType": "address",
          "name": "to",
          "type": "address"
        }
      ],
      "name": "withdrawNFT",
      "outputs": [],
      "stateMutability": "nonpayable",
      "type": "function"
    },
    {
      "stateMutability": "payable",
      "type": "receive"
    }
  ],
  "transactionHash": "0x76fb0534b9df1a799f9ee3d562578cdb2bbe25e6509d585fdd95970656e0ce88",
  "args": [],
  "numDeployments": 1,
  "solcInputHash": "7e8c65678be7c8e2d43d951275a76fb1",
  "bytecode": "0x60808060405234605a5760008054336001600160a01b0319821681178355916001600160a01b03909116907f8be0079c531659141344cd1fd0a4f28419497f9722a3daafe3b4186f6b6457e09080a361076d90816100608239f35b600080fdfe60806040526004361015610047575b361561001957600080fd5b6040513481527fbfe611b001dfcd411432f7bf0d79b82b4b2ee81511edac123a3403c357fb972a60203392a2005b6000803560e01c8062f2a6ab146104cf578062f714ce146104315780635fc3ea0b146101e4578063715018a61461018a5780638da5cb5b146101635763f2fde38b14610093575061000e565b34610160576020366003190112610160576004356001600160a01b0381169081900361015c576100c16105ef565b80156101085781546001600160a01b03198116821783556001600160a01b03167f8be0079c531659141344cd1fd0a4f28419497f9722a3daafe3b4186f6b6457e08380a380f35b60405162461bcd60e51b815260206004820152602660248201527f4f776e61626c653a206e6577206f776e657220697320746865207a65726f206160448201526564647265737360d01b6064820152608490fd5b5080fd5b80fd5b5034610160578060031936011261016057546040516001600160a01b039091168152602090f35b50346101605780600319360112610160576101a36105ef565b80546001600160a01b03198116825581906001600160a01b03167f8be0079c531659141344cd1fd0a4f28419497f9722a3daafe3b4186f6b6457e08280a380f35b5034610160576060366003190112610160576004356001600160a01b0381169081900361015c576024359061021761059c565b61021f6105ef565b6040516370a0823160e01b8152306004820152602081602481865afa801561042657849186916103ed575b50106103de5760405163a9059cbb60e01b602082019081526001600160a01b039092166024820181905260448083018690528252939061028b6064826105b7565b858060409485519361029d87866105b7565b602085527f5361666545524332303a206c6f772d6c6576656c2063616c6c206661696c65646020860152519082885af13d156103d1573d9067ffffffffffffffff82116103bd5784516103129392909190610302601f8201601f1916602001846105b7565b82523d89602084013e5b86610647565b80518061033d575b50509060008051602061071883398151915291815190815260016020820152a380f35b81602091810103126103b957602001518015908115036103b95761036257388061031a565b815162461bcd60e51b815260206004820152602a60248201527f5361666545524332303a204552433230206f7065726174696f6e20646964206e6044820152691bdd081cdd58d8d9595960b21b6064820152608490fd5b8580fd5b634e487b7160e01b88526041600452602488fd5b906103129160609061030c565b63569d45cf60e11b8452600484fd5b9150506020813d60201161041e575b81610409602093836105b7565b8101031261041a578390513861024a565b8480fd5b3d91506103fc565b6040513d87823e3d90fd5b5034610160576040366003190112610160576024356001600160a01b03811690600435908290036104cb576104646105ef565b8047106104bc5780838092848282156104b3575b839283928392f1156104a657604080519182526000602083015260008051602061071883398151915291a380f35b50604051903d90823e3d90fd5b506108fc610478565b63569d45cf60e11b8352600483fd5b8280fd5b5034610160576060366003190112610160576004356001600160a01b0381169081900361015c576024359061050261059c565b9161050b6105ef565b813b1561059857604051632142170760e11b81523060048201526001600160a01b03909316602484018190526044840182905292848160648183875af1801561042657610576575b50604080519182526000602083015260008051602061071883398151915291a380f35b936105918160008051602061071883398151915293966105b7565b9390610553565b8380fd5b604435906001600160a01b03821682036105b257565b600080fd5b90601f8019910116810190811067ffffffffffffffff8211176105d957604052565b634e487b7160e01b600052604160045260246000fd5b6000546001600160a01b0316330361060357565b606460405162461bcd60e51b815260206004820152602060248201527f4f776e61626c653a2063616c6c6572206973206e6f7420746865206f776e65726044820152fd5b919290156106a9575081511561065b575090565b3b156106645790565b60405162461bcd60e51b815260206004820152601d60248201527f416464726573733a2063616c6c20746f206e6f6e2d636f6e74726163740000006044820152606490fd5b8251909150156106bc5750805190602001fd5b6040519062461bcd60e51b8252602060048301528181519182602483015260005b8381106106ff5750508160006044809484010152601f80199101168101030190fd5b602082820181015160448784010152859350016106dd56fe2965c46c17b4f2d6b6be246b4dd3698b526b03eaeada24052ffc8de42f71a9c6a26469706673582212207b09fd060d728937c0015460ce535baf7eed95f99779cf60052c1dce676ad5b864736f6c634300081a0033",
  "devdoc": {
    "kind": "dev",
    "methods": {
      "owner()": {
        "details": "Returns the address of the current owner."
      },
      "renounceOwnership()": {
        "details": "Leaves the contract without owner. It will not be possible to call `onlyOwner` functions anymore. Can only be called by the current owner. NOTE: Renouncing ownership will leave the contract without an owner, thereby removing any functionality that is only available to the owner."
      },
      "transferOwnership(address)": {
        "details": "Transfers ownership of the contract to a new account (`newOwner`). Can only be called by the current owner."
      }
    },
    "version": 1
  },
  "userdoc": {
    "kind": "user",
    "methods": {},
    "version": 1
  },
  "storageLayout": {
    "storage": [
      {
        "astId": 546,
        "contract": "contracts/zSwapFeeReceiver.sol:zSwapFeeReceiver",
        "label": "_owner",
        "offset": 0,
        "slot": "0",
        "type": "t_address"
      }
    ],
    "types": {
      "t_address": {
        "encoding": "inplace",
        "label": "address",
        "numberOfBytes": "20"
      }
    }
  }
}