{
  "address": "0x096b78e5227064Fe831046A2E9F89993b501F0b3",
  "abi": [
    {
      "inputs": [
        {
          "internalType": "contract IUniswapV2Router01",
          "name": "_oldRouter",
          "type": "address"
        },
        {
          "internalType": "contract IUniswapV2Router01",
          "name": "_router",
          "type": "address"
        }
      ],
      "stateMutability": "nonpayable",
      "type": "constructor"
    },
    {
      "inputs": [
        {
          "internalType": "address",
          "name": "tokenA",
          "type": "address"
        },
        {
          "internalType": "address",
          "name": "tokenB",
          "type": "address"
        },
        {
          "internalType": "uint256",
          "name": "liquidity",
          "type": "uint256"
        },
        {
          "internalType": "uint256",
          "name": "amountAMin",
          "type": "uint256"
        },
        {
          "internalType": "uint256",
          "name": "amountBMin",
          "type": "uint256"
        },
        {
          "internalType": "uint256",
          "name": "deadline",
          "type": "uint256"
        }
      ],
      "name": "migrate",
      "outputs": [],
      "stateMutability": "nonpayable",
      "type": "function"
    },
    {
      "inputs": [
        {
          "internalType": "address",
          "name": "tokenA",
          "type": "address"
        },
        {
          "internalType": "address",
          "name": "tokenB",
          "type": "address"
        },
        {
          "internalType": "uint256",
          "name": "liquidity",
          "type": "uint256"
        },
        {
          "internalType": "uint256",
          "name": "amountAMin",
          "type": "uint256"
        },
        {
          "internalType": "uint256",
          "name": "amountBMin",
          "type": "uint256"
        },
        {
          "internalType": "uint256",
          "name": "deadline",
          "type": "uint256"
        },
        {
          "internalType": "uint8",
          "name": "v",
          "type": "uint8"
        },
        {
          "internalType": "bytes32",
          "name": "r",
          "type": "bytes32"
        },
        {
          "internalType": "bytes32",
          "name": "s",
          "type": "bytes32"
        }
      ],
      "name": "migrateWithPermit",
      "outputs": [],
      "stateMutability": "nonpayable",
      "type": "function"
    },
    {
      "inputs": [],
      "name": "oldRouter",
      "outputs": [
        {
          "internalType": "contract IUniswapV2Router01",
          "name": "",
          "type": "address"
        }
      ],
      "stateMutability": "view",
      "type": "function"
    },
    {
      "inputs": [],
      "name": "router",
      "outputs": [
        {
          "internalType": "contract IUniswapV2Router01",
          "name": "",
          "type": "address"
        }
      ],
      "stateMutability": "view",
      "type": "function"
    }
  ],
  "transactionHash": "0xb322780438d6e66675065d7cc666bcf6ba9d1c6c3b118056cb2f5276b7e00bee",
  "args": [
    "0xe3d8bd6aed4f159bc8000a9cd47cffdb95f96121",
    "0x0b96E65A92986b8443f3Eb9f077aE70A954387C0"
  ],
  "numDeployments": 1,
  "solcInputHash": "61cb8f7cba63f749259fbecd6648c922",
  "bytecode": "0x608060405234801561001057600080fd5b50604051610f46380380610f468339818101604052604081101561003357600080fd5b508051602090910151600080546001600160a01b039384166001600160a01b03199182161790915560018054939092169216919091179055610ecc8061007a6000396000f3fe608060405234801561001057600080fd5b506004361061004c5760003560e01c8063396ac32814610051578063964c1f98146100b2578063aac55b39146100d6578063f887ea401461011e575b600080fd5b6100b0600480360361012081101561006857600080fd5b506001600160a01b03813581169160208101359091169060408101359060608101359060808101359060a08101359060ff60c0820135169060e0810135906101000135610126565b005b6100ba6101da565b604080516001600160a01b039092168252519081900360200190f35b6100b0600480360360c08110156100ec57600080fd5b506001600160a01b03813581169160208101359091169060408101359060608101359060808101359060a001356101e9565b6100ba610297565b60006101328a8a6102a6565b6040805163d505accf60e01b8152336004820152306024820152604481018b90526064810188905260ff8716608482015260a4810186905260c4810185905290519192506001600160a01b0383169163d505accf9160e48082019260009290919082900301818387803b1580156101a857600080fd5b505af11580156101bc573d6000803e3d6000fd5b505050506101ce8a8a8a8a8a8a6101e9565b50505050505050505050565b6000546001600160a01b031681565b42811015610233576040805162461bcd60e51b815260206004820152601260248201527114dd5cda1a54ddd85c0e881156141254915160721b604482015290519081900360640190fd5b6000806102448888888888886103dc565b915091506000806102578a8a86866105e4565b9150915081841115610279576102796001600160a01b038b1633848703610722565b808311156101ce576101ce6001600160a01b038a1633838603610722565b6001546001600160a01b031681565b60008060006102b5858561088c565b9150915060008054906101000a90046001600160a01b03166001600160a01b031663c45a01556040518163ffffffff1660e01b815260040160206040518083038186803b15801561030557600080fd5b505afa158015610319573d6000803e3d6000fd5b505050506040513d602081101561032f57600080fd5b5051604080516bffffffffffffffffffffffff19606095861b811660208381019190915294861b81166034830152825160288184030181526048830184528051908601206001600160f81b031960688401529390951b9094166069850152607d8401919091527f96e8ac4277198ff8b6f785478aa9a39f403cb768dd02cbee326c3e7da348845f609d808501919091528151808503909101815260bd909301905281519101209392505050565b60008060006103eb89896102a6565b604080516323b872dd60e01b81523360048201526001600160a01b03831660248201819052604482018b9052915192935090916323b872dd916064808201926020929091908290030181600087803b15801561044657600080fd5b505af115801561045a573d6000803e3d6000fd5b505050506040513d602081101561047057600080fd5b50506040805163226bf2d160e21b8152306004820152815160009283926001600160a01b038616926389afcb449260248084019391929182900301818787803b1580156104bc57600080fd5b505af11580156104d0573d6000803e3d6000fd5b505050506040513d60408110156104e657600080fd5b508051602090910151909250905060006105008c8c61088c565b509050806001600160a01b03168c6001600160a01b031614610523578183610526565b82825b909650945088861015610580576040805162461bcd60e51b815260206004820181905260248201527f5375736869526f6c6c3a20494e53554646494349454e545f415f414d4f554e54604482015290519081900360640190fd5b878510156105d5576040805162461bcd60e51b815260206004820181905260248201527f5375736869526f6c6c3a20494e53554646494349454e545f425f414d4f554e54604482015290519081900360640190fd5b50505050965096945050505050565b6000806105f38686868661096a565b6001546040805163c45a015560e01b81529051939550919350600092610677926001600160a01b039092169163c45a0155916004808301926020929190829003018186803b15801561064457600080fd5b505afa158015610658573d6000803e3d6000fd5b505050506040513d602081101561066e57600080fd5b50518888610b87565b905061068d6001600160a01b0388168285610722565b6106a16001600160a01b0387168284610722565b604080516335313c2160e11b815233600482015290516001600160a01b03831691636a6278429160248083019260209291908290030181600087803b1580156106e957600080fd5b505af11580156106fd573d6000803e3d6000fd5b505050506040513d602081101561071357600080fd5b50929791965090945050505050565b604080516001600160a01b038481166024830152604480830185905283518084039091018152606490920183526020820180516001600160e01b031663a9059cbb60e01b178152925182516000946060949389169392918291908083835b6020831061079f5780518252601f199092019160209182019101610780565b6001836020036101000a0380198251168184511680821785525050505050509050019150506000604051808303816000865af19150503d8060008114610801576040519150601f19603f3d011682016040523d82523d6000602084013e610806565b606091505b5091509150818015610834575080511580610834575080806020019051602081101561083157600080fd5b50515b610885576040805162461bcd60e51b815260206004820152601a60248201527f5361666545524332303a205472616e73666572206661696c6564000000000000604482015290519081900360640190fd5b5050505050565b600080826001600160a01b0316846001600160a01b031614156108e05760405162461bcd60e51b8152600401808060200182810382526025815260200180610e256025913960400191505060405180910390fd5b826001600160a01b0316846001600160a01b031610610900578284610903565b83835b90925090506001600160a01b038216610963576040805162461bcd60e51b815260206004820152601e60248201527f556e697377617056324c6962726172793a205a45524f5f414444524553530000604482015290519081900360640190fd5b9250929050565b6000806000600160009054906101000a90046001600160a01b03166001600160a01b031663c45a01556040518163ffffffff1660e01b815260040160206040518083038186803b1580156109bd57600080fd5b505afa1580156109d1573d6000803e3d6000fd5b505050506040513d60208110156109e757600080fd5b50516040805163e6a4390560e01b81526001600160a01b038a81166004830152898116602483015291519293506000929184169163e6a4390591604480820192602092909190829003018186803b158015610a4157600080fd5b505afa158015610a55573d6000803e3d6000fd5b505050506040513d6020811015610a6b57600080fd5b50516001600160a01b03161415610b0957806001600160a01b031663c9c6539688886040518363ffffffff1660e01b815260040180836001600160a01b03168152602001826001600160a01b0316815260200192505050602060405180830381600087803b158015610adc57600080fd5b505af1158015610af0573d6000803e3d6000fd5b505050506040513d6020811015610b0657600080fd5b50505b600080610b17838a8a610c47565b91509150816000148015610b29575080155b15610b3957869450859350610b7b565b6000610b46888484610d15565b9050868111610b5a57879550935083610b79565b6000610b67888486610d15565b905088811115610b7357fe5b95508694505b505b50505094509492505050565b6000806000610b96858561088c565b604080516bffffffffffffffffffffffff19606094851b811660208084019190915293851b81166034830152825160288184030181526048830184528051908501206001600160f81b031960688401529a90941b9093166069840152607d8301989098527fe18a34eb0e04b04f7a0ac29a6e80748dca96319b42c54d679cb821dca90c6303609d808401919091528851808403909101815260bd909201909752805196019590952095945050505050565b6000806000610c56858561088c565b509050600080610c67888888610b87565b6001600160a01b0316630902f1ac6040518163ffffffff1660e01b815260040160606040518083038186803b158015610c9f57600080fd5b505afa158015610cb3573d6000803e3d6000fd5b505050506040513d6060811015610cc957600080fd5b5080516020909101516dffffffffffffffffffffffffffff91821693501690506001600160a01b0387811690841614610d03578082610d06565b81815b90999098509650505050505050565b6000808411610d555760405162461bcd60e51b8152600401808060200182810382526025815260200180610e726025913960400191505060405180910390fd5b600083118015610d655750600082115b610da05760405162461bcd60e51b8152600401808060200182810382526028815260200180610e4a6028913960400191505060405180910390fd5b82610dab8584610dbb565b81610db257fe5b04949350505050565b6000811580610dd657505080820282828281610dd357fe5b04145b610e1e576040805162461bcd60e51b815260206004820152601460248201527364732d6d6174682d6d756c2d6f766572666c6f7760601b604482015290519081900360640190fd5b9291505056fe556e697377617056324c6962726172793a204944454e544943414c5f414444524553534553556e697377617056324c6962726172793a20494e53554646494349454e545f4c4951554944495459556e697377617056324c6962726172793a20494e53554646494349454e545f414d4f554e54a26469706673582212207e8410f73428eb80c292512c0a00260c64447b8b01cbd6ee3b16d93b73b6a07964736f6c634300060c0033",
  "devdoc": {
    "kind": "dev",
    "methods": {},
    "version": 1
  },
  "userdoc": {
    "kind": "user",
    "methods": {},
    "version": 1
  },
  "storageLayout": {
    "storage": [
      {
        "astId": 1531,
        "contract": "contracts/SushiRoll.sol:SushiRoll",
        "label": "oldRouter",
        "offset": 0,
        "slot": "0",
        "type": "t_contract(IUniswapV2Router01)7164"
      },
      {
        "astId": 1533,
        "contract": "contracts/SushiRoll.sol:SushiRoll",
        "label": "router",
        "offset": 0,
        "slot": "1",
        "type": "t_contract(IUniswapV2Router01)7164"
      }
    ],
    "types": {
      "t_contract(IUniswapV2Router01)7164": {
        "encoding": "inplace",
        "label": "contract IUniswapV2Router01",
        "numberOfBytes": "20"
      }
    }
  }
}